{
	"data": {
		"bytecode": {
			"linkReferences": {},
			"object": "6080604052639502f90060055563d09dc300600655600a600755738a753747a1fa494ec906ce90e9f37563a8af630e600860006101000a81548173ffffffffffffffffffffffffffffffffffffffff021916908373ffffffffffffffffffffffffffffffffffffffff160217905550736c67ba02dd5cc63bda9e38c40c06a8d0e7df62cb600960006101000a81548173ffffffffffffffffffffffffffffffffffffffff021916908373ffffffffffffffffffffffffffffffffffffffff1602179055506000600a556000600b556000600c55348015620000df57600080fd5b506040518060200160405280600081525062000101816200033f60201b60201c565b5062000122620001166200035b60201b60201c565b6200036360201b60201c565b60016004819055506040518060800160405280605081526020016200658b60509139600d60006008815260200190815260200160002090805190602001906200016d92919062000429565b506040518060800160405280605081526020016200658b60509139600d6000604481526020019081526020016000209080519060200190620001b192919062000429565b506040518060800160405280605081526020016200653b60509139600d600060a881526020019081526020016000209080519060200190620001f592919062000429565b506040518060400160405280601481526020017f42726f6e7a65205374617264757374204361736b000000000000000000000000815250600e60006008815260200190815260200160002090805190602001906200025592919062000429565b506040518060400160405280601481526020017f53696c766572205374617264757374204361736b000000000000000000000000815250600e6000604481526020019081526020016000209080519060200190620002b592919062000429565b506040518060400160405280601481526020017f476f6c64656e205374617264757374204361736b000000000000000000000000815250600e600060a8815260200190815260200160002090805190602001906200031592919062000429565b506000600f60006101000a81548160ff02191690831515021790555060006010819055506200053e565b80600290805190602001906200035792919062000429565b5050565b600033905090565b6000600360009054906101000a900473ffffffffffffffffffffffffffffffffffffffff16905081600360006101000a81548173ffffffffffffffffffffffffffffffffffffffff021916908373ffffffffffffffffffffffffffffffffffffffff1602179055508173ffffffffffffffffffffffffffffffffffffffff168173ffffffffffffffffffffffffffffffffffffffff167f8be0079c531659141344cd1fd0a4f28419497f9722a3daafe3b4186f6b6457e060405160405180910390a35050565b8280546200043790620004d9565b90600052602060002090601f0160209004810192826200045b5760008555620004a7565b82601f106200047657805160ff1916838001178555620004a7565b82800160010185558215620004a7579182015b82811115620004a657825182559160200191906001019062000489565b5b509050620004b69190620004ba565b5090565b5b80821115620004d5576000816000905550600101620004bb565b5090565b60006002820490506001821680620004f257607f821691505b602082108114156200050957620005086200050f565b5b50919050565b7f4e487b7100000000000000000000000000000000000000000000000000000000600052602260045260246000fd5b615fed806200054e6000396000f3fe6080604052600436106101fc5760003560e01c806382fe246f1161010d578063a3885ebe116100a0578063e985e9c51161006f578063e985e9c51461072a578063f15fbe8614610767578063f242432a14610792578063f2fde38b146107bb578063f4d82507146107e45761023a565b8063a3885ebe1461068d578063ad811da0146106a9578063bb48b5ab146106d4578063c6976028146106ff5761023a565b80639716016c116100dc5780639716016c146105e95780639b0da5d5146106125780639bd8b2e41461063b578063a22cb465146106645761023a565b806382fe246f1461054e578063838663a41461056a5780638da5cb5b1461059557806396085da3146105c05761023a565b806345548224116101905780635907e7e61161015f5780635907e7e614610493578063715018a6146104bc57806372f2e20d146104d357806374b005d6146104fc57806378f0107b146105255761023a565b806345548224146103e95780634c0aac9a146104145780634d8f9b631461042b5780634e1273f4146104565761023a565b8063227545c7116101cc578063227545c7146103555780632d3d5a441461036c5780632eb2c2d6146103955780633bca9c00146103be5761023a565b8062fdd58e1461027357806301ffc9a7146102b05780630e89341c146102ed5780631f8ed9641461032a5761023a565b3661023a577ffd132aba343c58980093ca9e470909842e0f7df051d3c44bc01500ee0c18ae30336040516102309190614895565b60405180910390a1005b7ffd132aba343c58980093ca9e470909842e0f7df051d3c44bc01500ee0c18ae30336040516102699190614895565b60405180910390a1005b34801561027f57600080fd5b5061029a60048036038101906102959190613e24565b61080f565b6040516102a79190614d51565b60405180910390f35b3480156102bc57600080fd5b506102d760048036038101906102d29190614045565b6108d8565b6040516102e491906149f4565b60405180910390f35b3480156102f957600080fd5b50610314600480360381019061030f919061409f565b6109ba565b6040516103219190614a0f565b60405180910390f35b34801561033657600080fd5b5061033f610a36565b60405161034c9190614d51565b60405180910390f35b34801561036157600080fd5b5061036a610a40565b005b34801561037857600080fd5b50610393600480360381019061038e919061409f565b610b56565b005b3480156103a157600080fd5b506103bc60048036038101906103b79190613c7e565b610bdc565b005b3480156103ca57600080fd5b506103d3610c7d565b6040516103e09190614d51565b60405180910390f35b3480156103f557600080fd5b506103fe610c87565b60405161040b9190614d51565b60405180910390f35b34801561042057600080fd5b50610429610ca3565b005b34801561043757600080fd5b50610440610ddb565b60405161044d9190614895565b60405180910390f35b34801561046257600080fd5b5061047d60048036038101906104789190613f4c565b610e01565b60405161048a919061499b565b60405180910390f35b34801561049f57600080fd5b506104ba60048036038101906104b59190613e64565b610f1a565b005b3480156104c857600080fd5b506104d16110a8565b005b3480156104df57600080fd5b506104fa60048036038101906104f5919061409f565b611130565b005b34801561050857600080fd5b50610523600480360381019061051e9190613fc4565b6111b6565b005b34801561053157600080fd5b5061054c60048036038101906105479190613eb7565b6112b9565b005b6105686004803603810190610563919061409f565b611549565b005b34801561057657600080fd5b5061057f6119d6565b60405161058c9190614d51565b60405180910390f35b3480156105a157600080fd5b506105aa6119e0565b6040516105b79190614895565b60405180910390f35b3480156105cc57600080fd5b506105e760048036038101906105e29190613be4565b611a0a565b005b3480156105f557600080fd5b50610610600480360381019061060b919061409f565b611aca565b005b34801561061e57600080fd5b5061063960048036038101906106349190613be4565b611b50565b005b34801561064757600080fd5b50610662600480360381019061065d919061409f565b611c10565b005b34801561067057600080fd5b5061068b60048036038101906106869190613de4565b611c96565b005b6106a760048036038101906106a2919061409f565b611cac565b005b3480156106b557600080fd5b506106be612139565b6040516106cb9190614d51565b60405180910390f35b3480156106e057600080fd5b506106e9612143565b6040516106f69190614d51565b60405180910390f35b34801561070b57600080fd5b5061071461214d565b6040516107219190614d51565b60405180910390f35b34801561073657600080fd5b50610751600480360381019061074c9190613c3e565b612157565b60405161075e91906149f4565b60405180910390f35b34801561077357600080fd5b5061077c6121eb565b6040516107899190614d51565b60405180910390f35b34801561079e57600080fd5b506107b960048036038101906107b49190613d4d565b612207565b005b3480156107c757600080fd5b506107e260048036038101906107dd9190613be4565b6122a8565b005b3480156107f057600080fd5b506107f96123a0565b6040516108069190614d51565b60405180910390f35b60008073ffffffffffffffffffffffffffffffffffffffff168373ffffffffffffffffffffffffffffffffffffffff161415610880576040517f08c379a000000000000000000000000000000000000000000000000000000000815260040161087790614ab1565b60405180910390fd5b60008083815260200190815260200160002060008473ffffffffffffffffffffffffffffffffffffffff1673ffffffffffffffffffffffffffffffffffffffff16815260200190815260200160002054905092915050565b60007fd9b67a26000000000000000000000000000000000000000000000000000000007bffffffffffffffffffffffffffffffffffffffffffffffffffffffff1916827bffffffffffffffffffffffffffffffffffffffffffffffffffffffff191614806109a357507f0e89341c000000000000000000000000000000000000000000000000000000007bffffffffffffffffffffffffffffffffffffffffffffffffffffffff1916827bffffffffffffffffffffffffffffffffffffffffffffffffffffffff1916145b806109b357506109b2826123a6565b5b9050919050565b60606000610a0c600e6000858152602001908152602001600020600d60008681526020019081526020016000206040516020016109f89291906147f8565b604051602081830303815290604052612410565b905080604051602001610a1f919061485e565b604051602081830303815290604052915050919050565b6000600a54905090565b610a486125a8565b73ffffffffffffffffffffffffffffffffffffffff16610a666119e0565b73ffffffffffffffffffffffffffffffffffffffff1614610abc576040517f08c379a0000000000000000000000000000000000000000000000000000000008152600401610ab390614c71565b60405180910390fd5b60001515600f60009054906101000a900460ff16151514610b12576040517f08c379a0000000000000000000000000000000000000000000000000000000008152600401610b0990614c11565b60405180910390fd5b610b1f3360086064610f1a565b610b2c3360446064610f1a565b610b393360a86064610f1a565b6001600f60006101000a81548160ff021916908315150217905550565b610b5e6125a8565b73ffffffffffffffffffffffffffffffffffffffff16610b7c6119e0565b73ffffffffffffffffffffffffffffffffffffffff1614610bd2576040517f08c379a0000000000000000000000000000000000000000000000000000000008152600401610bc990614c71565b60405180910390fd5b8060068190555050565b610be46125a8565b73ffffffffffffffffffffffffffffffffffffffff168573ffffffffffffffffffffffffffffffffffffffff161480610c2a5750610c2985610c246125a8565b612157565b5b610c69576040517f08c379a0000000000000000000000000000000000000000000000000000000008152600401610c6090614bd1565b60405180910390fd5b610c7685858585856125b0565b5050505050565b6000600554905090565b6000610c9e610c976005546128c4565b60126129d6565b905090565b610cab6125a8565b73ffffffffffffffffffffffffffffffffffffffff16610cc96119e0565b73ffffffffffffffffffffffffffffffffffffffff1614610d1f576040517f08c379a0000000000000000000000000000000000000000000000000000000008152600401610d1690614c71565b60405180910390fd5b60004790506000610d2e6119e0565b73ffffffffffffffffffffffffffffffffffffffff1682604051610d5190614880565b60006040518083038185875af1925050503d8060008114610d8e576040519150601f19603f3d011682016040523d82523d6000602084013e610d93565b606091505b5050905080610dd7576040517f08c379a0000000000000000000000000000000000000000000000000000000008152600401610dce90614bf1565b60405180910390fd5b5050565b600960009054906101000a900473ffffffffffffffffffffffffffffffffffffffff1681565b60608151835114610e47576040517f08c379a0000000000000000000000000000000000000000000000000000000008152600401610e3e90614cb1565b60405180910390fd5b6000835167ffffffffffffffff811115610e6457610e636155c8565b5b604051908082528060200260200182016040528015610e925781602001602082028036833780820191505090505b50905060005b8451811015610f0f57610edf858281518110610eb757610eb6615599565b5b6020026020010151858381518110610ed257610ed1615599565b5b602002602001015161080f565b828281518110610ef257610ef1615599565b5b60200260200101818152505080610f08906154c3565b9050610e98565b508091505092915050565b610f226125a8565b73ffffffffffffffffffffffffffffffffffffffff16610f406119e0565b73ffffffffffffffffffffffffffffffffffffffff1614610f96576040517f08c379a0000000000000000000000000000000000000000000000000000000008152600401610f8d90614c71565b60405180910390fd5b6044821415610fc057610fb56000600a54612c7a90919063ffffffff16565b600a81905550611088565b60a8821415610fea57610fdf6000600b54612c7a90919063ffffffff16565b600b81905550611087565b6008821415611014576110096000600c54612c7a90919063ffffffff16565b600c81905550611086565b6040518060400160405280601881526020017f556e6b6e6f776e205374617264757374204361736b20494400000000000000008152506040517f08c379a000000000000000000000000000000000000000000000000000000000815260040161107d9190614a0f565b60405180910390fd5b5b5b6110a383838360405180602001604052806000815250612c90565b505050565b6110b06125a8565b73ffffffffffffffffffffffffffffffffffffffff166110ce6119e0565b73ffffffffffffffffffffffffffffffffffffffff1614611124576040517f08c379a000000000000000000000000000000000000000000000000000000000815260040161111b90614c71565b60405180910390fd5b61112e6000612e26565b565b6111386125a8565b73ffffffffffffffffffffffffffffffffffffffff166111566119e0565b73ffffffffffffffffffffffffffffffffffffffff16146111ac576040517f08c379a00000000000000000000000000000000000000000000000000000000081526004016111a390614c71565b60405180910390fd5b8060058190555050565b6111be6125a8565b73ffffffffffffffffffffffffffffffffffffffff166111dc6119e0565b73ffffffffffffffffffffffffffffffffffffffff1614611232576040517f08c379a000000000000000000000000000000000000000000000000000000000815260040161122990614c71565b60405180910390fd5b60005b848490508110156112b25784848281811061125357611252615599565b5b90506020028101906112659190614d95565b600d600086868681811061127c5761127b615599565b5b905060200201358152602001908152602001600020919061129e9291906137c1565b5080806112aa906154c3565b915050611235565b5050505050565b6112c16125a8565b73ffffffffffffffffffffffffffffffffffffffff166112df6119e0565b73ffffffffffffffffffffffffffffffffffffffff1614611335576040517f08c379a000000000000000000000000000000000000000000000000000000000815260040161132c90614c71565b60405180910390fd5b82829050858590501461137d576040517f08c379a000000000000000000000000000000000000000000000000000000000815260040161137490614a91565b60405180910390fd5b60003073ffffffffffffffffffffffffffffffffffffffff16638da5cb5b6040518163ffffffff1660e01b815260040160206040518083038186803b1580156113c557600080fd5b505afa1580156113d9573d6000803e3d6000fd5b505050506040513d601f19601f820116820180604052508101906113fd9190613c11565b905060005b86869050811015611540576114698288888481811061142457611423615599565b5b90506020020160208101906114399190613be4565b8588888681811061144d5761144c615599565b5b9050602002013560405180602001604052806000815250612207565b60448314156114ab576114a085858381811061148857611487615599565b5b90506020020135600a54612c7a90919063ffffffff16565b600a8190555061152d565b60a88314156114ed576114e28585838181106114ca576114c9615599565b5b90506020020135600b54612c7a90919063ffffffff16565b600b8190555061152c565b600883141561152b5761152485858381811061150c5761150b615599565b5b90506020020135600c54612c7a90919063ffffffff16565b600c819055505b5b5b8080611538906154c3565b915050611402565b50505050505050565b6002600454141561158f576040517f08c379a000000000000000000000000000000000000000000000000000000000815260040161158690614d11565b60405180910390fd5b60026004819055503073ffffffffffffffffffffffffffffffffffffffff16638da5cb5b6040518163ffffffff1660e01b815260040160206040518083038186803b1580156115dd57600080fd5b505afa1580156115f1573d6000803e3d6000fd5b505050506040513d601f19601f820116820180604052508101906116159190613c11565b73ffffffffffffffffffffffffffffffffffffffff163373ffffffffffffffffffffffffffffffffffffffff161415611683576040517f08c379a000000000000000000000000000000000000000000000000000000000815260040161167a90614d31565b60405180910390fd5b600754813073ffffffffffffffffffffffffffffffffffffffff1662fdd58e3360446040518363ffffffff1660e01b81526004016116c2929190614972565b60206040518083038186803b1580156116da57600080fd5b505afa1580156116ee573d6000803e3d6000fd5b505050506040513d601f19601f8201168201806040525081019061171291906140cc565b61171c9190614f42565b111561175d576040517f08c379a000000000000000000000000000000000000000000000000000000000815260040161175490614b11565b60405180910390fd5b8061177361176c6005546128c4565b60126129d6565b61177d91906152bb565b3410156117bf576040517f08c379a00000000000000000000000000000000000000000000000000000000081526004016117b690614af1565b60405180910390fd5b601054813073ffffffffffffffffffffffffffffffffffffffff1662fdd58e3073ffffffffffffffffffffffffffffffffffffffff16638da5cb5b6040518163ffffffff1660e01b815260040160206040518083038186803b15801561182457600080fd5b505afa158015611838573d6000803e3d6000fd5b505050506040513d601f19601f8201168201806040525081019061185c9190613c11565b60446040518363ffffffff1660e01b815260040161187b929190614972565b60206040518083038186803b15801561189357600080fd5b505afa1580156118a7573d6000803e3d6000fd5b505050506040513d601f19601f820116820180604052508101906118cb91906140cc565b6118d59190615315565b1015611916576040517f08c379a000000000000000000000000000000000000000000000000000000000815260040161190d90614b71565b60405180910390fd5b6119b03073ffffffffffffffffffffffffffffffffffffffff16638da5cb5b6040518163ffffffff1660e01b815260040160206040518083038186803b15801561195f57600080fd5b505afa158015611973573d6000803e3d6000fd5b505050506040513d601f19601f820116820180604052508101906119979190613c11565b3360448460405180602001604052806000815250612eec565b6119c581600a54612c7a90919063ffffffff16565b600a81905550600160048190555050565b6000601054905090565b6000600360009054906101000a900473ffffffffffffffffffffffffffffffffffffffff16905090565b611a126125a8565b73ffffffffffffffffffffffffffffffffffffffff16611a306119e0565b73ffffffffffffffffffffffffffffffffffffffff1614611a86576040517f08c379a0000000000000000000000000000000000000000000000000000000008152600401611a7d90614c71565b60405180910390fd5b80600960006101000a81548173ffffffffffffffffffffffffffffffffffffffff021916908373ffffffffffffffffffffffffffffffffffffffff16021790555050565b611ad26125a8565b73ffffffffffffffffffffffffffffffffffffffff16611af06119e0565b73ffffffffffffffffffffffffffffffffffffffff1614611b46576040517f08c379a0000000000000000000000000000000000000000000000000000000008152600401611b3d90614c71565b60405180910390fd5b8060078190555050565b611b586125a8565b73ffffffffffffffffffffffffffffffffffffffff16611b766119e0565b73ffffffffffffffffffffffffffffffffffffffff1614611bcc576040517f08c379a0000000000000000000000000000000000000000000000000000000008152600401611bc390614c71565b60405180910390fd5b80600860006101000a81548173ffffffffffffffffffffffffffffffffffffffff021916908373ffffffffffffffffffffffffffffffffffffffff16021790555050565b611c186125a8565b73ffffffffffffffffffffffffffffffffffffffff16611c366119e0565b73ffffffffffffffffffffffffffffffffffffffff1614611c8c576040517f08c379a0000000000000000000000000000000000000000000000000000000008152600401611c8390614c71565b60405180910390fd5b8060108190555050565b611ca8611ca16125a8565b838361316e565b5050565b60026004541415611cf2576040517f08c379a0000000000000000000000000000000000000000000000000000000008152600401611ce990614d11565b60405180910390fd5b60026004819055503073ffffffffffffffffffffffffffffffffffffffff16638da5cb5b6040518163ffffffff1660e01b815260040160206040518083038186803b158015611d4057600080fd5b505afa158015611d54573d6000803e3d6000fd5b505050506040513d601f19601f82011682018060405250810190611d789190613c11565b73ffffffffffffffffffffffffffffffffffffffff163373ffffffffffffffffffffffffffffffffffffffff161415611de6576040517f08c379a0000000000000000000000000000000000000000000000000000000008152600401611ddd90614b51565b60405180910390fd5b600754813073ffffffffffffffffffffffffffffffffffffffff1662fdd58e3360a86040518363ffffffff1660e01b8152600401611e25929190614972565b60206040518083038186803b158015611e3d57600080fd5b505afa158015611e51573d6000803e3d6000fd5b505050506040513d601f19601f82011682018060405250810190611e7591906140cc565b611e7f9190614f42565b1115611ec0576040517f08c379a0000000000000000000000000000000000000000000000000000000008152600401611eb790614b11565b60405180910390fd5b80611ed6611ecf6006546128c4565b60126129d6565b611ee091906152bb565b341015611f22576040517f08c379a0000000000000000000000000000000000000000000000000000000008152600401611f1990614c51565b60405180910390fd5b601054813073ffffffffffffffffffffffffffffffffffffffff1662fdd58e3073ffffffffffffffffffffffffffffffffffffffff16638da5cb5b6040518163ffffffff1660e01b815260040160206040518083038186803b158015611f8757600080fd5b505afa158015611f9b573d6000803e3d6000fd5b505050506040513d601f19601f82011682018060405250810190611fbf9190613c11565b60a86040518363ffffffff1660e01b8152600401611fde929190614972565b60206040518083038186803b158015611ff657600080fd5b505afa15801561200a573d6000803e3d6000fd5b505050506040513d601f19601f8201168201806040525081019061202e91906140cc565b6120389190615315565b1015612079576040517f08c379a000000000000000000000000000000000000000000000000000000000815260040161207090614a71565b60405180910390fd5b6121133073ffffffffffffffffffffffffffffffffffffffff16638da5cb5b6040518163ffffffff1660e01b815260040160206040518083038186803b1580156120c257600080fd5b505afa1580156120d6573d6000803e3d6000fd5b505050506040513d601f19601f820116820180604052508101906120fa9190613c11565b3360a88460405180602001604052806000815250612eec565b61212881600b54612c7a90919063ffffffff16565b600b81905550600160048190555050565b6000600654905090565b6000600b54905090565b6000600c54905090565b6000600160008473ffffffffffffffffffffffffffffffffffffffff1673ffffffffffffffffffffffffffffffffffffffff16815260200190815260200160002060008373ffffffffffffffffffffffffffffffffffffffff1673ffffffffffffffffffffffffffffffffffffffff16815260200190815260200160002060009054906101000a900460ff16905092915050565b60006122026121fb6006546128c4565b60126129d6565b905090565b61220f6125a8565b73ffffffffffffffffffffffffffffffffffffffff168573ffffffffffffffffffffffffffffffffffffffff16148061225557506122548561224f6125a8565b612157565b5b612294576040517f08c379a000000000000000000000000000000000000000000000000000000000815260040161228b90614b31565b60405180910390fd5b6122a18585858585612eec565b5050505050565b6122b06125a8565b73ffffffffffffffffffffffffffffffffffffffff166122ce6119e0565b73ffffffffffffffffffffffffffffffffffffffff1614612324576040517f08c379a000000000000000000000000000000000000000000000000000000000815260040161231b90614c71565b60405180910390fd5b600073ffffffffffffffffffffffffffffffffffffffff168173ffffffffffffffffffffffffffffffffffffffff161415612394576040517f08c379a000000000000000000000000000000000000000000000000000000000815260040161238b90614ad1565b60405180910390fd5b61239d81612e26565b50565b60075481565b60007f01ffc9a7000000000000000000000000000000000000000000000000000000007bffffffffffffffffffffffffffffffffffffffffffffffffffffffff1916827bffffffffffffffffffffffffffffffffffffffffffffffffffffffff1916149050919050565b6060600082519050600081141561243957604051806020016040528060008152509150506125a3565b6000600360028361244a9190614f42565b6124549190615002565b600461246091906152bb565b905060006020826124719190614f42565b67ffffffffffffffff81111561248a576124896155c8565b5b6040519080825280601f01601f1916602001820160405280156124bc5781602001600182028036833780820191505090505b5090506000604051806060016040528060408152602001615f78604091399050600181016020830160005b868110156125605760038101905062ffffff818a015116603f8160121c168401518060081b905060ff603f83600c1c1686015116810190508060081b905060ff603f8360061c1686015116810190508060081b905060ff603f831686015116810190508060e01b905080845260048401935050506124e7565b50600386066001811461257a576002811461258a57612595565b613d3d60f01b6002830352612595565b603d60f81b60018303525b508484525050819450505050505b919050565b600033905090565b81518351146125f4576040517f08c379a00000000000000000000000000000000000000000000000000000000081526004016125eb90614cd1565b60405180910390fd5b600073ffffffffffffffffffffffffffffffffffffffff168473ffffffffffffffffffffffffffffffffffffffff161415612664576040517f08c379a000000000000000000000000000000000000000000000000000000000815260040161265b90614bb1565b60405180910390fd5b600061266e6125a8565b905061267e8187878787876132db565b60005b845181101561282f57600085828151811061269f5761269e615599565b5b6020026020010151905060008583815181106126be576126bd615599565b5b60200260200101519050600080600084815260200190815260200160002060008b73ffffffffffffffffffffffffffffffffffffffff1673ffffffffffffffffffffffffffffffffffffffff1681526020019081526020016000205490508181101561275f576040517f08c379a000000000000000000000000000000000000000000000000000000000815260040161275690614c31565b60405180910390fd5b81810360008085815260200190815260200160002060008c73ffffffffffffffffffffffffffffffffffffffff1673ffffffffffffffffffffffffffffffffffffffff168152602001908152602001600020819055508160008085815260200190815260200160002060008b73ffffffffffffffffffffffffffffffffffffffff1673ffffffffffffffffffffffffffffffffffffffff16815260200190815260200160002060008282546128149190614f42565b9250508190555050505080612828906154c3565b9050612681565b508473ffffffffffffffffffffffffffffffffffffffff168673ffffffffffffffffffffffffffffffffffffffff168273ffffffffffffffffffffffffffffffffffffffff167f4a39dc06d4c0dbc64b70af90fd698a233a518aa5d07e595d983b8c0526c8f7fb87876040516128a69291906149bd565b60405180910390a46128bc8187878787876132e3565b505050505050565b600080600960009054906101000a900473ffffffffffffffffffffffffffffffffffffffff16905060008173ffffffffffffffffffffffffffffffffffffffff166370a08231336040518263ffffffff1660e01b81526004016129279190614895565b60206040518083038186803b15801561293f57600080fd5b505afa158015612953573d6000803e3d6000fd5b505050506040513d601f19601f8201168201806040525081019061297791906140cc565b90506000806046905060006055905060008411156129ae576064828861299d91906152bb565b6129a79190615002565b92506129c9565b606481886129bc91906152bb565b6129c69190615002565b92505b8295505050505050919050565b60008060ff168260ff161180156129f45750601260ff168260ff1611155b612a33576040517f08c379a0000000000000000000000000000000000000000000000000000000008152600401612a2a90614b91565b60405180910390fd5b60008260ff16600a612a459190615086565b905060008490506000600860009054906101000a900473ffffffffffffffffffffffffffffffffffffffff1673ffffffffffffffffffffffffffffffffffffffff1663313ce5676040518163ffffffff1660e01b815260040160206040518083038186803b158015612ab657600080fd5b505afa158015612aca573d6000803e3d6000fd5b505050506040513d601f19601f82011682018060405250810190612aee9190614174565b9050612afb8282876134ca565b91506000600860009054906101000a900473ffffffffffffffffffffffffffffffffffffffff1673ffffffffffffffffffffffffffffffffffffffff1663feaf968c6040518163ffffffff1660e01b815260040160a06040518083038186803b158015612b6757600080fd5b505afa158015612b7b573d6000803e3d6000fd5b505050506040513d601f19601f82011682018060405250810190612b9f91906140f9565b5050509150506000600860009054906101000a900473ffffffffffffffffffffffffffffffffffffffff1673ffffffffffffffffffffffffffffffffffffffff1663313ce5676040518163ffffffff1660e01b815260040160206040518083038186803b158015612c0f57600080fd5b505afa158015612c23573d6000803e3d6000fd5b505050506040513d601f19601f82011682018060405250810190612c479190614174565b9050612c548282896134ca565b9150818585612c6391906151a4565b612c6d9190614f98565b9550505050505092915050565b60008183612c889190614f42565b905092915050565b600073ffffffffffffffffffffffffffffffffffffffff168473ffffffffffffffffffffffffffffffffffffffff161415612d00576040517f08c379a0000000000000000000000000000000000000000000000000000000008152600401612cf790614cf1565b60405180910390fd5b6000612d0a6125a8565b9050612d2b81600087612d1c8861354d565b612d258861354d565b876132db565b8260008086815260200190815260200160002060008773ffffffffffffffffffffffffffffffffffffffff1673ffffffffffffffffffffffffffffffffffffffff1681526020019081526020016000206000828254612d8a9190614f42565b925050819055508473ffffffffffffffffffffffffffffffffffffffff16600073ffffffffffffffffffffffffffffffffffffffff168273ffffffffffffffffffffffffffffffffffffffff167fc3d58168c5ae7397731d063d5bbf3d657854427343f4c083240f7aacaa2d0f628787604051612e08929190614d6c565b60405180910390a4612e1f816000878787876135c7565b5050505050565b6000600360009054906101000a900473ffffffffffffffffffffffffffffffffffffffff16905081600360006101000a81548173ffffffffffffffffffffffffffffffffffffffff021916908373ffffffffffffffffffffffffffffffffffffffff1602179055508173ffffffffffffffffffffffffffffffffffffffff168173ffffffffffffffffffffffffffffffffffffffff167f8be0079c531659141344cd1fd0a4f28419497f9722a3daafe3b4186f6b6457e060405160405180910390a35050565b600073ffffffffffffffffffffffffffffffffffffffff168473ffffffffffffffffffffffffffffffffffffffff161415612f5c576040517f08c379a0000000000000000000000000000000000000000000000000000000008152600401612f5390614bb1565b60405180910390fd5b6000612f666125a8565b9050612f86818787612f778861354d565b612f808861354d565b876132db565b600080600086815260200190815260200160002060008873ffffffffffffffffffffffffffffffffffffffff1673ffffffffffffffffffffffffffffffffffffffff1681526020019081526020016000205490508381101561301d576040517f08c379a000000000000000000000000000000000000000000000000000000000815260040161301490614c31565b60405180910390fd5b83810360008087815260200190815260200160002060008973ffffffffffffffffffffffffffffffffffffffff1673ffffffffffffffffffffffffffffffffffffffff168152602001908152602001600020819055508360008087815260200190815260200160002060008873ffffffffffffffffffffffffffffffffffffffff1673ffffffffffffffffffffffffffffffffffffffff16815260200190815260200160002060008282546130d29190614f42565b925050819055508573ffffffffffffffffffffffffffffffffffffffff168773ffffffffffffffffffffffffffffffffffffffff168373ffffffffffffffffffffffffffffffffffffffff167fc3d58168c5ae7397731d063d5bbf3d657854427343f4c083240f7aacaa2d0f62888860405161314f929190614d6c565b60405180910390a46131658288888888886135c7565b50505050505050565b8173ffffffffffffffffffffffffffffffffffffffff168373ffffffffffffffffffffffffffffffffffffffff1614156131dd576040517f08c379a00000000000000000000000000000000000000000000000000000000081526004016131d490614c91565b60405180910390fd5b80600160008573ffffffffffffffffffffffffffffffffffffffff1673ffffffffffffffffffffffffffffffffffffffff16815260200190815260200160002060008473ffffffffffffffffffffffffffffffffffffffff1673ffffffffffffffffffffffffffffffffffffffff16815260200190815260200160002060006101000a81548160ff0219169083151502179055508173ffffffffffffffffffffffffffffffffffffffff168373ffffffffffffffffffffffffffffffffffffffff167f17307eab39ab6107e8899845ad3d59bd9653f200f220920489ca2b5937696c31836040516132ce91906149f4565b60405180910390a3505050565b505050505050565b6133028473ffffffffffffffffffffffffffffffffffffffff166137ae565b156134c2578373ffffffffffffffffffffffffffffffffffffffff1663bc197c8187878686866040518663ffffffff1660e01b81526004016133489594939291906148b0565b602060405180830381600087803b15801561336257600080fd5b505af192505050801561339357506040513d601f19601f820116820180604052508101906133909190614072565b60015b6134395761339f6155f7565b806308c379a014156133fc57506133b4615e40565b806133bf57506133fe565b806040517f08c379a00000000000000000000000000000000000000000000000000000000081526004016133f39190614a0f565b60405180910390fd5b505b6040517f08c379a000000000000000000000000000000000000000000000000000000000815260040161343090614a31565b60405180910390fd5b63bc197c8160e01b7bffffffffffffffffffffffffffffffffffffffffffffffffffffffff1916817bffffffffffffffffffffffffffffffffffffffffffffffffffffffff1916146134c0576040517f08c379a00000000000000000000000000000000000000000000000000000000081526004016134b790614a51565b60405180910390fd5b505b505050505050565b60008160ff168360ff1610156135075782826134e69190615349565b60ff16600a6134f59190615086565b8461350091906151a4565b9050613546565b8160ff168360ff1611156135425781836135219190615349565b60ff16600a6135309190615086565b8461353b9190614f98565b9050613546565b8390505b9392505050565b60606000600167ffffffffffffffff81111561356c5761356b6155c8565b5b60405190808252806020026020018201604052801561359a5781602001602082028036833780820191505090505b50905082816000815181106135b2576135b1615599565b5b60200260200101818152505080915050919050565b6135e68473ffffffffffffffffffffffffffffffffffffffff166137ae565b156137a6578373ffffffffffffffffffffffffffffffffffffffff1663f23a6e6187878686866040518663ffffffff1660e01b815260040161362c959493929190614918565b602060405180830381600087803b15801561364657600080fd5b505af192505050801561367757506040513d601f19601f820116820180604052508101906136749190614072565b60015b61371d576136836155f7565b806308c379a014156136e05750613698615e40565b806136a357506136e2565b806040517f08c379a00000000000000000000000000000000000000000000000000000000081526004016136d79190614a0f565b60405180910390fd5b505b6040517f08c379a000000000000000000000000000000000000000000000000000000000815260040161371490614a31565b60405180910390fd5b63f23a6e6160e01b7bffffffffffffffffffffffffffffffffffffffffffffffffffffffff1916817bffffffffffffffffffffffffffffffffffffffffffffffffffffffff1916146137a4576040517f08c379a000000000000000000000000000000000000000000000000000000000815260040161379b90614a51565b60405180910390fd5b505b505050505050565b600080823b905060008111915050919050565b8280546137cd90615460565b90600052602060002090601f0160209004810192826137ef5760008555613836565b82601f1061380857803560ff1916838001178555613836565b82800160010185558215613836579182015b8281111561383557823582559160200191906001019061381a565b5b5090506138439190613847565b5090565b5b80821115613860576000816000905550600101613848565b5090565b600061387761387284614e1d565b614df8565b9050808382526020820190508285602086028201111561389a5761389961562d565b5b60005b858110156138ca57816138b08882613986565b84526020840193506020830192505060018101905061389d565b5050509392505050565b60006138e76138e284614e49565b614df8565b9050808382526020820190508285602086028201111561390a5761390961562d565b5b60005b8581101561393a57816139208882613b90565b84526020840193506020830192505060018101905061390d565b5050509392505050565b600061395761395284614e75565b614df8565b90508281526020810184848401111561397357613972615637565b5b61397e84828561541e565b509392505050565b60008135905061399581615ed6565b92915050565b6000815190506139aa81615ed6565b92915050565b60008083601f8401126139c6576139c561561e565b5b8235905067ffffffffffffffff8111156139e3576139e2615619565b5b6020830191508360208202830111156139ff576139fe61562d565b5b9250929050565b600082601f830112613a1b57613a1a61561e565b5b8135613a2b848260208601613864565b91505092915050565b60008083601f840112613a4a57613a4961561e565b5b8235905067ffffffffffffffff811115613a6757613a66615619565b5b602083019150836020820283011115613a8357613a8261562d565b5b9250929050565b60008083601f840112613aa057613a9f61561e565b5b8235905067ffffffffffffffff811115613abd57613abc615619565b5b602083019150836020820283011115613ad957613ad861562d565b5b9250929050565b600082601f830112613af557613af461561e565b5b8135613b058482602086016138d4565b91505092915050565b600081359050613b1d81615eed565b92915050565b600081359050613b3281615f04565b92915050565b600081519050613b4781615f04565b92915050565b600082601f830112613b6257613b6161561e565b5b8135613b72848260208601613944565b91505092915050565b600081519050613b8a81615f1b565b92915050565b600081359050613b9f81615f32565b92915050565b600081519050613bb481615f32565b92915050565b600081519050613bc981615f60565b92915050565b600081519050613bde81615f49565b92915050565b600060208284031215613bfa57613bf9615641565b5b6000613c0884828501613986565b91505092915050565b600060208284031215613c2757613c26615641565b5b6000613c358482850161399b565b91505092915050565b60008060408385031215613c5557613c54615641565b5b6000613c6385828601613986565b9250506020613c7485828601613986565b9150509250929050565b600080600080600060a08688031215613c9a57613c99615641565b5b6000613ca888828901613986565b9550506020613cb988828901613986565b945050604086013567ffffffffffffffff811115613cda57613cd961563c565b5b613ce688828901613ae0565b935050606086013567ffffffffffffffff811115613d0757613d0661563c565b5b613d1388828901613ae0565b925050608086013567ffffffffffffffff811115613d3457613d3361563c565b5b613d4088828901613b4d565b9150509295509295909350565b600080600080600060a08688031215613d6957613d68615641565b5b6000613d7788828901613986565b9550506020613d8888828901613986565b9450506040613d9988828901613b90565b9350506060613daa88828901613b90565b925050608086013567ffffffffffffffff811115613dcb57613dca61563c565b5b613dd788828901613b4d565b9150509295509295909350565b60008060408385031215613dfb57613dfa615641565b5b6000613e0985828601613986565b9250506020613e1a85828601613b0e565b9150509250929050565b60008060408385031215613e3b57613e3a615641565b5b6000613e4985828601613986565b9250506020613e5a85828601613b90565b9150509250929050565b600080600060608486031215613e7d57613e7c615641565b5b6000613e8b86828701613986565b9350506020613e9c86828701613b90565b9250506040613ead86828701613b90565b9150509250925092565b600080600080600060608688031215613ed357613ed2615641565b5b600086013567ffffffffffffffff811115613ef157613ef061563c565b5b613efd888289016139b0565b9550955050602086013567ffffffffffffffff811115613f2057613f1f61563c565b5b613f2c88828901613a8a565b93509350506040613f3f88828901613b90565b9150509295509295909350565b60008060408385031215613f6357613f62615641565b5b600083013567ffffffffffffffff811115613f8157613f8061563c565b5b613f8d85828601613a06565b925050602083013567ffffffffffffffff811115613fae57613fad61563c565b5b613fba85828601613ae0565b9150509250929050565b60008060008060408587031215613fde57613fdd615641565b5b600085013567ffffffffffffffff811115613ffc57613ffb61563c565b5b61400887828801613a34565b9450945050602085013567ffffffffffffffff81111561402b5761402a61563c565b5b61403787828801613a8a565b925092505092959194509250565b60006020828403121561405b5761405a615641565b5b600061406984828501613b23565b91505092915050565b60006020828403121561408857614087615641565b5b600061409684828501613b38565b91505092915050565b6000602082840312156140b5576140b4615641565b5b60006140c384828501613b90565b91505092915050565b6000602082840312156140e2576140e1615641565b5b60006140f084828501613ba5565b91505092915050565b600080600080600060a0868803121561411557614114615641565b5b600061412388828901613bba565b955050602061413488828901613b7b565b945050604061414588828901613ba5565b935050606061415688828901613ba5565b925050608061416788828901613bba565b9150509295509295909350565b60006020828403121561418a57614189615641565b5b600061419884828501613bcf565b91505092915050565b60006141ad83836147da565b60208301905092915050565b6141c28161537d565b82525050565b60006141d382614ecb565b6141dd8185614ef9565b93506141e883614ea6565b8060005b8381101561421957815161420088826141a1565b975061420b83614eec565b9250506001810190506141ec565b5085935050505092915050565b61422f8161538f565b82525050565b600061424082614ed6565b61424a8185614f0a565b935061425a81856020860161542d565b61426381615646565b840191505092915050565b600061427982614ee1565b6142838185614f26565b935061429381856020860161542d565b61429c81615646565b840191505092915050565b60006142b282614ee1565b6142bc8185614f37565b93506142cc81856020860161542d565b80840191505092915050565b600081546142e581615460565b6142ef8186614f37565b9450600182166000811461430a576001811461431b5761434e565b60ff1983168652818601935061434e565b61432485614eb6565b60005b8381101561434657815481890152600182019150602081019050614327565b838801955050505b50505092915050565b6000614364603483614f26565b915061436f82615671565b604082019050919050565b6000614387602883614f26565b9150614392826156c0565b604082019050919050565b60006143aa602383614f26565b91506143b58261570f565b604082019050919050565b60006143cd601683614f26565b91506143d88261575e565b602082019050919050565b60006143f0602b83614f26565b91506143fb82615787565b604082019050919050565b6000614413602683614f26565b915061441e826157d6565b604082019050919050565b6000614436601a83614f26565b915061444182615825565b602082019050919050565b6000614459600b83614f37565b91506144648261584e565b600b82019050919050565b600061447c601d83614f26565b915061448782615877565b602082019050919050565b600061449f602983614f26565b91506144aa826158a0565b604082019050919050565b60006144c2601383614f26565b91506144cd826158ef565b602082019050919050565b60006144e5602383614f26565b91506144f082615918565b604082019050919050565b6000614508601183614f26565b915061451382615967565b602082019050919050565b600061452b602583614f26565b915061453682615990565b604082019050919050565b600061454e603283614f26565b9150614559826159df565b604082019050919050565b6000614571602d83614f26565b915061457c82615a2e565b604082019050919050565b6000614594600283614f37565b915061459f82615a7d565b600282019050919050565b60006145b7601c83614f26565b91506145c282615aa6565b602082019050919050565b60006145da602a83614f26565b91506145e582615acf565b604082019050919050565b60006145fd601a83614f26565b915061460882615b1e565b602082019050919050565b6000614620602083614f26565b915061462b82615b47565b602082019050919050565b6000614643601083614f37565b915061464e82615b70565b601082019050919050565b6000614666601d83614f37565b915061467182615b99565b601d82019050919050565b6000614689600083614f1b565b915061469482615bc2565b600082019050919050565b60006146ac606683614f37565b91506146b782615bc5565b606682019050919050565b60006146cf600383614f37565b91506146da82615c60565b600382019050919050565b60006146f2600a83614f37565b91506146fd82615c89565b600a82019050919050565b6000614715602983614f26565b915061472082615cb2565b604082019050919050565b6000614738602983614f26565b915061474382615d01565b604082019050919050565b600061475b602883614f26565b915061476682615d50565b604082019050919050565b600061477e602183614f26565b915061478982615d9f565b604082019050919050565b60006147a1601f83614f26565b91506147ac82615dee565b602082019050919050565b60006147c4601b83614f26565b91506147cf82615e17565b602082019050919050565b6147e3816153f1565b82525050565b6147f2816153f1565b82525050565b60006148038261444c565b915061480f82856142d8565b915061481a826146c2565b915061482582614636565b91506148308261469f565b915061483b826146e5565b915061484782846142d8565b915061485282614587565b91508190509392505050565b600061486982614659565b915061487582846142a7565b915081905092915050565b600061488b8261467c565b9150819050919050565b60006020820190506148aa60008301846141b9565b92915050565b600060a0820190506148c560008301886141b9565b6148d260208301876141b9565b81810360408301526148e481866141c8565b905081810360608301526148f881856141c8565b9050818103608083015261490c8184614235565b90509695505050505050565b600060a08201905061492d60008301886141b9565b61493a60208301876141b9565b61494760408301866147e9565b61495460608301856147e9565b81810360808301526149668184614235565b90509695505050505050565b600060408201905061498760008301856141b9565b61499460208301846147e9565b9392505050565b600060208201905081810360008301526149b581846141c8565b905092915050565b600060408201905081810360008301526149d781856141c8565b905081810360208301526149eb81846141c8565b90509392505050565b6000602082019050614a096000830184614226565b92915050565b60006020820190508181036000830152614a29818461426e565b905092915050565b60006020820190508181036000830152614a4a81614357565b9050919050565b60006020820190508181036000830152614a6a8161437a565b9050919050565b60006020820190508181036000830152614a8a8161439d565b9050919050565b60006020820190508181036000830152614aaa816143c0565b9050919050565b60006020820190508181036000830152614aca816143e3565b9050919050565b60006020820190508181036000830152614aea81614406565b9050919050565b60006020820190508181036000830152614b0a81614429565b9050919050565b60006020820190508181036000830152614b2a8161446f565b9050919050565b60006020820190508181036000830152614b4a81614492565b9050919050565b60006020820190508181036000830152614b6a816144b5565b9050919050565b60006020820190508181036000830152614b8a816144d8565b9050919050565b60006020820190508181036000830152614baa816144fb565b9050919050565b60006020820190508181036000830152614bca8161451e565b9050919050565b60006020820190508181036000830152614bea81614541565b9050919050565b60006020820190508181036000830152614c0a81614564565b9050919050565b60006020820190508181036000830152614c2a816145aa565b9050919050565b60006020820190508181036000830152614c4a816145cd565b9050919050565b60006020820190508181036000830152614c6a816145f0565b9050919050565b60006020820190508181036000830152614c8a81614613565b9050919050565b60006020820190508181036000830152614caa81614708565b9050919050565b60006020820190508181036000830152614cca8161472b565b9050919050565b60006020820190508181036000830152614cea8161474e565b9050919050565b60006020820190508181036000830152614d0a81614771565b9050919050565b60006020820190508181036000830152614d2a81614794565b9050919050565b60006020820190508181036000830152614d4a816147b7565b9050919050565b6000602082019050614d6660008301846147e9565b92915050565b6000604082019050614d8160008301856147e9565b614d8e60208301846147e9565b9392505050565b60008083356001602003843603038112614db257614db1615628565b5b80840192508235915067ffffffffffffffff821115614dd457614dd3615623565b5b602083019250600182023603831315614df057614def615632565b5b509250929050565b6000614e02614e13565b9050614e0e8282615492565b919050565b6000604051905090565b600067ffffffffffffffff821115614e3857614e376155c8565b5b602082029050602081019050919050565b600067ffffffffffffffff821115614e6457614e636155c8565b5b602082029050602081019050919050565b600067ffffffffffffffff821115614e9057614e8f6155c8565b5b614e9982615646565b9050602081019050919050565b6000819050602082019050919050565b60008190508160005260206000209050919050565b600081519050919050565b600081519050919050565b600081519050919050565b6000602082019050919050565b600082825260208201905092915050565b600082825260208201905092915050565b600081905092915050565b600082825260208201905092915050565b600081905092915050565b6000614f4d826153f1565b9150614f58836153f1565b9250827fffffffffffffffffffffffffffffffffffffffffffffffffffffffffffffffff03821115614f8d57614f8c61550c565b5b828201905092915050565b6000614fa3826153c7565b9150614fae836153c7565b925082614fbe57614fbd61553b565b5b600160000383147f800000000000000000000000000000000000000000000000000000000000000083141615614ff757614ff661550c565b5b828205905092915050565b600061500d826153f1565b9150615018836153f1565b9250826150285761502761553b565b5b828204905092915050565b6000808291508390505b600185111561507d578086048111156150595761505861550c565b5b60018516156150685780820291505b808102905061507685615657565b945061503d565b94509492505050565b6000615091826153f1565b915061509c836153f1565b92506150c97fffffffffffffffffffffffffffffffffffffffffffffffffffffffffffffffff84846150d1565b905092915050565b6000826150e1576001905061519d565b816150ef576000905061519d565b8160018114615105576002811461510f5761513e565b600191505061519d565b60ff8411156151215761512061550c565b5b8360020a9150848211156151385761513761550c565b5b5061519d565b5060208310610133831016604e8410600b84101617156151735782820a90508381111561516e5761516d61550c565b5b61519d565b6151808484846001615033565b925090508184048111156151975761519661550c565b5b81810290505b9392505050565b60006151af826153c7565b91506151ba836153c7565b9250827f7fffffffffffffffffffffffffffffffffffffffffffffffffffffffffffffff04821160008413600084131616156151f9576151f861550c565b5b817f800000000000000000000000000000000000000000000000000000000000000005831260008412600084131616156152365761523561550c565b5b827f800000000000000000000000000000000000000000000000000000000000000005821260008413600084121616156152735761527261550c565b5b827f7fffffffffffffffffffffffffffffffffffffffffffffffffffffffffffffff05821260008412600084121616156152b0576152af61550c565b5b828202905092915050565b60006152c6826153f1565b91506152d1836153f1565b9250817fffffffffffffffffffffffffffffffffffffffffffffffffffffffffffffffff048311821515161561530a5761530961550c565b5b828202905092915050565b6000615320826153f1565b915061532b836153f1565b92508282101561533e5761533d61550c565b5b828203905092915050565b6000615354826153fb565b915061535f836153fb565b9250828210156153725761537161550c565b5b828203905092915050565b6000615388826153d1565b9050919050565b60008115159050919050565b60007fffffffff0000000000000000000000000000000000000000000000000000000082169050919050565b6000819050919050565b600073ffffffffffffffffffffffffffffffffffffffff82169050919050565b6000819050919050565b600060ff82169050919050565b600069ffffffffffffffffffff82169050919050565b82818337600083830152505050565b60005b8381101561544b578082015181840152602081019050615430565b8381111561545a576000848401525b50505050565b6000600282049050600182168061547857607f821691505b6020821081141561548c5761548b61556a565b5b50919050565b61549b82615646565b810181811067ffffffffffffffff821117156154ba576154b96155c8565b5b80604052505050565b60006154ce826153f1565b91507fffffffffffffffffffffffffffffffffffffffffffffffffffffffffffffffff8214156155015761550061550c565b5b600182019050919050565b7f4e487b7100000000000000000000000000000000000000000000000000000000600052601160045260246000fd5b7f4e487b7100000000000000000000000000000000000000000000000000000000600052601260045260246000fd5b7f4e487b7100000000000000000000000000000000000000000000000000000000600052602260045260246000fd5b7f4e487b7100000000000000000000000000000000000000000000000000000000600052603260045260246000fd5b7f4e487b7100000000000000000000000000000000000000000000000000000000600052604160045260246000fd5b600060033d11156156165760046000803e615613600051615664565b90505b90565b600080fd5b600080fd5b600080fd5b600080fd5b600080fd5b600080fd5b600080fd5b600080fd5b600080fd5b6000601f19601f8301169050919050565b60008160011c9050919050565b60008160e01c9050919050565b7f455243313135353a207472616e7366657220746f206e6f6e204552433131353560008201527f526563656976657220696d706c656d656e746572000000000000000000000000602082015250565b7f455243313135353a204552433131353552656365697665722072656a6563746560008201527f6420746f6b656e73000000000000000000000000000000000000000000000000602082015250565b7f4e6f20617661696c61626c6520476f6c64656e2053746172647573742043617360008201527f6b732e0000000000000000000000000000000000000000000000000000000000602082015250565b7f4172726179206c656e677468206e6f7420657175616c00000000000000000000600082015250565b7f455243313135353a2062616c616e636520717565727920666f7220746865207a60008201527f65726f2061646472657373000000000000000000000000000000000000000000602082015250565b7f4f776e61626c653a206e6577206f776e657220697320746865207a65726f206160008201527f6464726573730000000000000000000000000000000000000000000000000000602082015250565b7f53696c766572204361736b206e656564206d6f7265204554482e000000000000600082015250565b7f7b20226e616d65223a2022000000000000000000000000000000000000000000600082015250565b7f4d6178204e465420706572206164647265737320657863656564656421000000600082015250565b7f455243313135353a2063616c6c6572206973206e6f74206f776e6572206e6f7260008201527f20617070726f7665640000000000000000000000000000000000000000000000602082015250565b7f4e6f206e656564206f776e6572206d696e742100000000000000000000000000600082015250565b7f4e6f20617661696c61626c652053696c7665722053746172647573742043617360008201527f6b732e0000000000000000000000000000000000000000000000000000000000602082015250565b7f496e76616c6964205f646563696d616c73000000000000000000000000000000600082015250565b7f455243313135353a207472616e7366657220746f20746865207a65726f20616460008201527f6472657373000000000000000000000000000000000000000000000000000000602082015250565b7f455243313135353a207472616e736665722063616c6c6572206973206e6f742060008201527f6f776e6572206e6f7220617070726f7665640000000000000000000000000000602082015250565b7f416e74692d636f7272757074696f6e206167656e636965732073746f7070656460008201527f20746865207472616e7366657200000000000000000000000000000000000000602082015250565b7f227d000000000000000000000000000000000000000000000000000000000000600082015250565b7f636f6e747261637420696e697469616c697a656420616c726561647900000000600082015250565b7f455243313135353a20696e73756666696369656e742062616c616e636520666f60008201527f72207472616e7366657200000000000000000000000000000000000000000000602082015250565b7f476f6c64656e204361736b206e656564206d6f7265204554482e000000000000600082015250565b7f4f776e61626c653a2063616c6c6572206973206e6f7420746865206f776e6572600082015250565b7f226465736372697074696f6e22203a2000000000000000000000000000000000600082015250565b7f646174613a6170706c69636174696f6e2f6a736f6e3b6261736536342c000000600082015250565b50565b7f2241205374617264757374204361736b732066726f6d2046656c697a20706c6160008201527f6e65742063616e206368616e676520746f205265616c2045737461746520616e60208201527f6420676574206d6f72652062656e6566697420696e2046656c697a2070726f6a60408201527f6563742e222c0000000000000000000000000000000000000000000000000000606082015250565b7f222c200000000000000000000000000000000000000000000000000000000000600082015250565b7f22696d616765223a202200000000000000000000000000000000000000000000600082015250565b7f455243313135353a2073657474696e6720617070726f76616c2073746174757360008201527f20666f722073656c660000000000000000000000000000000000000000000000602082015250565b7f455243313135353a206163636f756e747320616e6420696473206c656e67746860008201527f206d69736d617463680000000000000000000000000000000000000000000000602082015250565b7f455243313135353a2069647320616e6420616d6f756e7473206c656e6774682060008201527f6d69736d61746368000000000000000000000000000000000000000000000000602082015250565b7f455243313135353a206d696e7420746f20746865207a65726f2061646472657360008201527f7300000000000000000000000000000000000000000000000000000000000000602082015250565b7f5265656e7472616e637947756172643a207265656e7472616e742063616c6c00600082015250565b7f4f776e65722063616e2774206d696e7420746865204361736b73210000000000600082015250565b600060443d1015615e5057615ed3565b615e58614e13565b60043d036004823e80513d602482011167ffffffffffffffff82111715615e80575050615ed3565b808201805167ffffffffffffffff811115615e9e5750505050615ed3565b80602083010160043d038501811115615ebb575050505050615ed3565b615eca82602001850186615492565b82955050505050505b90565b615edf8161537d565b8114615eea57600080fd5b50565b615ef68161538f565b8114615f0157600080fd5b50565b615f0d8161539b565b8114615f1857600080fd5b50565b615f24816153c7565b8114615f2f57600080fd5b50565b615f3b816153f1565b8114615f4657600080fd5b50565b615f52816153fb565b8114615f5d57600080fd5b50565b615f6981615408565b8114615f7457600080fd5b5056fe4142434445464748494a4b4c4d4e4f505152535455565758595a6162636465666768696a6b6c6d6e6f707172737475767778797a303132333435363738392b2fa264697066735822122015d71c0148c030b26a4fb9cbc43dd5b6daaf0a45cf1eefc5c989d58245f422b364736f6c6343000807003368747470733a2f2f676174657761792e70696e6174612e636c6f75642f697066732f516d53724b4c3666685059553642625972563937414a6d33614d366e6147575a4b3935516e7458585a754751724668747470733a2f2f676174657761792e70696e6174612e636c6f75642f697066732f516d52526e75485677686f5945487354787a4d63476472436674684b54533635676e665571445a6b76366b627a61",
			"opcodes": "PUSH1 0x80 PUSH1 0x40 MSTORE PUSH4 0x9502F900 PUSH1 0x5 SSTORE PUSH4 0xD09DC300 PUSH1 0x6 SSTORE PUSH1 0xA PUSH1 0x7 SSTORE PUSH20 0x8A753747A1FA494EC906CE90E9F37563A8AF630E PUSH1 0x8 PUSH1 0x0 PUSH2 0x100 EXP DUP2 SLOAD DUP2 PUSH20 0xFFFFFFFFFFFFFFFFFFFFFFFFFFFFFFFFFFFFFFFF MUL NOT AND SWAP1 DUP4 PUSH20 0xFFFFFFFFFFFFFFFFFFFFFFFFFFFFFFFFFFFFFFFF AND MUL OR SWAP1 SSTORE POP PUSH20 0x6C67BA02DD5CC63BDA9E38C40C06A8D0E7DF62CB PUSH1 0x9 PUSH1 0x0 PUSH2 0x100 EXP DUP2 SLOAD DUP2 PUSH20 0xFFFFFFFFFFFFFFFFFFFFFFFFFFFFFFFFFFFFFFFF MUL NOT AND SWAP1 DUP4 PUSH20 0xFFFFFFFFFFFFFFFFFFFFFFFFFFFFFFFFFFFFFFFF AND MUL OR SWAP1 SSTORE POP PUSH1 0x0 PUSH1 0xA SSTORE PUSH1 0x0 PUSH1 0xB SSTORE PUSH1 0x0 PUSH1 0xC SSTORE CALLVALUE DUP1 ISZERO PUSH3 0xDF JUMPI PUSH1 0x0 DUP1 REVERT JUMPDEST POP PUSH1 0x40 MLOAD DUP1 PUSH1 0x20 ADD PUSH1 0x40 MSTORE DUP1 PUSH1 0x0 DUP2 MSTORE POP PUSH3 0x101 DUP2 PUSH3 0x33F PUSH1 0x20 SHL PUSH1 0x20 SHR JUMP JUMPDEST POP PUSH3 0x122 PUSH3 0x116 PUSH3 0x35B PUSH1 0x20 SHL PUSH1 0x20 SHR JUMP JUMPDEST PUSH3 0x363 PUSH1 0x20 SHL PUSH1 0x20 SHR JUMP JUMPDEST PUSH1 0x1 PUSH1 0x4 DUP2 SWAP1 SSTORE POP PUSH1 0x40 MLOAD DUP1 PUSH1 0x80 ADD PUSH1 0x40 MSTORE DUP1 PUSH1 0x50 DUP2 MSTORE PUSH1 0x20 ADD PUSH3 0x658B PUSH1 0x50 SWAP2 CODECOPY PUSH1 0xD PUSH1 0x0 PUSH1 0x8 DUP2 MSTORE PUSH1 0x20 ADD SWAP1 DUP2 MSTORE PUSH1 0x20 ADD PUSH1 0x0 KECCAK256 SWAP1 DUP1 MLOAD SWAP1 PUSH1 0x20 ADD SWAP1 PUSH3 0x16D SWAP3 SWAP2 SWAP1 PUSH3 0x429 JUMP JUMPDEST POP PUSH1 0x40 MLOAD DUP1 PUSH1 0x80 ADD PUSH1 0x40 MSTORE DUP1 PUSH1 0x50 DUP2 MSTORE PUSH1 0x20 ADD PUSH3 0x658B PUSH1 0x50 SWAP2 CODECOPY PUSH1 0xD PUSH1 0x0 PUSH1 0x44 DUP2 MSTORE PUSH1 0x20 ADD SWAP1 DUP2 MSTORE PUSH1 0x20 ADD PUSH1 0x0 KECCAK256 SWAP1 DUP1 MLOAD SWAP1 PUSH1 0x20 ADD SWAP1 PUSH3 0x1B1 SWAP3 SWAP2 SWAP1 PUSH3 0x429 JUMP JUMPDEST POP PUSH1 0x40 MLOAD DUP1 PUSH1 0x80 ADD PUSH1 0x40 MSTORE DUP1 PUSH1 0x50 DUP2 MSTORE PUSH1 0x20 ADD PUSH3 0x653B PUSH1 0x50 SWAP2 CODECOPY PUSH1 0xD PUSH1 0x0 PUSH1 0xA8 DUP2 MSTORE PUSH1 0x20 ADD SWAP1 DUP2 MSTORE PUSH1 0x20 ADD PUSH1 0x0 KECCAK256 SWAP1 DUP1 MLOAD SWAP1 PUSH1 0x20 ADD SWAP1 PUSH3 0x1F5 SWAP3 SWAP2 SWAP1 PUSH3 0x429 JUMP JUMPDEST POP PUSH1 0x40 MLOAD DUP1 PUSH1 0x40 ADD PUSH1 0x40 MSTORE DUP1 PUSH1 0x14 DUP2 MSTORE PUSH1 0x20 ADD PUSH32 0x42726F6E7A65205374617264757374204361736B000000000000000000000000 DUP2 MSTORE POP PUSH1 0xE PUSH1 0x0 PUSH1 0x8 DUP2 MSTORE PUSH1 0x20 ADD SWAP1 DUP2 MSTORE PUSH1 0x20 ADD PUSH1 0x0 KECCAK256 SWAP1 DUP1 MLOAD SWAP1 PUSH1 0x20 ADD SWAP1 PUSH3 0x255 SWAP3 SWAP2 SWAP1 PUSH3 0x429 JUMP JUMPDEST POP PUSH1 0x40 MLOAD DUP1 PUSH1 0x40 ADD PUSH1 0x40 MSTORE DUP1 PUSH1 0x14 DUP2 MSTORE PUSH1 0x20 ADD PUSH32 0x53696C766572205374617264757374204361736B000000000000000000000000 DUP2 MSTORE POP PUSH1 0xE PUSH1 0x0 PUSH1 0x44 DUP2 MSTORE PUSH1 0x20 ADD SWAP1 DUP2 MSTORE PUSH1 0x20 ADD PUSH1 0x0 KECCAK256 SWAP1 DUP1 MLOAD SWAP1 PUSH1 0x20 ADD SWAP1 PUSH3 0x2B5 SWAP3 SWAP2 SWAP1 PUSH3 0x429 JUMP JUMPDEST POP PUSH1 0x40 MLOAD DUP1 PUSH1 0x40 ADD PUSH1 0x40 MSTORE DUP1 PUSH1 0x14 DUP2 MSTORE PUSH1 0x20 ADD PUSH32 0x476F6C64656E205374617264757374204361736B000000000000000000000000 DUP2 MSTORE POP PUSH1 0xE PUSH1 0x0 PUSH1 0xA8 DUP2 MSTORE PUSH1 0x20 ADD SWAP1 DUP2 MSTORE PUSH1 0x20 ADD PUSH1 0x0 KECCAK256 SWAP1 DUP1 MLOAD SWAP1 PUSH1 0x20 ADD SWAP1 PUSH3 0x315 SWAP3 SWAP2 SWAP1 PUSH3 0x429 JUMP JUMPDEST POP PUSH1 0x0 PUSH1 0xF PUSH1 0x0 PUSH2 0x100 EXP DUP2 SLOAD DUP2 PUSH1 0xFF MUL NOT AND SWAP1 DUP4 ISZERO ISZERO MUL OR SWAP1 SSTORE POP PUSH1 0x0 PUSH1 0x10 DUP2 SWAP1 SSTORE POP PUSH3 0x53E JUMP JUMPDEST DUP1 PUSH1 0x2 SWAP1 DUP1 MLOAD SWAP1 PUSH1 0x20 ADD SWAP1 PUSH3 0x357 SWAP3 SWAP2 SWAP1 PUSH3 0x429 JUMP JUMPDEST POP POP JUMP JUMPDEST PUSH1 0x0 CALLER SWAP1 POP SWAP1 JUMP JUMPDEST PUSH1 0x0 PUSH1 0x3 PUSH1 0x0 SWAP1 SLOAD SWAP1 PUSH2 0x100 EXP SWAP1 DIV PUSH20 0xFFFFFFFFFFFFFFFFFFFFFFFFFFFFFFFFFFFFFFFF AND SWAP1 POP DUP2 PUSH1 0x3 PUSH1 0x0 PUSH2 0x100 EXP DUP2 SLOAD DUP2 PUSH20 0xFFFFFFFFFFFFFFFFFFFFFFFFFFFFFFFFFFFFFFFF MUL NOT AND SWAP1 DUP4 PUSH20 0xFFFFFFFFFFFFFFFFFFFFFFFFFFFFFFFFFFFFFFFF AND MUL OR SWAP1 SSTORE POP DUP2 PUSH20 0xFFFFFFFFFFFFFFFFFFFFFFFFFFFFFFFFFFFFFFFF AND DUP2 PUSH20 0xFFFFFFFFFFFFFFFFFFFFFFFFFFFFFFFFFFFFFFFF AND PUSH32 0x8BE0079C531659141344CD1FD0A4F28419497F9722A3DAAFE3B4186F6B6457E0 PUSH1 0x40 MLOAD PUSH1 0x40 MLOAD DUP1 SWAP2 SUB SWAP1 LOG3 POP POP JUMP JUMPDEST DUP3 DUP1 SLOAD PUSH3 0x437 SWAP1 PUSH3 0x4D9 JUMP JUMPDEST SWAP1 PUSH1 0x0 MSTORE PUSH1 0x20 PUSH1 0x0 KECCAK256 SWAP1 PUSH1 0x1F ADD PUSH1 0x20 SWAP1 DIV DUP2 ADD SWAP3 DUP3 PUSH3 0x45B JUMPI PUSH1 0x0 DUP6 SSTORE PUSH3 0x4A7 JUMP JUMPDEST DUP3 PUSH1 0x1F LT PUSH3 0x476 JUMPI DUP1 MLOAD PUSH1 0xFF NOT AND DUP4 DUP1 ADD OR DUP6 SSTORE PUSH3 0x4A7 JUMP JUMPDEST DUP3 DUP1 ADD PUSH1 0x1 ADD DUP6 SSTORE DUP3 ISZERO PUSH3 0x4A7 JUMPI SWAP2 DUP3 ADD JUMPDEST DUP3 DUP2 GT ISZERO PUSH3 0x4A6 JUMPI DUP3 MLOAD DUP3 SSTORE SWAP2 PUSH1 0x20 ADD SWAP2 SWAP1 PUSH1 0x1 ADD SWAP1 PUSH3 0x489 JUMP JUMPDEST JUMPDEST POP SWAP1 POP PUSH3 0x4B6 SWAP2 SWAP1 PUSH3 0x4BA JUMP JUMPDEST POP SWAP1 JUMP JUMPDEST JUMPDEST DUP1 DUP3 GT ISZERO PUSH3 0x4D5 JUMPI PUSH1 0x0 DUP2 PUSH1 0x0 SWAP1 SSTORE POP PUSH1 0x1 ADD PUSH3 0x4BB JUMP JUMPDEST POP SWAP1 JUMP JUMPDEST PUSH1 0x0 PUSH1 0x2 DUP3 DIV SWAP1 POP PUSH1 0x1 DUP3 AND DUP1 PUSH3 0x4F2 JUMPI PUSH1 0x7F DUP3 AND SWAP2 POP JUMPDEST PUSH1 0x20 DUP3 LT DUP2 EQ ISZERO PUSH3 0x509 JUMPI PUSH3 0x508 PUSH3 0x50F JUMP JUMPDEST JUMPDEST POP SWAP2 SWAP1 POP JUMP JUMPDEST PUSH32 0x4E487B7100000000000000000000000000000000000000000000000000000000 PUSH1 0x0 MSTORE PUSH1 0x22 PUSH1 0x4 MSTORE PUSH1 0x24 PUSH1 0x0 REVERT JUMPDEST PUSH2 0x5FED DUP1 PUSH3 0x54E PUSH1 0x0 CODECOPY PUSH1 0x0 RETURN INVALID PUSH1 0x80 PUSH1 0x40 MSTORE PUSH1 0x4 CALLDATASIZE LT PUSH2 0x1FC JUMPI PUSH1 0x0 CALLDATALOAD PUSH1 0xE0 SHR DUP1 PUSH4 0x82FE246F GT PUSH2 0x10D JUMPI DUP1 PUSH4 0xA3885EBE GT PUSH2 0xA0 JUMPI DUP1 PUSH4 0xE985E9C5 GT PUSH2 0x6F JUMPI DUP1 PUSH4 0xE985E9C5 EQ PUSH2 0x72A JUMPI DUP1 PUSH4 0xF15FBE86 EQ PUSH2 0x767 JUMPI DUP1 PUSH4 0xF242432A EQ PUSH2 0x792 JUMPI DUP1 PUSH4 0xF2FDE38B EQ PUSH2 0x7BB JUMPI DUP1 PUSH4 0xF4D82507 EQ PUSH2 0x7E4 JUMPI PUSH2 0x23A JUMP JUMPDEST DUP1 PUSH4 0xA3885EBE EQ PUSH2 0x68D JUMPI DUP1 PUSH4 0xAD811DA0 EQ PUSH2 0x6A9 JUMPI DUP1 PUSH4 0xBB48B5AB EQ PUSH2 0x6D4 JUMPI DUP1 PUSH4 0xC6976028 EQ PUSH2 0x6FF JUMPI PUSH2 0x23A JUMP JUMPDEST DUP1 PUSH4 0x9716016C GT PUSH2 0xDC JUMPI DUP1 PUSH4 0x9716016C EQ PUSH2 0x5E9 JUMPI DUP1 PUSH4 0x9B0DA5D5 EQ PUSH2 0x612 JUMPI DUP1 PUSH4 0x9BD8B2E4 EQ PUSH2 0x63B JUMPI DUP1 PUSH4 0xA22CB465 EQ PUSH2 0x664 JUMPI PUSH2 0x23A JUMP JUMPDEST DUP1 PUSH4 0x82FE246F EQ PUSH2 0x54E JUMPI DUP1 PUSH4 0x838663A4 EQ PUSH2 0x56A JUMPI DUP1 PUSH4 0x8DA5CB5B EQ PUSH2 0x595 JUMPI DUP1 PUSH4 0x96085DA3 EQ PUSH2 0x5C0 JUMPI PUSH2 0x23A JUMP JUMPDEST DUP1 PUSH4 0x45548224 GT PUSH2 0x190 JUMPI DUP1 PUSH4 0x5907E7E6 GT PUSH2 0x15F JUMPI DUP1 PUSH4 0x5907E7E6 EQ PUSH2 0x493 JUMPI DUP1 PUSH4 0x715018A6 EQ PUSH2 0x4BC JUMPI DUP1 PUSH4 0x72F2E20D EQ PUSH2 0x4D3 JUMPI DUP1 PUSH4 0x74B005D6 EQ PUSH2 0x4FC JUMPI DUP1 PUSH4 0x78F0107B EQ PUSH2 0x525 JUMPI PUSH2 0x23A JUMP JUMPDEST DUP1 PUSH4 0x45548224 EQ PUSH2 0x3E9 JUMPI DUP1 PUSH4 0x4C0AAC9A EQ PUSH2 0x414 JUMPI DUP1 PUSH4 0x4D8F9B63 EQ PUSH2 0x42B JUMPI DUP1 PUSH4 0x4E1273F4 EQ PUSH2 0x456 JUMPI PUSH2 0x23A JUMP JUMPDEST DUP1 PUSH4 0x227545C7 GT PUSH2 0x1CC JUMPI DUP1 PUSH4 0x227545C7 EQ PUSH2 0x355 JUMPI DUP1 PUSH4 0x2D3D5A44 EQ PUSH2 0x36C JUMPI DUP1 PUSH4 0x2EB2C2D6 EQ PUSH2 0x395 JUMPI DUP1 PUSH4 0x3BCA9C00 EQ PUSH2 0x3BE JUMPI PUSH2 0x23A JUMP JUMPDEST DUP1 PUSH3 0xFDD58E EQ PUSH2 0x273 JUMPI DUP1 PUSH4 0x1FFC9A7 EQ PUSH2 0x2B0 JUMPI DUP1 PUSH4 0xE89341C EQ PUSH2 0x2ED JUMPI DUP1 PUSH4 0x1F8ED964 EQ PUSH2 0x32A JUMPI PUSH2 0x23A JUMP JUMPDEST CALLDATASIZE PUSH2 0x23A JUMPI PUSH32 0xFD132ABA343C58980093CA9E470909842E0F7DF051D3C44BC01500EE0C18AE30 CALLER PUSH1 0x40 MLOAD PUSH2 0x230 SWAP2 SWAP1 PUSH2 0x4895 JUMP JUMPDEST PUSH1 0x40 MLOAD DUP1 SWAP2 SUB SWAP1 LOG1 STOP JUMPDEST PUSH32 0xFD132ABA343C58980093CA9E470909842E0F7DF051D3C44BC01500EE0C18AE30 CALLER PUSH1 0x40 MLOAD PUSH2 0x269 SWAP2 SWAP1 PUSH2 0x4895 JUMP JUMPDEST PUSH1 0x40 MLOAD DUP1 SWAP2 SUB SWAP1 LOG1 STOP JUMPDEST CALLVALUE DUP1 ISZERO PUSH2 0x27F JUMPI PUSH1 0x0 DUP1 REVERT JUMPDEST POP PUSH2 0x29A PUSH1 0x4 DUP1 CALLDATASIZE SUB DUP2 ADD SWAP1 PUSH2 0x295 SWAP2 SWAP1 PUSH2 0x3E24 JUMP JUMPDEST PUSH2 0x80F JUMP JUMPDEST PUSH1 0x40 MLOAD PUSH2 0x2A7 SWAP2 SWAP1 PUSH2 0x4D51 JUMP JUMPDEST PUSH1 0x40 MLOAD DUP1 SWAP2 SUB SWAP1 RETURN JUMPDEST CALLVALUE DUP1 ISZERO PUSH2 0x2BC JUMPI PUSH1 0x0 DUP1 REVERT JUMPDEST POP PUSH2 0x2D7 PUSH1 0x4 DUP1 CALLDATASIZE SUB DUP2 ADD SWAP1 PUSH2 0x2D2 SWAP2 SWAP1 PUSH2 0x4045 JUMP JUMPDEST PUSH2 0x8D8 JUMP JUMPDEST PUSH1 0x40 MLOAD PUSH2 0x2E4 SWAP2 SWAP1 PUSH2 0x49F4 JUMP JUMPDEST PUSH1 0x40 MLOAD DUP1 SWAP2 SUB SWAP1 RETURN JUMPDEST CALLVALUE DUP1 ISZERO PUSH2 0x2F9 JUMPI PUSH1 0x0 DUP1 REVERT JUMPDEST POP PUSH2 0x314 PUSH1 0x4 DUP1 CALLDATASIZE SUB DUP2 ADD SWAP1 PUSH2 0x30F SWAP2 SWAP1 PUSH2 0x409F JUMP JUMPDEST PUSH2 0x9BA JUMP JUMPDEST PUSH1 0x40 MLOAD PUSH2 0x321 SWAP2 SWAP1 PUSH2 0x4A0F JUMP JUMPDEST PUSH1 0x40 MLOAD DUP1 SWAP2 SUB SWAP1 RETURN JUMPDEST CALLVALUE DUP1 ISZERO PUSH2 0x336 JUMPI PUSH1 0x0 DUP1 REVERT JUMPDEST POP PUSH2 0x33F PUSH2 0xA36 JUMP JUMPDEST PUSH1 0x40 MLOAD PUSH2 0x34C SWAP2 SWAP1 PUSH2 0x4D51 JUMP JUMPDEST PUSH1 0x40 MLOAD DUP1 SWAP2 SUB SWAP1 RETURN JUMPDEST CALLVALUE DUP1 ISZERO PUSH2 0x361 JUMPI PUSH1 0x0 DUP1 REVERT JUMPDEST POP PUSH2 0x36A PUSH2 0xA40 JUMP JUMPDEST STOP JUMPDEST CALLVALUE DUP1 ISZERO PUSH2 0x378 JUMPI PUSH1 0x0 DUP1 REVERT JUMPDEST POP PUSH2 0x393 PUSH1 0x4 DUP1 CALLDATASIZE SUB DUP2 ADD SWAP1 PUSH2 0x38E SWAP2 SWAP1 PUSH2 0x409F JUMP JUMPDEST PUSH2 0xB56 JUMP JUMPDEST STOP JUMPDEST CALLVALUE DUP1 ISZERO PUSH2 0x3A1 JUMPI PUSH1 0x0 DUP1 REVERT JUMPDEST POP PUSH2 0x3BC PUSH1 0x4 DUP1 CALLDATASIZE SUB DUP2 ADD SWAP1 PUSH2 0x3B7 SWAP2 SWAP1 PUSH2 0x3C7E JUMP JUMPDEST PUSH2 0xBDC JUMP JUMPDEST STOP JUMPDEST CALLVALUE DUP1 ISZERO PUSH2 0x3CA JUMPI PUSH1 0x0 DUP1 REVERT JUMPDEST POP PUSH2 0x3D3 PUSH2 0xC7D JUMP JUMPDEST PUSH1 0x40 MLOAD PUSH2 0x3E0 SWAP2 SWAP1 PUSH2 0x4D51 JUMP JUMPDEST PUSH1 0x40 MLOAD DUP1 SWAP2 SUB SWAP1 RETURN JUMPDEST CALLVALUE DUP1 ISZERO PUSH2 0x3F5 JUMPI PUSH1 0x0 DUP1 REVERT JUMPDEST POP PUSH2 0x3FE PUSH2 0xC87 JUMP JUMPDEST PUSH1 0x40 MLOAD PUSH2 0x40B SWAP2 SWAP1 PUSH2 0x4D51 JUMP JUMPDEST PUSH1 0x40 MLOAD DUP1 SWAP2 SUB SWAP1 RETURN JUMPDEST CALLVALUE DUP1 ISZERO PUSH2 0x420 JUMPI PUSH1 0x0 DUP1 REVERT JUMPDEST POP PUSH2 0x429 PUSH2 0xCA3 JUMP JUMPDEST STOP JUMPDEST CALLVALUE DUP1 ISZERO PUSH2 0x437 JUMPI PUSH1 0x0 DUP1 REVERT JUMPDEST POP PUSH2 0x440 PUSH2 0xDDB JUMP JUMPDEST PUSH1 0x40 MLOAD PUSH2 0x44D SWAP2 SWAP1 PUSH2 0x4895 JUMP JUMPDEST PUSH1 0x40 MLOAD DUP1 SWAP2 SUB SWAP1 RETURN JUMPDEST CALLVALUE DUP1 ISZERO PUSH2 0x462 JUMPI PUSH1 0x0 DUP1 REVERT JUMPDEST POP PUSH2 0x47D PUSH1 0x4 DUP1 CALLDATASIZE SUB DUP2 ADD SWAP1 PUSH2 0x478 SWAP2 SWAP1 PUSH2 0x3F4C JUMP JUMPDEST PUSH2 0xE01 JUMP JUMPDEST PUSH1 0x40 MLOAD PUSH2 0x48A SWAP2 SWAP1 PUSH2 0x499B JUMP JUMPDEST PUSH1 0x40 MLOAD DUP1 SWAP2 SUB SWAP1 RETURN JUMPDEST CALLVALUE DUP1 ISZERO PUSH2 0x49F JUMPI PUSH1 0x0 DUP1 REVERT JUMPDEST POP PUSH2 0x4BA PUSH1 0x4 DUP1 CALLDATASIZE SUB DUP2 ADD SWAP1 PUSH2 0x4B5 SWAP2 SWAP1 PUSH2 0x3E64 JUMP JUMPDEST PUSH2 0xF1A JUMP JUMPDEST STOP JUMPDEST CALLVALUE DUP1 ISZERO PUSH2 0x4C8 JUMPI PUSH1 0x0 DUP1 REVERT JUMPDEST POP PUSH2 0x4D1 PUSH2 0x10A8 JUMP JUMPDEST STOP JUMPDEST CALLVALUE DUP1 ISZERO PUSH2 0x4DF JUMPI PUSH1 0x0 DUP1 REVERT JUMPDEST POP PUSH2 0x4FA PUSH1 0x4 DUP1 CALLDATASIZE SUB DUP2 ADD SWAP1 PUSH2 0x4F5 SWAP2 SWAP1 PUSH2 0x409F JUMP JUMPDEST PUSH2 0x1130 JUMP JUMPDEST STOP JUMPDEST CALLVALUE DUP1 ISZERO PUSH2 0x508 JUMPI PUSH1 0x0 DUP1 REVERT JUMPDEST POP PUSH2 0x523 PUSH1 0x4 DUP1 CALLDATASIZE SUB DUP2 ADD SWAP1 PUSH2 0x51E SWAP2 SWAP1 PUSH2 0x3FC4 JUMP JUMPDEST PUSH2 0x11B6 JUMP JUMPDEST STOP JUMPDEST CALLVALUE DUP1 ISZERO PUSH2 0x531 JUMPI PUSH1 0x0 DUP1 REVERT JUMPDEST POP PUSH2 0x54C PUSH1 0x4 DUP1 CALLDATASIZE SUB DUP2 ADD SWAP1 PUSH2 0x547 SWAP2 SWAP1 PUSH2 0x3EB7 JUMP JUMPDEST PUSH2 0x12B9 JUMP JUMPDEST STOP JUMPDEST PUSH2 0x568 PUSH1 0x4 DUP1 CALLDATASIZE SUB DUP2 ADD SWAP1 PUSH2 0x563 SWAP2 SWAP1 PUSH2 0x409F JUMP JUMPDEST PUSH2 0x1549 JUMP JUMPDEST STOP JUMPDEST CALLVALUE DUP1 ISZERO PUSH2 0x576 JUMPI PUSH1 0x0 DUP1 REVERT JUMPDEST POP PUSH2 0x57F PUSH2 0x19D6 JUMP JUMPDEST PUSH1 0x40 MLOAD PUSH2 0x58C SWAP2 SWAP1 PUSH2 0x4D51 JUMP JUMPDEST PUSH1 0x40 MLOAD DUP1 SWAP2 SUB SWAP1 RETURN JUMPDEST CALLVALUE DUP1 ISZERO PUSH2 0x5A1 JUMPI PUSH1 0x0 DUP1 REVERT JUMPDEST POP PUSH2 0x5AA PUSH2 0x19E0 JUMP JUMPDEST PUSH1 0x40 MLOAD PUSH2 0x5B7 SWAP2 SWAP1 PUSH2 0x4895 JUMP JUMPDEST PUSH1 0x40 MLOAD DUP1 SWAP2 SUB SWAP1 RETURN JUMPDEST CALLVALUE DUP1 ISZERO PUSH2 0x5CC JUMPI PUSH1 0x0 DUP1 REVERT JUMPDEST POP PUSH2 0x5E7 PUSH1 0x4 DUP1 CALLDATASIZE SUB DUP2 ADD SWAP1 PUSH2 0x5E2 SWAP2 SWAP1 PUSH2 0x3BE4 JUMP JUMPDEST PUSH2 0x1A0A JUMP JUMPDEST STOP JUMPDEST CALLVALUE DUP1 ISZERO PUSH2 0x5F5 JUMPI PUSH1 0x0 DUP1 REVERT JUMPDEST POP PUSH2 0x610 PUSH1 0x4 DUP1 CALLDATASIZE SUB DUP2 ADD SWAP1 PUSH2 0x60B SWAP2 SWAP1 PUSH2 0x409F JUMP JUMPDEST PUSH2 0x1ACA JUMP JUMPDEST STOP JUMPDEST CALLVALUE DUP1 ISZERO PUSH2 0x61E JUMPI PUSH1 0x0 DUP1 REVERT JUMPDEST POP PUSH2 0x639 PUSH1 0x4 DUP1 CALLDATASIZE SUB DUP2 ADD SWAP1 PUSH2 0x634 SWAP2 SWAP1 PUSH2 0x3BE4 JUMP JUMPDEST PUSH2 0x1B50 JUMP JUMPDEST STOP JUMPDEST CALLVALUE DUP1 ISZERO PUSH2 0x647 JUMPI PUSH1 0x0 DUP1 REVERT JUMPDEST POP PUSH2 0x662 PUSH1 0x4 DUP1 CALLDATASIZE SUB DUP2 ADD SWAP1 PUSH2 0x65D SWAP2 SWAP1 PUSH2 0x409F JUMP JUMPDEST PUSH2 0x1C10 JUMP JUMPDEST STOP JUMPDEST CALLVALUE DUP1 ISZERO PUSH2 0x670 JUMPI PUSH1 0x0 DUP1 REVERT JUMPDEST POP PUSH2 0x68B PUSH1 0x4 DUP1 CALLDATASIZE SUB DUP2 ADD SWAP1 PUSH2 0x686 SWAP2 SWAP1 PUSH2 0x3DE4 JUMP JUMPDEST PUSH2 0x1C96 JUMP JUMPDEST STOP JUMPDEST PUSH2 0x6A7 PUSH1 0x4 DUP1 CALLDATASIZE SUB DUP2 ADD SWAP1 PUSH2 0x6A2 SWAP2 SWAP1 PUSH2 0x409F JUMP JUMPDEST PUSH2 0x1CAC JUMP JUMPDEST STOP JUMPDEST CALLVALUE DUP1 ISZERO PUSH2 0x6B5 JUMPI PUSH1 0x0 DUP1 REVERT JUMPDEST POP PUSH2 0x6BE PUSH2 0x2139 JUMP JUMPDEST PUSH1 0x40 MLOAD PUSH2 0x6CB SWAP2 SWAP1 PUSH2 0x4D51 JUMP JUMPDEST PUSH1 0x40 MLOAD DUP1 SWAP2 SUB SWAP1 RETURN JUMPDEST CALLVALUE DUP1 ISZERO PUSH2 0x6E0 JUMPI PUSH1 0x0 DUP1 REVERT JUMPDEST POP PUSH2 0x6E9 PUSH2 0x2143 JUMP JUMPDEST PUSH1 0x40 MLOAD PUSH2 0x6F6 SWAP2 SWAP1 PUSH2 0x4D51 JUMP JUMPDEST PUSH1 0x40 MLOAD DUP1 SWAP2 SUB SWAP1 RETURN JUMPDEST CALLVALUE DUP1 ISZERO PUSH2 0x70B JUMPI PUSH1 0x0 DUP1 REVERT JUMPDEST POP PUSH2 0x714 PUSH2 0x214D JUMP JUMPDEST PUSH1 0x40 MLOAD PUSH2 0x721 SWAP2 SWAP1 PUSH2 0x4D51 JUMP JUMPDEST PUSH1 0x40 MLOAD DUP1 SWAP2 SUB SWAP1 RETURN JUMPDEST CALLVALUE DUP1 ISZERO PUSH2 0x736 JUMPI PUSH1 0x0 DUP1 REVERT JUMPDEST POP PUSH2 0x751 PUSH1 0x4 DUP1 CALLDATASIZE SUB DUP2 ADD SWAP1 PUSH2 0x74C SWAP2 SWAP1 PUSH2 0x3C3E JUMP JUMPDEST PUSH2 0x2157 JUMP JUMPDEST PUSH1 0x40 MLOAD PUSH2 0x75E SWAP2 SWAP1 PUSH2 0x49F4 JUMP JUMPDEST PUSH1 0x40 MLOAD DUP1 SWAP2 SUB SWAP1 RETURN JUMPDEST CALLVALUE DUP1 ISZERO PUSH2 0x773 JUMPI PUSH1 0x0 DUP1 REVERT JUMPDEST POP PUSH2 0x77C PUSH2 0x21EB JUMP JUMPDEST PUSH1 0x40 MLOAD PUSH2 0x789 SWAP2 SWAP1 PUSH2 0x4D51 JUMP JUMPDEST PUSH1 0x40 MLOAD DUP1 SWAP2 SUB SWAP1 RETURN JUMPDEST CALLVALUE DUP1 ISZERO PUSH2 0x79E JUMPI PUSH1 0x0 DUP1 REVERT JUMPDEST POP PUSH2 0x7B9 PUSH1 0x4 DUP1 CALLDATASIZE SUB DUP2 ADD SWAP1 PUSH2 0x7B4 SWAP2 SWAP1 PUSH2 0x3D4D JUMP JUMPDEST PUSH2 0x2207 JUMP JUMPDEST STOP JUMPDEST CALLVALUE DUP1 ISZERO PUSH2 0x7C7 JUMPI PUSH1 0x0 DUP1 REVERT JUMPDEST POP PUSH2 0x7E2 PUSH1 0x4 DUP1 CALLDATASIZE SUB DUP2 ADD SWAP1 PUSH2 0x7DD SWAP2 SWAP1 PUSH2 0x3BE4 JUMP JUMPDEST PUSH2 0x22A8 JUMP JUMPDEST STOP JUMPDEST CALLVALUE DUP1 ISZERO PUSH2 0x7F0 JUMPI PUSH1 0x0 DUP1 REVERT JUMPDEST POP PUSH2 0x7F9 PUSH2 0x23A0 JUMP JUMPDEST PUSH1 0x40 MLOAD PUSH2 0x806 SWAP2 SWAP1 PUSH2 0x4D51 JUMP JUMPDEST PUSH1 0x40 MLOAD DUP1 SWAP2 SUB SWAP1 RETURN JUMPDEST PUSH1 0x0 DUP1 PUSH20 0xFFFFFFFFFFFFFFFFFFFFFFFFFFFFFFFFFFFFFFFF AND DUP4 PUSH20 0xFFFFFFFFFFFFFFFFFFFFFFFFFFFFFFFFFFFFFFFF AND EQ ISZERO PUSH2 0x880 JUMPI PUSH1 0x40 MLOAD PUSH32 0x8C379A000000000000000000000000000000000000000000000000000000000 DUP2 MSTORE PUSH1 0x4 ADD PUSH2 0x877 SWAP1 PUSH2 0x4AB1 JUMP JUMPDEST PUSH1 0x40 MLOAD DUP1 SWAP2 SUB SWAP1 REVERT JUMPDEST PUSH1 0x0 DUP1 DUP4 DUP2 MSTORE PUSH1 0x20 ADD SWAP1 DUP2 MSTORE PUSH1 0x20 ADD PUSH1 0x0 KECCAK256 PUSH1 0x0 DUP5 PUSH20 0xFFFFFFFFFFFFFFFFFFFFFFFFFFFFFFFFFFFFFFFF AND PUSH20 0xFFFFFFFFFFFFFFFFFFFFFFFFFFFFFFFFFFFFFFFF AND DUP2 MSTORE PUSH1 0x20 ADD SWAP1 DUP2 MSTORE PUSH1 0x20 ADD PUSH1 0x0 KECCAK256 SLOAD SWAP1 POP SWAP3 SWAP2 POP POP JUMP JUMPDEST PUSH1 0x0 PUSH32 0xD9B67A2600000000000000000000000000000000000000000000000000000000 PUSH28 0xFFFFFFFFFFFFFFFFFFFFFFFFFFFFFFFFFFFFFFFFFFFFFFFFFFFFFFFF NOT AND DUP3 PUSH28 0xFFFFFFFFFFFFFFFFFFFFFFFFFFFFFFFFFFFFFFFFFFFFFFFFFFFFFFFF NOT AND EQ DUP1 PUSH2 0x9A3 JUMPI POP PUSH32 0xE89341C00000000000000000000000000000000000000000000000000000000 PUSH28 0xFFFFFFFFFFFFFFFFFFFFFFFFFFFFFFFFFFFFFFFFFFFFFFFFFFFFFFFF NOT AND DUP3 PUSH28 0xFFFFFFFFFFFFFFFFFFFFFFFFFFFFFFFFFFFFFFFFFFFFFFFFFFFFFFFF NOT AND EQ JUMPDEST DUP1 PUSH2 0x9B3 JUMPI POP PUSH2 0x9B2 DUP3 PUSH2 0x23A6 JUMP JUMPDEST JUMPDEST SWAP1 POP SWAP2 SWAP1 POP JUMP JUMPDEST PUSH1 0x60 PUSH1 0x0 PUSH2 0xA0C PUSH1 0xE PUSH1 0x0 DUP6 DUP2 MSTORE PUSH1 0x20 ADD SWAP1 DUP2 MSTORE PUSH1 0x20 ADD PUSH1 0x0 KECCAK256 PUSH1 0xD PUSH1 0x0 DUP7 DUP2 MSTORE PUSH1 0x20 ADD SWAP1 DUP2 MSTORE PUSH1 0x20 ADD PUSH1 0x0 KECCAK256 PUSH1 0x40 MLOAD PUSH1 0x20 ADD PUSH2 0x9F8 SWAP3 SWAP2 SWAP1 PUSH2 0x47F8 JUMP JUMPDEST PUSH1 0x40 MLOAD PUSH1 0x20 DUP2 DUP4 SUB SUB DUP2 MSTORE SWAP1 PUSH1 0x40 MSTORE PUSH2 0x2410 JUMP JUMPDEST SWAP1 POP DUP1 PUSH1 0x40 MLOAD PUSH1 0x20 ADD PUSH2 0xA1F SWAP2 SWAP1 PUSH2 0x485E JUMP JUMPDEST PUSH1 0x40 MLOAD PUSH1 0x20 DUP2 DUP4 SUB SUB DUP2 MSTORE SWAP1 PUSH1 0x40 MSTORE SWAP2 POP POP SWAP2 SWAP1 POP JUMP JUMPDEST PUSH1 0x0 PUSH1 0xA SLOAD SWAP1 POP SWAP1 JUMP JUMPDEST PUSH2 0xA48 PUSH2 0x25A8 JUMP JUMPDEST PUSH20 0xFFFFFFFFFFFFFFFFFFFFFFFFFFFFFFFFFFFFFFFF AND PUSH2 0xA66 PUSH2 0x19E0 JUMP JUMPDEST PUSH20 0xFFFFFFFFFFFFFFFFFFFFFFFFFFFFFFFFFFFFFFFF AND EQ PUSH2 0xABC JUMPI PUSH1 0x40 MLOAD PUSH32 0x8C379A000000000000000000000000000000000000000000000000000000000 DUP2 MSTORE PUSH1 0x4 ADD PUSH2 0xAB3 SWAP1 PUSH2 0x4C71 JUMP JUMPDEST PUSH1 0x40 MLOAD DUP1 SWAP2 SUB SWAP1 REVERT JUMPDEST PUSH1 0x0 ISZERO ISZERO PUSH1 0xF PUSH1 0x0 SWAP1 SLOAD SWAP1 PUSH2 0x100 EXP SWAP1 DIV PUSH1 0xFF AND ISZERO ISZERO EQ PUSH2 0xB12 JUMPI PUSH1 0x40 MLOAD PUSH32 0x8C379A000000000000000000000000000000000000000000000000000000000 DUP2 MSTORE PUSH1 0x4 ADD PUSH2 0xB09 SWAP1 PUSH2 0x4C11 JUMP JUMPDEST PUSH1 0x40 MLOAD DUP1 SWAP2 SUB SWAP1 REVERT JUMPDEST PUSH2 0xB1F CALLER PUSH1 0x8 PUSH1 0x64 PUSH2 0xF1A JUMP JUMPDEST PUSH2 0xB2C CALLER PUSH1 0x44 PUSH1 0x64 PUSH2 0xF1A JUMP JUMPDEST PUSH2 0xB39 CALLER PUSH1 0xA8 PUSH1 0x64 PUSH2 0xF1A JUMP JUMPDEST PUSH1 0x1 PUSH1 0xF PUSH1 0x0 PUSH2 0x100 EXP DUP2 SLOAD DUP2 PUSH1 0xFF MUL NOT AND SWAP1 DUP4 ISZERO ISZERO MUL OR SWAP1 SSTORE POP JUMP JUMPDEST PUSH2 0xB5E PUSH2 0x25A8 JUMP JUMPDEST PUSH20 0xFFFFFFFFFFFFFFFFFFFFFFFFFFFFFFFFFFFFFFFF AND PUSH2 0xB7C PUSH2 0x19E0 JUMP JUMPDEST PUSH20 0xFFFFFFFFFFFFFFFFFFFFFFFFFFFFFFFFFFFFFFFF AND EQ PUSH2 0xBD2 JUMPI PUSH1 0x40 MLOAD PUSH32 0x8C379A000000000000000000000000000000000000000000000000000000000 DUP2 MSTORE PUSH1 0x4 ADD PUSH2 0xBC9 SWAP1 PUSH2 0x4C71 JUMP JUMPDEST PUSH1 0x40 MLOAD DUP1 SWAP2 SUB SWAP1 REVERT JUMPDEST DUP1 PUSH1 0x6 DUP2 SWAP1 SSTORE POP POP JUMP JUMPDEST PUSH2 0xBE4 PUSH2 0x25A8 JUMP JUMPDEST PUSH20 0xFFFFFFFFFFFFFFFFFFFFFFFFFFFFFFFFFFFFFFFF AND DUP6 PUSH20 0xFFFFFFFFFFFFFFFFFFFFFFFFFFFFFFFFFFFFFFFF AND EQ DUP1 PUSH2 0xC2A JUMPI POP PUSH2 0xC29 DUP6 PUSH2 0xC24 PUSH2 0x25A8 JUMP JUMPDEST PUSH2 0x2157 JUMP JUMPDEST JUMPDEST PUSH2 0xC69 JUMPI PUSH1 0x40 MLOAD PUSH32 0x8C379A000000000000000000000000000000000000000000000000000000000 DUP2 MSTORE PUSH1 0x4 ADD PUSH2 0xC60 SWAP1 PUSH2 0x4BD1 JUMP JUMPDEST PUSH1 0x40 MLOAD DUP1 SWAP2 SUB SWAP1 REVERT JUMPDEST PUSH2 0xC76 DUP6 DUP6 DUP6 DUP6 DUP6 PUSH2 0x25B0 JUMP JUMPDEST POP POP POP POP POP JUMP JUMPDEST PUSH1 0x0 PUSH1 0x5 SLOAD SWAP1 POP SWAP1 JUMP JUMPDEST PUSH1 0x0 PUSH2 0xC9E PUSH2 0xC97 PUSH1 0x5 SLOAD PUSH2 0x28C4 JUMP JUMPDEST PUSH1 0x12 PUSH2 0x29D6 JUMP JUMPDEST SWAP1 POP SWAP1 JUMP JUMPDEST PUSH2 0xCAB PUSH2 0x25A8 JUMP JUMPDEST PUSH20 0xFFFFFFFFFFFFFFFFFFFFFFFFFFFFFFFFFFFFFFFF AND PUSH2 0xCC9 PUSH2 0x19E0 JUMP JUMPDEST PUSH20 0xFFFFFFFFFFFFFFFFFFFFFFFFFFFFFFFFFFFFFFFF AND EQ PUSH2 0xD1F JUMPI PUSH1 0x40 MLOAD PUSH32 0x8C379A000000000000000000000000000000000000000000000000000000000 DUP2 MSTORE PUSH1 0x4 ADD PUSH2 0xD16 SWAP1 PUSH2 0x4C71 JUMP JUMPDEST PUSH1 0x40 MLOAD DUP1 SWAP2 SUB SWAP1 REVERT JUMPDEST PUSH1 0x0 SELFBALANCE SWAP1 POP PUSH1 0x0 PUSH2 0xD2E PUSH2 0x19E0 JUMP JUMPDEST PUSH20 0xFFFFFFFFFFFFFFFFFFFFFFFFFFFFFFFFFFFFFFFF AND DUP3 PUSH1 0x40 MLOAD PUSH2 0xD51 SWAP1 PUSH2 0x4880 JUMP JUMPDEST PUSH1 0x0 PUSH1 0x40 MLOAD DUP1 DUP4 SUB DUP2 DUP6 DUP8 GAS CALL SWAP3 POP POP POP RETURNDATASIZE DUP1 PUSH1 0x0 DUP2 EQ PUSH2 0xD8E JUMPI PUSH1 0x40 MLOAD SWAP2 POP PUSH1 0x1F NOT PUSH1 0x3F RETURNDATASIZE ADD AND DUP3 ADD PUSH1 0x40 MSTORE RETURNDATASIZE DUP3 MSTORE RETURNDATASIZE PUSH1 0x0 PUSH1 0x20 DUP5 ADD RETURNDATACOPY PUSH2 0xD93 JUMP JUMPDEST PUSH1 0x60 SWAP2 POP JUMPDEST POP POP SWAP1 POP DUP1 PUSH2 0xDD7 JUMPI PUSH1 0x40 MLOAD PUSH32 0x8C379A000000000000000000000000000000000000000000000000000000000 DUP2 MSTORE PUSH1 0x4 ADD PUSH2 0xDCE SWAP1 PUSH2 0x4BF1 JUMP JUMPDEST PUSH1 0x40 MLOAD DUP1 SWAP2 SUB SWAP1 REVERT JUMPDEST POP POP JUMP JUMPDEST PUSH1 0x9 PUSH1 0x0 SWAP1 SLOAD SWAP1 PUSH2 0x100 EXP SWAP1 DIV PUSH20 0xFFFFFFFFFFFFFFFFFFFFFFFFFFFFFFFFFFFFFFFF AND DUP2 JUMP JUMPDEST PUSH1 0x60 DUP2 MLOAD DUP4 MLOAD EQ PUSH2 0xE47 JUMPI PUSH1 0x40 MLOAD PUSH32 0x8C379A000000000000000000000000000000000000000000000000000000000 DUP2 MSTORE PUSH1 0x4 ADD PUSH2 0xE3E SWAP1 PUSH2 0x4CB1 JUMP JUMPDEST PUSH1 0x40 MLOAD DUP1 SWAP2 SUB SWAP1 REVERT JUMPDEST PUSH1 0x0 DUP4 MLOAD PUSH8 0xFFFFFFFFFFFFFFFF DUP2 GT ISZERO PUSH2 0xE64 JUMPI PUSH2 0xE63 PUSH2 0x55C8 JUMP JUMPDEST JUMPDEST PUSH1 0x40 MLOAD SWAP1 DUP1 DUP3 MSTORE DUP1 PUSH1 0x20 MUL PUSH1 0x20 ADD DUP3 ADD PUSH1 0x40 MSTORE DUP1 ISZERO PUSH2 0xE92 JUMPI DUP2 PUSH1 0x20 ADD PUSH1 0x20 DUP3 MUL DUP1 CALLDATASIZE DUP4 CALLDATACOPY DUP1 DUP3 ADD SWAP2 POP POP SWAP1 POP JUMPDEST POP SWAP1 POP PUSH1 0x0 JUMPDEST DUP5 MLOAD DUP2 LT ISZERO PUSH2 0xF0F JUMPI PUSH2 0xEDF DUP6 DUP3 DUP2 MLOAD DUP2 LT PUSH2 0xEB7 JUMPI PUSH2 0xEB6 PUSH2 0x5599 JUMP JUMPDEST JUMPDEST PUSH1 0x20 MUL PUSH1 0x20 ADD ADD MLOAD DUP6 DUP4 DUP2 MLOAD DUP2 LT PUSH2 0xED2 JUMPI PUSH2 0xED1 PUSH2 0x5599 JUMP JUMPDEST JUMPDEST PUSH1 0x20 MUL PUSH1 0x20 ADD ADD MLOAD PUSH2 0x80F JUMP JUMPDEST DUP3 DUP3 DUP2 MLOAD DUP2 LT PUSH2 0xEF2 JUMPI PUSH2 0xEF1 PUSH2 0x5599 JUMP JUMPDEST JUMPDEST PUSH1 0x20 MUL PUSH1 0x20 ADD ADD DUP2 DUP2 MSTORE POP POP DUP1 PUSH2 0xF08 SWAP1 PUSH2 0x54C3 JUMP JUMPDEST SWAP1 POP PUSH2 0xE98 JUMP JUMPDEST POP DUP1 SWAP2 POP POP SWAP3 SWAP2 POP POP JUMP JUMPDEST PUSH2 0xF22 PUSH2 0x25A8 JUMP JUMPDEST PUSH20 0xFFFFFFFFFFFFFFFFFFFFFFFFFFFFFFFFFFFFFFFF AND PUSH2 0xF40 PUSH2 0x19E0 JUMP JUMPDEST PUSH20 0xFFFFFFFFFFFFFFFFFFFFFFFFFFFFFFFFFFFFFFFF AND EQ PUSH2 0xF96 JUMPI PUSH1 0x40 MLOAD PUSH32 0x8C379A000000000000000000000000000000000000000000000000000000000 DUP2 MSTORE PUSH1 0x4 ADD PUSH2 0xF8D SWAP1 PUSH2 0x4C71 JUMP JUMPDEST PUSH1 0x40 MLOAD DUP1 SWAP2 SUB SWAP1 REVERT JUMPDEST PUSH1 0x44 DUP3 EQ ISZERO PUSH2 0xFC0 JUMPI PUSH2 0xFB5 PUSH1 0x0 PUSH1 0xA SLOAD PUSH2 0x2C7A SWAP1 SWAP2 SWAP1 PUSH4 0xFFFFFFFF AND JUMP JUMPDEST PUSH1 0xA DUP2 SWAP1 SSTORE POP PUSH2 0x1088 JUMP JUMPDEST PUSH1 0xA8 DUP3 EQ ISZERO PUSH2 0xFEA JUMPI PUSH2 0xFDF PUSH1 0x0 PUSH1 0xB SLOAD PUSH2 0x2C7A SWAP1 SWAP2 SWAP1 PUSH4 0xFFFFFFFF AND JUMP JUMPDEST PUSH1 0xB DUP2 SWAP1 SSTORE POP PUSH2 0x1087 JUMP JUMPDEST PUSH1 0x8 DUP3 EQ ISZERO PUSH2 0x1014 JUMPI PUSH2 0x1009 PUSH1 0x0 PUSH1 0xC SLOAD PUSH2 0x2C7A SWAP1 SWAP2 SWAP1 PUSH4 0xFFFFFFFF AND JUMP JUMPDEST PUSH1 0xC DUP2 SWAP1 SSTORE POP PUSH2 0x1086 JUMP JUMPDEST PUSH1 0x40 MLOAD DUP1 PUSH1 0x40 ADD PUSH1 0x40 MSTORE DUP1 PUSH1 0x18 DUP2 MSTORE PUSH1 0x20 ADD PUSH32 0x556E6B6E6F776E205374617264757374204361736B2049440000000000000000 DUP2 MSTORE POP PUSH1 0x40 MLOAD PUSH32 0x8C379A000000000000000000000000000000000000000000000000000000000 DUP2 MSTORE PUSH1 0x4 ADD PUSH2 0x107D SWAP2 SWAP1 PUSH2 0x4A0F JUMP JUMPDEST PUSH1 0x40 MLOAD DUP1 SWAP2 SUB SWAP1 REVERT JUMPDEST JUMPDEST JUMPDEST PUSH2 0x10A3 DUP4 DUP4 DUP4 PUSH1 0x40 MLOAD DUP1 PUSH1 0x20 ADD PUSH1 0x40 MSTORE DUP1 PUSH1 0x0 DUP2 MSTORE POP PUSH2 0x2C90 JUMP JUMPDEST POP POP POP JUMP JUMPDEST PUSH2 0x10B0 PUSH2 0x25A8 JUMP JUMPDEST PUSH20 0xFFFFFFFFFFFFFFFFFFFFFFFFFFFFFFFFFFFFFFFF AND PUSH2 0x10CE PUSH2 0x19E0 JUMP JUMPDEST PUSH20 0xFFFFFFFFFFFFFFFFFFFFFFFFFFFFFFFFFFFFFFFF AND EQ PUSH2 0x1124 JUMPI PUSH1 0x40 MLOAD PUSH32 0x8C379A000000000000000000000000000000000000000000000000000000000 DUP2 MSTORE PUSH1 0x4 ADD PUSH2 0x111B SWAP1 PUSH2 0x4C71 JUMP JUMPDEST PUSH1 0x40 MLOAD DUP1 SWAP2 SUB SWAP1 REVERT JUMPDEST PUSH2 0x112E PUSH1 0x0 PUSH2 0x2E26 JUMP JUMPDEST JUMP JUMPDEST PUSH2 0x1138 PUSH2 0x25A8 JUMP JUMPDEST PUSH20 0xFFFFFFFFFFFFFFFFFFFFFFFFFFFFFFFFFFFFFFFF AND PUSH2 0x1156 PUSH2 0x19E0 JUMP JUMPDEST PUSH20 0xFFFFFFFFFFFFFFFFFFFFFFFFFFFFFFFFFFFFFFFF AND EQ PUSH2 0x11AC JUMPI PUSH1 0x40 MLOAD PUSH32 0x8C379A000000000000000000000000000000000000000000000000000000000 DUP2 MSTORE PUSH1 0x4 ADD PUSH2 0x11A3 SWAP1 PUSH2 0x4C71 JUMP JUMPDEST PUSH1 0x40 MLOAD DUP1 SWAP2 SUB SWAP1 REVERT JUMPDEST DUP1 PUSH1 0x5 DUP2 SWAP1 SSTORE POP POP JUMP JUMPDEST PUSH2 0x11BE PUSH2 0x25A8 JUMP JUMPDEST PUSH20 0xFFFFFFFFFFFFFFFFFFFFFFFFFFFFFFFFFFFFFFFF AND PUSH2 0x11DC PUSH2 0x19E0 JUMP JUMPDEST PUSH20 0xFFFFFFFFFFFFFFFFFFFFFFFFFFFFFFFFFFFFFFFF AND EQ PUSH2 0x1232 JUMPI PUSH1 0x40 MLOAD PUSH32 0x8C379A000000000000000000000000000000000000000000000000000000000 DUP2 MSTORE PUSH1 0x4 ADD PUSH2 0x1229 SWAP1 PUSH2 0x4C71 JUMP JUMPDEST PUSH1 0x40 MLOAD DUP1 SWAP2 SUB SWAP1 REVERT JUMPDEST PUSH1 0x0 JUMPDEST DUP5 DUP5 SWAP1 POP DUP2 LT ISZERO PUSH2 0x12B2 JUMPI DUP5 DUP5 DUP3 DUP2 DUP2 LT PUSH2 0x1253 JUMPI PUSH2 0x1252 PUSH2 0x5599 JUMP JUMPDEST JUMPDEST SWAP1 POP PUSH1 0x20 MUL DUP2 ADD SWAP1 PUSH2 0x1265 SWAP2 SWAP1 PUSH2 0x4D95 JUMP JUMPDEST PUSH1 0xD PUSH1 0x0 DUP7 DUP7 DUP7 DUP2 DUP2 LT PUSH2 0x127C JUMPI PUSH2 0x127B PUSH2 0x5599 JUMP JUMPDEST JUMPDEST SWAP1 POP PUSH1 0x20 MUL ADD CALLDATALOAD DUP2 MSTORE PUSH1 0x20 ADD SWAP1 DUP2 MSTORE PUSH1 0x20 ADD PUSH1 0x0 KECCAK256 SWAP2 SWAP1 PUSH2 0x129E SWAP3 SWAP2 SWAP1 PUSH2 0x37C1 JUMP JUMPDEST POP DUP1 DUP1 PUSH2 0x12AA SWAP1 PUSH2 0x54C3 JUMP JUMPDEST SWAP2 POP POP PUSH2 0x1235 JUMP JUMPDEST POP POP POP POP POP JUMP JUMPDEST PUSH2 0x12C1 PUSH2 0x25A8 JUMP JUMPDEST PUSH20 0xFFFFFFFFFFFFFFFFFFFFFFFFFFFFFFFFFFFFFFFF AND PUSH2 0x12DF PUSH2 0x19E0 JUMP JUMPDEST PUSH20 0xFFFFFFFFFFFFFFFFFFFFFFFFFFFFFFFFFFFFFFFF AND EQ PUSH2 0x1335 JUMPI PUSH1 0x40 MLOAD PUSH32 0x8C379A000000000000000000000000000000000000000000000000000000000 DUP2 MSTORE PUSH1 0x4 ADD PUSH2 0x132C SWAP1 PUSH2 0x4C71 JUMP JUMPDEST PUSH1 0x40 MLOAD DUP1 SWAP2 SUB SWAP1 REVERT JUMPDEST DUP3 DUP3 SWAP1 POP DUP6 DUP6 SWAP1 POP EQ PUSH2 0x137D JUMPI PUSH1 0x40 MLOAD PUSH32 0x8C379A000000000000000000000000000000000000000000000000000000000 DUP2 MSTORE PUSH1 0x4 ADD PUSH2 0x1374 SWAP1 PUSH2 0x4A91 JUMP JUMPDEST PUSH1 0x40 MLOAD DUP1 SWAP2 SUB SWAP1 REVERT JUMPDEST PUSH1 0x0 ADDRESS PUSH20 0xFFFFFFFFFFFFFFFFFFFFFFFFFFFFFFFFFFFFFFFF AND PUSH4 0x8DA5CB5B PUSH1 0x40 MLOAD DUP2 PUSH4 0xFFFFFFFF AND PUSH1 0xE0 SHL DUP2 MSTORE PUSH1 0x4 ADD PUSH1 0x20 PUSH1 0x40 MLOAD DUP1 DUP4 SUB DUP2 DUP7 DUP1 EXTCODESIZE ISZERO DUP1 ISZERO PUSH2 0x13C5 JUMPI PUSH1 0x0 DUP1 REVERT JUMPDEST POP GAS STATICCALL ISZERO DUP1 ISZERO PUSH2 0x13D9 JUMPI RETURNDATASIZE PUSH1 0x0 DUP1 RETURNDATACOPY RETURNDATASIZE PUSH1 0x0 REVERT JUMPDEST POP POP POP POP PUSH1 0x40 MLOAD RETURNDATASIZE PUSH1 0x1F NOT PUSH1 0x1F DUP3 ADD AND DUP3 ADD DUP1 PUSH1 0x40 MSTORE POP DUP2 ADD SWAP1 PUSH2 0x13FD SWAP2 SWAP1 PUSH2 0x3C11 JUMP JUMPDEST SWAP1 POP PUSH1 0x0 JUMPDEST DUP7 DUP7 SWAP1 POP DUP2 LT ISZERO PUSH2 0x1540 JUMPI PUSH2 0x1469 DUP3 DUP9 DUP9 DUP5 DUP2 DUP2 LT PUSH2 0x1424 JUMPI PUSH2 0x1423 PUSH2 0x5599 JUMP JUMPDEST JUMPDEST SWAP1 POP PUSH1 0x20 MUL ADD PUSH1 0x20 DUP2 ADD SWAP1 PUSH2 0x1439 SWAP2 SWAP1 PUSH2 0x3BE4 JUMP JUMPDEST DUP6 DUP9 DUP9 DUP7 DUP2 DUP2 LT PUSH2 0x144D JUMPI PUSH2 0x144C PUSH2 0x5599 JUMP JUMPDEST JUMPDEST SWAP1 POP PUSH1 0x20 MUL ADD CALLDATALOAD PUSH1 0x40 MLOAD DUP1 PUSH1 0x20 ADD PUSH1 0x40 MSTORE DUP1 PUSH1 0x0 DUP2 MSTORE POP PUSH2 0x2207 JUMP JUMPDEST PUSH1 0x44 DUP4 EQ ISZERO PUSH2 0x14AB JUMPI PUSH2 0x14A0 DUP6 DUP6 DUP4 DUP2 DUP2 LT PUSH2 0x1488 JUMPI PUSH2 0x1487 PUSH2 0x5599 JUMP JUMPDEST JUMPDEST SWAP1 POP PUSH1 0x20 MUL ADD CALLDATALOAD PUSH1 0xA SLOAD PUSH2 0x2C7A SWAP1 SWAP2 SWAP1 PUSH4 0xFFFFFFFF AND JUMP JUMPDEST PUSH1 0xA DUP2 SWAP1 SSTORE POP PUSH2 0x152D JUMP JUMPDEST PUSH1 0xA8 DUP4 EQ ISZERO PUSH2 0x14ED JUMPI PUSH2 0x14E2 DUP6 DUP6 DUP4 DUP2 DUP2 LT PUSH2 0x14CA JUMPI PUSH2 0x14C9 PUSH2 0x5599 JUMP JUMPDEST JUMPDEST SWAP1 POP PUSH1 0x20 MUL ADD CALLDATALOAD PUSH1 0xB SLOAD PUSH2 0x2C7A SWAP1 SWAP2 SWAP1 PUSH4 0xFFFFFFFF AND JUMP JUMPDEST PUSH1 0xB DUP2 SWAP1 SSTORE POP PUSH2 0x152C JUMP JUMPDEST PUSH1 0x8 DUP4 EQ ISZERO PUSH2 0x152B JUMPI PUSH2 0x1524 DUP6 DUP6 DUP4 DUP2 DUP2 LT PUSH2 0x150C JUMPI PUSH2 0x150B PUSH2 0x5599 JUMP JUMPDEST JUMPDEST SWAP1 POP PUSH1 0x20 MUL ADD CALLDATALOAD PUSH1 0xC SLOAD PUSH2 0x2C7A SWAP1 SWAP2 SWAP1 PUSH4 0xFFFFFFFF AND JUMP JUMPDEST PUSH1 0xC DUP2 SWAP1 SSTORE POP JUMPDEST JUMPDEST JUMPDEST DUP1 DUP1 PUSH2 0x1538 SWAP1 PUSH2 0x54C3 JUMP JUMPDEST SWAP2 POP POP PUSH2 0x1402 JUMP JUMPDEST POP POP POP POP POP POP POP JUMP JUMPDEST PUSH1 0x2 PUSH1 0x4 SLOAD EQ ISZERO PUSH2 0x158F JUMPI PUSH1 0x40 MLOAD PUSH32 0x8C379A000000000000000000000000000000000000000000000000000000000 DUP2 MSTORE PUSH1 0x4 ADD PUSH2 0x1586 SWAP1 PUSH2 0x4D11 JUMP JUMPDEST PUSH1 0x40 MLOAD DUP1 SWAP2 SUB SWAP1 REVERT JUMPDEST PUSH1 0x2 PUSH1 0x4 DUP2 SWAP1 SSTORE POP ADDRESS PUSH20 0xFFFFFFFFFFFFFFFFFFFFFFFFFFFFFFFFFFFFFFFF AND PUSH4 0x8DA5CB5B PUSH1 0x40 MLOAD DUP2 PUSH4 0xFFFFFFFF AND PUSH1 0xE0 SHL DUP2 MSTORE PUSH1 0x4 ADD PUSH1 0x20 PUSH1 0x40 MLOAD DUP1 DUP4 SUB DUP2 DUP7 DUP1 EXTCODESIZE ISZERO DUP1 ISZERO PUSH2 0x15DD JUMPI PUSH1 0x0 DUP1 REVERT JUMPDEST POP GAS STATICCALL ISZERO DUP1 ISZERO PUSH2 0x15F1 JUMPI RETURNDATASIZE PUSH1 0x0 DUP1 RETURNDATACOPY RETURNDATASIZE PUSH1 0x0 REVERT JUMPDEST POP POP POP POP PUSH1 0x40 MLOAD RETURNDATASIZE PUSH1 0x1F NOT PUSH1 0x1F DUP3 ADD AND DUP3 ADD DUP1 PUSH1 0x40 MSTORE POP DUP2 ADD SWAP1 PUSH2 0x1615 SWAP2 SWAP1 PUSH2 0x3C11 JUMP JUMPDEST PUSH20 0xFFFFFFFFFFFFFFFFFFFFFFFFFFFFFFFFFFFFFFFF AND CALLER PUSH20 0xFFFFFFFFFFFFFFFFFFFFFFFFFFFFFFFFFFFFFFFF AND EQ ISZERO PUSH2 0x1683 JUMPI PUSH1 0x40 MLOAD PUSH32 0x8C379A000000000000000000000000000000000000000000000000000000000 DUP2 MSTORE PUSH1 0x4 ADD PUSH2 0x167A SWAP1 PUSH2 0x4D31 JUMP JUMPDEST PUSH1 0x40 MLOAD DUP1 SWAP2 SUB SWAP1 REVERT JUMPDEST PUSH1 0x7 SLOAD DUP2 ADDRESS PUSH20 0xFFFFFFFFFFFFFFFFFFFFFFFFFFFFFFFFFFFFFFFF AND PUSH3 0xFDD58E CALLER PUSH1 0x44 PUSH1 0x40 MLOAD DUP4 PUSH4 0xFFFFFFFF AND PUSH1 0xE0 SHL DUP2 MSTORE PUSH1 0x4 ADD PUSH2 0x16C2 SWAP3 SWAP2 SWAP1 PUSH2 0x4972 JUMP JUMPDEST PUSH1 0x20 PUSH1 0x40 MLOAD DUP1 DUP4 SUB DUP2 DUP7 DUP1 EXTCODESIZE ISZERO DUP1 ISZERO PUSH2 0x16DA JUMPI PUSH1 0x0 DUP1 REVERT JUMPDEST POP GAS STATICCALL ISZERO DUP1 ISZERO PUSH2 0x16EE JUMPI RETURNDATASIZE PUSH1 0x0 DUP1 RETURNDATACOPY RETURNDATASIZE PUSH1 0x0 REVERT JUMPDEST POP POP POP POP PUSH1 0x40 MLOAD RETURNDATASIZE PUSH1 0x1F NOT PUSH1 0x1F DUP3 ADD AND DUP3 ADD DUP1 PUSH1 0x40 MSTORE POP DUP2 ADD SWAP1 PUSH2 0x1712 SWAP2 SWAP1 PUSH2 0x40CC JUMP JUMPDEST PUSH2 0x171C SWAP2 SWAP1 PUSH2 0x4F42 JUMP JUMPDEST GT ISZERO PUSH2 0x175D JUMPI PUSH1 0x40 MLOAD PUSH32 0x8C379A000000000000000000000000000000000000000000000000000000000 DUP2 MSTORE PUSH1 0x4 ADD PUSH2 0x1754 SWAP1 PUSH2 0x4B11 JUMP JUMPDEST PUSH1 0x40 MLOAD DUP1 SWAP2 SUB SWAP1 REVERT JUMPDEST DUP1 PUSH2 0x1773 PUSH2 0x176C PUSH1 0x5 SLOAD PUSH2 0x28C4 JUMP JUMPDEST PUSH1 0x12 PUSH2 0x29D6 JUMP JUMPDEST PUSH2 0x177D SWAP2 SWAP1 PUSH2 0x52BB JUMP JUMPDEST CALLVALUE LT ISZERO PUSH2 0x17BF JUMPI PUSH1 0x40 MLOAD PUSH32 0x8C379A000000000000000000000000000000000000000000000000000000000 DUP2 MSTORE PUSH1 0x4 ADD PUSH2 0x17B6 SWAP1 PUSH2 0x4AF1 JUMP JUMPDEST PUSH1 0x40 MLOAD DUP1 SWAP2 SUB SWAP1 REVERT JUMPDEST PUSH1 0x10 SLOAD DUP2 ADDRESS PUSH20 0xFFFFFFFFFFFFFFFFFFFFFFFFFFFFFFFFFFFFFFFF AND PUSH3 0xFDD58E ADDRESS PUSH20 0xFFFFFFFFFFFFFFFFFFFFFFFFFFFFFFFFFFFFFFFF AND PUSH4 0x8DA5CB5B PUSH1 0x40 MLOAD DUP2 PUSH4 0xFFFFFFFF AND PUSH1 0xE0 SHL DUP2 MSTORE PUSH1 0x4 ADD PUSH1 0x20 PUSH1 0x40 MLOAD DUP1 DUP4 SUB DUP2 DUP7 DUP1 EXTCODESIZE ISZERO DUP1 ISZERO PUSH2 0x1824 JUMPI PUSH1 0x0 DUP1 REVERT JUMPDEST POP GAS STATICCALL ISZERO DUP1 ISZERO PUSH2 0x1838 JUMPI RETURNDATASIZE PUSH1 0x0 DUP1 RETURNDATACOPY RETURNDATASIZE PUSH1 0x0 REVERT JUMPDEST POP POP POP POP PUSH1 0x40 MLOAD RETURNDATASIZE PUSH1 0x1F NOT PUSH1 0x1F DUP3 ADD AND DUP3 ADD DUP1 PUSH1 0x40 MSTORE POP DUP2 ADD SWAP1 PUSH2 0x185C SWAP2 SWAP1 PUSH2 0x3C11 JUMP JUMPDEST PUSH1 0x44 PUSH1 0x40 MLOAD DUP4 PUSH4 0xFFFFFFFF AND PUSH1 0xE0 SHL DUP2 MSTORE PUSH1 0x4 ADD PUSH2 0x187B SWAP3 SWAP2 SWAP1 PUSH2 0x4972 JUMP JUMPDEST PUSH1 0x20 PUSH1 0x40 MLOAD DUP1 DUP4 SUB DUP2 DUP7 DUP1 EXTCODESIZE ISZERO DUP1 ISZERO PUSH2 0x1893 JUMPI PUSH1 0x0 DUP1 REVERT JUMPDEST POP GAS STATICCALL ISZERO DUP1 ISZERO PUSH2 0x18A7 JUMPI RETURNDATASIZE PUSH1 0x0 DUP1 RETURNDATACOPY RETURNDATASIZE PUSH1 0x0 REVERT JUMPDEST POP POP POP POP PUSH1 0x40 MLOAD RETURNDATASIZE PUSH1 0x1F NOT PUSH1 0x1F DUP3 ADD AND DUP3 ADD DUP1 PUSH1 0x40 MSTORE POP DUP2 ADD SWAP1 PUSH2 0x18CB SWAP2 SWAP1 PUSH2 0x40CC JUMP JUMPDEST PUSH2 0x18D5 SWAP2 SWAP1 PUSH2 0x5315 JUMP JUMPDEST LT ISZERO PUSH2 0x1916 JUMPI PUSH1 0x40 MLOAD PUSH32 0x8C379A000000000000000000000000000000000000000000000000000000000 DUP2 MSTORE PUSH1 0x4 ADD PUSH2 0x190D SWAP1 PUSH2 0x4B71 JUMP JUMPDEST PUSH1 0x40 MLOAD DUP1 SWAP2 SUB SWAP1 REVERT JUMPDEST PUSH2 0x19B0 ADDRESS PUSH20 0xFFFFFFFFFFFFFFFFFFFFFFFFFFFFFFFFFFFFFFFF AND PUSH4 0x8DA5CB5B PUSH1 0x40 MLOAD DUP2 PUSH4 0xFFFFFFFF AND PUSH1 0xE0 SHL DUP2 MSTORE PUSH1 0x4 ADD PUSH1 0x20 PUSH1 0x40 MLOAD DUP1 DUP4 SUB DUP2 DUP7 DUP1 EXTCODESIZE ISZERO DUP1 ISZERO PUSH2 0x195F JUMPI PUSH1 0x0 DUP1 REVERT JUMPDEST POP GAS STATICCALL ISZERO DUP1 ISZERO PUSH2 0x1973 JUMPI RETURNDATASIZE PUSH1 0x0 DUP1 RETURNDATACOPY RETURNDATASIZE PUSH1 0x0 REVERT JUMPDEST POP POP POP POP PUSH1 0x40 MLOAD RETURNDATASIZE PUSH1 0x1F NOT PUSH1 0x1F DUP3 ADD AND DUP3 ADD DUP1 PUSH1 0x40 MSTORE POP DUP2 ADD SWAP1 PUSH2 0x1997 SWAP2 SWAP1 PUSH2 0x3C11 JUMP JUMPDEST CALLER PUSH1 0x44 DUP5 PUSH1 0x40 MLOAD DUP1 PUSH1 0x20 ADD PUSH1 0x40 MSTORE DUP1 PUSH1 0x0 DUP2 MSTORE POP PUSH2 0x2EEC JUMP JUMPDEST PUSH2 0x19C5 DUP2 PUSH1 0xA SLOAD PUSH2 0x2C7A SWAP1 SWAP2 SWAP1 PUSH4 0xFFFFFFFF AND JUMP JUMPDEST PUSH1 0xA DUP2 SWAP1 SSTORE POP PUSH1 0x1 PUSH1 0x4 DUP2 SWAP1 SSTORE POP POP JUMP JUMPDEST PUSH1 0x0 PUSH1 0x10 SLOAD SWAP1 POP SWAP1 JUMP JUMPDEST PUSH1 0x0 PUSH1 0x3 PUSH1 0x0 SWAP1 SLOAD SWAP1 PUSH2 0x100 EXP SWAP1 DIV PUSH20 0xFFFFFFFFFFFFFFFFFFFFFFFFFFFFFFFFFFFFFFFF AND SWAP1 POP SWAP1 JUMP JUMPDEST PUSH2 0x1A12 PUSH2 0x25A8 JUMP JUMPDEST PUSH20 0xFFFFFFFFFFFFFFFFFFFFFFFFFFFFFFFFFFFFFFFF AND PUSH2 0x1A30 PUSH2 0x19E0 JUMP JUMPDEST PUSH20 0xFFFFFFFFFFFFFFFFFFFFFFFFFFFFFFFFFFFFFFFF AND EQ PUSH2 0x1A86 JUMPI PUSH1 0x40 MLOAD PUSH32 0x8C379A000000000000000000000000000000000000000000000000000000000 DUP2 MSTORE PUSH1 0x4 ADD PUSH2 0x1A7D SWAP1 PUSH2 0x4C71 JUMP JUMPDEST PUSH1 0x40 MLOAD DUP1 SWAP2 SUB SWAP1 REVERT JUMPDEST DUP1 PUSH1 0x9 PUSH1 0x0 PUSH2 0x100 EXP DUP2 SLOAD DUP2 PUSH20 0xFFFFFFFFFFFFFFFFFFFFFFFFFFFFFFFFFFFFFFFF MUL NOT AND SWAP1 DUP4 PUSH20 0xFFFFFFFFFFFFFFFFFFFFFFFFFFFFFFFFFFFFFFFF AND MUL OR SWAP1 SSTORE POP POP JUMP JUMPDEST PUSH2 0x1AD2 PUSH2 0x25A8 JUMP JUMPDEST PUSH20 0xFFFFFFFFFFFFFFFFFFFFFFFFFFFFFFFFFFFFFFFF AND PUSH2 0x1AF0 PUSH2 0x19E0 JUMP JUMPDEST PUSH20 0xFFFFFFFFFFFFFFFFFFFFFFFFFFFFFFFFFFFFFFFF AND EQ PUSH2 0x1B46 JUMPI PUSH1 0x40 MLOAD PUSH32 0x8C379A000000000000000000000000000000000000000000000000000000000 DUP2 MSTORE PUSH1 0x4 ADD PUSH2 0x1B3D SWAP1 PUSH2 0x4C71 JUMP JUMPDEST PUSH1 0x40 MLOAD DUP1 SWAP2 SUB SWAP1 REVERT JUMPDEST DUP1 PUSH1 0x7 DUP2 SWAP1 SSTORE POP POP JUMP JUMPDEST PUSH2 0x1B58 PUSH2 0x25A8 JUMP JUMPDEST PUSH20 0xFFFFFFFFFFFFFFFFFFFFFFFFFFFFFFFFFFFFFFFF AND PUSH2 0x1B76 PUSH2 0x19E0 JUMP JUMPDEST PUSH20 0xFFFFFFFFFFFFFFFFFFFFFFFFFFFFFFFFFFFFFFFF AND EQ PUSH2 0x1BCC JUMPI PUSH1 0x40 MLOAD PUSH32 0x8C379A000000000000000000000000000000000000000000000000000000000 DUP2 MSTORE PUSH1 0x4 ADD PUSH2 0x1BC3 SWAP1 PUSH2 0x4C71 JUMP JUMPDEST PUSH1 0x40 MLOAD DUP1 SWAP2 SUB SWAP1 REVERT JUMPDEST DUP1 PUSH1 0x8 PUSH1 0x0 PUSH2 0x100 EXP DUP2 SLOAD DUP2 PUSH20 0xFFFFFFFFFFFFFFFFFFFFFFFFFFFFFFFFFFFFFFFF MUL NOT AND SWAP1 DUP4 PUSH20 0xFFFFFFFFFFFFFFFFFFFFFFFFFFFFFFFFFFFFFFFF AND MUL OR SWAP1 SSTORE POP POP JUMP JUMPDEST PUSH2 0x1C18 PUSH2 0x25A8 JUMP JUMPDEST PUSH20 0xFFFFFFFFFFFFFFFFFFFFFFFFFFFFFFFFFFFFFFFF AND PUSH2 0x1C36 PUSH2 0x19E0 JUMP JUMPDEST PUSH20 0xFFFFFFFFFFFFFFFFFFFFFFFFFFFFFFFFFFFFFFFF AND EQ PUSH2 0x1C8C JUMPI PUSH1 0x40 MLOAD PUSH32 0x8C379A000000000000000000000000000000000000000000000000000000000 DUP2 MSTORE PUSH1 0x4 ADD PUSH2 0x1C83 SWAP1 PUSH2 0x4C71 JUMP JUMPDEST PUSH1 0x40 MLOAD DUP1 SWAP2 SUB SWAP1 REVERT JUMPDEST DUP1 PUSH1 0x10 DUP2 SWAP1 SSTORE POP POP JUMP JUMPDEST PUSH2 0x1CA8 PUSH2 0x1CA1 PUSH2 0x25A8 JUMP JUMPDEST DUP4 DUP4 PUSH2 0x316E JUMP JUMPDEST POP POP JUMP JUMPDEST PUSH1 0x2 PUSH1 0x4 SLOAD EQ ISZERO PUSH2 0x1CF2 JUMPI PUSH1 0x40 MLOAD PUSH32 0x8C379A000000000000000000000000000000000000000000000000000000000 DUP2 MSTORE PUSH1 0x4 ADD PUSH2 0x1CE9 SWAP1 PUSH2 0x4D11 JUMP JUMPDEST PUSH1 0x40 MLOAD DUP1 SWAP2 SUB SWAP1 REVERT JUMPDEST PUSH1 0x2 PUSH1 0x4 DUP2 SWAP1 SSTORE POP ADDRESS PUSH20 0xFFFFFFFFFFFFFFFFFFFFFFFFFFFFFFFFFFFFFFFF AND PUSH4 0x8DA5CB5B PUSH1 0x40 MLOAD DUP2 PUSH4 0xFFFFFFFF AND PUSH1 0xE0 SHL DUP2 MSTORE PUSH1 0x4 ADD PUSH1 0x20 PUSH1 0x40 MLOAD DUP1 DUP4 SUB DUP2 DUP7 DUP1 EXTCODESIZE ISZERO DUP1 ISZERO PUSH2 0x1D40 JUMPI PUSH1 0x0 DUP1 REVERT JUMPDEST POP GAS STATICCALL ISZERO DUP1 ISZERO PUSH2 0x1D54 JUMPI RETURNDATASIZE PUSH1 0x0 DUP1 RETURNDATACOPY RETURNDATASIZE PUSH1 0x0 REVERT JUMPDEST POP POP POP POP PUSH1 0x40 MLOAD RETURNDATASIZE PUSH1 0x1F NOT PUSH1 0x1F DUP3 ADD AND DUP3 ADD DUP1 PUSH1 0x40 MSTORE POP DUP2 ADD SWAP1 PUSH2 0x1D78 SWAP2 SWAP1 PUSH2 0x3C11 JUMP JUMPDEST PUSH20 0xFFFFFFFFFFFFFFFFFFFFFFFFFFFFFFFFFFFFFFFF AND CALLER PUSH20 0xFFFFFFFFFFFFFFFFFFFFFFFFFFFFFFFFFFFFFFFF AND EQ ISZERO PUSH2 0x1DE6 JUMPI PUSH1 0x40 MLOAD PUSH32 0x8C379A000000000000000000000000000000000000000000000000000000000 DUP2 MSTORE PUSH1 0x4 ADD PUSH2 0x1DDD SWAP1 PUSH2 0x4B51 JUMP JUMPDEST PUSH1 0x40 MLOAD DUP1 SWAP2 SUB SWAP1 REVERT JUMPDEST PUSH1 0x7 SLOAD DUP2 ADDRESS PUSH20 0xFFFFFFFFFFFFFFFFFFFFFFFFFFFFFFFFFFFFFFFF AND PUSH3 0xFDD58E CALLER PUSH1 0xA8 PUSH1 0x40 MLOAD DUP4 PUSH4 0xFFFFFFFF AND PUSH1 0xE0 SHL DUP2 MSTORE PUSH1 0x4 ADD PUSH2 0x1E25 SWAP3 SWAP2 SWAP1 PUSH2 0x4972 JUMP JUMPDEST PUSH1 0x20 PUSH1 0x40 MLOAD DUP1 DUP4 SUB DUP2 DUP7 DUP1 EXTCODESIZE ISZERO DUP1 ISZERO PUSH2 0x1E3D JUMPI PUSH1 0x0 DUP1 REVERT JUMPDEST POP GAS STATICCALL ISZERO DUP1 ISZERO PUSH2 0x1E51 JUMPI RETURNDATASIZE PUSH1 0x0 DUP1 RETURNDATACOPY RETURNDATASIZE PUSH1 0x0 REVERT JUMPDEST POP POP POP POP PUSH1 0x40 MLOAD RETURNDATASIZE PUSH1 0x1F NOT PUSH1 0x1F DUP3 ADD AND DUP3 ADD DUP1 PUSH1 0x40 MSTORE POP DUP2 ADD SWAP1 PUSH2 0x1E75 SWAP2 SWAP1 PUSH2 0x40CC JUMP JUMPDEST PUSH2 0x1E7F SWAP2 SWAP1 PUSH2 0x4F42 JUMP JUMPDEST GT ISZERO PUSH2 0x1EC0 JUMPI PUSH1 0x40 MLOAD PUSH32 0x8C379A000000000000000000000000000000000000000000000000000000000 DUP2 MSTORE PUSH1 0x4 ADD PUSH2 0x1EB7 SWAP1 PUSH2 0x4B11 JUMP JUMPDEST PUSH1 0x40 MLOAD DUP1 SWAP2 SUB SWAP1 REVERT JUMPDEST DUP1 PUSH2 0x1ED6 PUSH2 0x1ECF PUSH1 0x6 SLOAD PUSH2 0x28C4 JUMP JUMPDEST PUSH1 0x12 PUSH2 0x29D6 JUMP JUMPDEST PUSH2 0x1EE0 SWAP2 SWAP1 PUSH2 0x52BB JUMP JUMPDEST CALLVALUE LT ISZERO PUSH2 0x1F22 JUMPI PUSH1 0x40 MLOAD PUSH32 0x8C379A000000000000000000000000000000000000000000000000000000000 DUP2 MSTORE PUSH1 0x4 ADD PUSH2 0x1F19 SWAP1 PUSH2 0x4C51 JUMP JUMPDEST PUSH1 0x40 MLOAD DUP1 SWAP2 SUB SWAP1 REVERT JUMPDEST PUSH1 0x10 SLOAD DUP2 ADDRESS PUSH20 0xFFFFFFFFFFFFFFFFFFFFFFFFFFFFFFFFFFFFFFFF AND PUSH3 0xFDD58E ADDRESS PUSH20 0xFFFFFFFFFFFFFFFFFFFFFFFFFFFFFFFFFFFFFFFF AND PUSH4 0x8DA5CB5B PUSH1 0x40 MLOAD DUP2 PUSH4 0xFFFFFFFF AND PUSH1 0xE0 SHL DUP2 MSTORE PUSH1 0x4 ADD PUSH1 0x20 PUSH1 0x40 MLOAD DUP1 DUP4 SUB DUP2 DUP7 DUP1 EXTCODESIZE ISZERO DUP1 ISZERO PUSH2 0x1F87 JUMPI PUSH1 0x0 DUP1 REVERT JUMPDEST POP GAS STATICCALL ISZERO DUP1 ISZERO PUSH2 0x1F9B JUMPI RETURNDATASIZE PUSH1 0x0 DUP1 RETURNDATACOPY RETURNDATASIZE PUSH1 0x0 REVERT JUMPDEST POP POP POP POP PUSH1 0x40 MLOAD RETURNDATASIZE PUSH1 0x1F NOT PUSH1 0x1F DUP3 ADD AND DUP3 ADD DUP1 PUSH1 0x40 MSTORE POP DUP2 ADD SWAP1 PUSH2 0x1FBF SWAP2 SWAP1 PUSH2 0x3C11 JUMP JUMPDEST PUSH1 0xA8 PUSH1 0x40 MLOAD DUP4 PUSH4 0xFFFFFFFF AND PUSH1 0xE0 SHL DUP2 MSTORE PUSH1 0x4 ADD PUSH2 0x1FDE SWAP3 SWAP2 SWAP1 PUSH2 0x4972 JUMP JUMPDEST PUSH1 0x20 PUSH1 0x40 MLOAD DUP1 DUP4 SUB DUP2 DUP7 DUP1 EXTCODESIZE ISZERO DUP1 ISZERO PUSH2 0x1FF6 JUMPI PUSH1 0x0 DUP1 REVERT JUMPDEST POP GAS STATICCALL ISZERO DUP1 ISZERO PUSH2 0x200A JUMPI RETURNDATASIZE PUSH1 0x0 DUP1 RETURNDATACOPY RETURNDATASIZE PUSH1 0x0 REVERT JUMPDEST POP POP POP POP PUSH1 0x40 MLOAD RETURNDATASIZE PUSH1 0x1F NOT PUSH1 0x1F DUP3 ADD AND DUP3 ADD DUP1 PUSH1 0x40 MSTORE POP DUP2 ADD SWAP1 PUSH2 0x202E SWAP2 SWAP1 PUSH2 0x40CC JUMP JUMPDEST PUSH2 0x2038 SWAP2 SWAP1 PUSH2 0x5315 JUMP JUMPDEST LT ISZERO PUSH2 0x2079 JUMPI PUSH1 0x40 MLOAD PUSH32 0x8C379A000000000000000000000000000000000000000000000000000000000 DUP2 MSTORE PUSH1 0x4 ADD PUSH2 0x2070 SWAP1 PUSH2 0x4A71 JUMP JUMPDEST PUSH1 0x40 MLOAD DUP1 SWAP2 SUB SWAP1 REVERT JUMPDEST PUSH2 0x2113 ADDRESS PUSH20 0xFFFFFFFFFFFFFFFFFFFFFFFFFFFFFFFFFFFFFFFF AND PUSH4 0x8DA5CB5B PUSH1 0x40 MLOAD DUP2 PUSH4 0xFFFFFFFF AND PUSH1 0xE0 SHL DUP2 MSTORE PUSH1 0x4 ADD PUSH1 0x20 PUSH1 0x40 MLOAD DUP1 DUP4 SUB DUP2 DUP7 DUP1 EXTCODESIZE ISZERO DUP1 ISZERO PUSH2 0x20C2 JUMPI PUSH1 0x0 DUP1 REVERT JUMPDEST POP GAS STATICCALL ISZERO DUP1 ISZERO PUSH2 0x20D6 JUMPI RETURNDATASIZE PUSH1 0x0 DUP1 RETURNDATACOPY RETURNDATASIZE PUSH1 0x0 REVERT JUMPDEST POP POP POP POP PUSH1 0x40 MLOAD RETURNDATASIZE PUSH1 0x1F NOT PUSH1 0x1F DUP3 ADD AND DUP3 ADD DUP1 PUSH1 0x40 MSTORE POP DUP2 ADD SWAP1 PUSH2 0x20FA SWAP2 SWAP1 PUSH2 0x3C11 JUMP JUMPDEST CALLER PUSH1 0xA8 DUP5 PUSH1 0x40 MLOAD DUP1 PUSH1 0x20 ADD PUSH1 0x40 MSTORE DUP1 PUSH1 0x0 DUP2 MSTORE POP PUSH2 0x2EEC JUMP JUMPDEST PUSH2 0x2128 DUP2 PUSH1 0xB SLOAD PUSH2 0x2C7A SWAP1 SWAP2 SWAP1 PUSH4 0xFFFFFFFF AND JUMP JUMPDEST PUSH1 0xB DUP2 SWAP1 SSTORE POP PUSH1 0x1 PUSH1 0x4 DUP2 SWAP1 SSTORE POP POP JUMP JUMPDEST PUSH1 0x0 PUSH1 0x6 SLOAD SWAP1 POP SWAP1 JUMP JUMPDEST PUSH1 0x0 PUSH1 0xB SLOAD SWAP1 POP SWAP1 JUMP JUMPDEST PUSH1 0x0 PUSH1 0xC SLOAD SWAP1 POP SWAP1 JUMP JUMPDEST PUSH1 0x0 PUSH1 0x1 PUSH1 0x0 DUP5 PUSH20 0xFFFFFFFFFFFFFFFFFFFFFFFFFFFFFFFFFFFFFFFF AND PUSH20 0xFFFFFFFFFFFFFFFFFFFFFFFFFFFFFFFFFFFFFFFF AND DUP2 MSTORE PUSH1 0x20 ADD SWAP1 DUP2 MSTORE PUSH1 0x20 ADD PUSH1 0x0 KECCAK256 PUSH1 0x0 DUP4 PUSH20 0xFFFFFFFFFFFFFFFFFFFFFFFFFFFFFFFFFFFFFFFF AND PUSH20 0xFFFFFFFFFFFFFFFFFFFFFFFFFFFFFFFFFFFFFFFF AND DUP2 MSTORE PUSH1 0x20 ADD SWAP1 DUP2 MSTORE PUSH1 0x20 ADD PUSH1 0x0 KECCAK256 PUSH1 0x0 SWAP1 SLOAD SWAP1 PUSH2 0x100 EXP SWAP1 DIV PUSH1 0xFF AND SWAP1 POP SWAP3 SWAP2 POP POP JUMP JUMPDEST PUSH1 0x0 PUSH2 0x2202 PUSH2 0x21FB PUSH1 0x6 SLOAD PUSH2 0x28C4 JUMP JUMPDEST PUSH1 0x12 PUSH2 0x29D6 JUMP JUMPDEST SWAP1 POP SWAP1 JUMP JUMPDEST PUSH2 0x220F PUSH2 0x25A8 JUMP JUMPDEST PUSH20 0xFFFFFFFFFFFFFFFFFFFFFFFFFFFFFFFFFFFFFFFF AND DUP6 PUSH20 0xFFFFFFFFFFFFFFFFFFFFFFFFFFFFFFFFFFFFFFFF AND EQ DUP1 PUSH2 0x2255 JUMPI POP PUSH2 0x2254 DUP6 PUSH2 0x224F PUSH2 0x25A8 JUMP JUMPDEST PUSH2 0x2157 JUMP JUMPDEST JUMPDEST PUSH2 0x2294 JUMPI PUSH1 0x40 MLOAD PUSH32 0x8C379A000000000000000000000000000000000000000000000000000000000 DUP2 MSTORE PUSH1 0x4 ADD PUSH2 0x228B SWAP1 PUSH2 0x4B31 JUMP JUMPDEST PUSH1 0x40 MLOAD DUP1 SWAP2 SUB SWAP1 REVERT JUMPDEST PUSH2 0x22A1 DUP6 DUP6 DUP6 DUP6 DUP6 PUSH2 0x2EEC JUMP JUMPDEST POP POP POP POP POP JUMP JUMPDEST PUSH2 0x22B0 PUSH2 0x25A8 JUMP JUMPDEST PUSH20 0xFFFFFFFFFFFFFFFFFFFFFFFFFFFFFFFFFFFFFFFF AND PUSH2 0x22CE PUSH2 0x19E0 JUMP JUMPDEST PUSH20 0xFFFFFFFFFFFFFFFFFFFFFFFFFFFFFFFFFFFFFFFF AND EQ PUSH2 0x2324 JUMPI PUSH1 0x40 MLOAD PUSH32 0x8C379A000000000000000000000000000000000000000000000000000000000 DUP2 MSTORE PUSH1 0x4 ADD PUSH2 0x231B SWAP1 PUSH2 0x4C71 JUMP JUMPDEST PUSH1 0x40 MLOAD DUP1 SWAP2 SUB SWAP1 REVERT JUMPDEST PUSH1 0x0 PUSH20 0xFFFFFFFFFFFFFFFFFFFFFFFFFFFFFFFFFFFFFFFF AND DUP2 PUSH20 0xFFFFFFFFFFFFFFFFFFFFFFFFFFFFFFFFFFFFFFFF AND EQ ISZERO PUSH2 0x2394 JUMPI PUSH1 0x40 MLOAD PUSH32 0x8C379A000000000000000000000000000000000000000000000000000000000 DUP2 MSTORE PUSH1 0x4 ADD PUSH2 0x238B SWAP1 PUSH2 0x4AD1 JUMP JUMPDEST PUSH1 0x40 MLOAD DUP1 SWAP2 SUB SWAP1 REVERT JUMPDEST PUSH2 0x239D DUP2 PUSH2 0x2E26 JUMP JUMPDEST POP JUMP JUMPDEST PUSH1 0x7 SLOAD DUP2 JUMP JUMPDEST PUSH1 0x0 PUSH32 0x1FFC9A700000000000000000000000000000000000000000000000000000000 PUSH28 0xFFFFFFFFFFFFFFFFFFFFFFFFFFFFFFFFFFFFFFFFFFFFFFFFFFFFFFFF NOT AND DUP3 PUSH28 0xFFFFFFFFFFFFFFFFFFFFFFFFFFFFFFFFFFFFFFFFFFFFFFFFFFFFFFFF NOT AND EQ SWAP1 POP SWAP2 SWAP1 POP JUMP JUMPDEST PUSH1 0x60 PUSH1 0x0 DUP3 MLOAD SWAP1 POP PUSH1 0x0 DUP2 EQ ISZERO PUSH2 0x2439 JUMPI PUSH1 0x40 MLOAD DUP1 PUSH1 0x20 ADD PUSH1 0x40 MSTORE DUP1 PUSH1 0x0 DUP2 MSTORE POP SWAP2 POP POP PUSH2 0x25A3 JUMP JUMPDEST PUSH1 0x0 PUSH1 0x3 PUSH1 0x2 DUP4 PUSH2 0x244A SWAP2 SWAP1 PUSH2 0x4F42 JUMP JUMPDEST PUSH2 0x2454 SWAP2 SWAP1 PUSH2 0x5002 JUMP JUMPDEST PUSH1 0x4 PUSH2 0x2460 SWAP2 SWAP1 PUSH2 0x52BB JUMP JUMPDEST SWAP1 POP PUSH1 0x0 PUSH1 0x20 DUP3 PUSH2 0x2471 SWAP2 SWAP1 PUSH2 0x4F42 JUMP JUMPDEST PUSH8 0xFFFFFFFFFFFFFFFF DUP2 GT ISZERO PUSH2 0x248A JUMPI PUSH2 0x2489 PUSH2 0x55C8 JUMP JUMPDEST JUMPDEST PUSH1 0x40 MLOAD SWAP1 DUP1 DUP3 MSTORE DUP1 PUSH1 0x1F ADD PUSH1 0x1F NOT AND PUSH1 0x20 ADD DUP3 ADD PUSH1 0x40 MSTORE DUP1 ISZERO PUSH2 0x24BC JUMPI DUP2 PUSH1 0x20 ADD PUSH1 0x1 DUP3 MUL DUP1 CALLDATASIZE DUP4 CALLDATACOPY DUP1 DUP3 ADD SWAP2 POP POP SWAP1 POP JUMPDEST POP SWAP1 POP PUSH1 0x0 PUSH1 0x40 MLOAD DUP1 PUSH1 0x60 ADD PUSH1 0x40 MSTORE DUP1 PUSH1 0x40 DUP2 MSTORE PUSH1 0x20 ADD PUSH2 0x5F78 PUSH1 0x40 SWAP2 CODECOPY SWAP1 POP PUSH1 0x1 DUP2 ADD PUSH1 0x20 DUP4 ADD PUSH1 0x0 JUMPDEST DUP7 DUP2 LT ISZERO PUSH2 0x2560 JUMPI PUSH1 0x3 DUP2 ADD SWAP1 POP PUSH3 0xFFFFFF DUP2 DUP11 ADD MLOAD AND PUSH1 0x3F DUP2 PUSH1 0x12 SHR AND DUP5 ADD MLOAD DUP1 PUSH1 0x8 SHL SWAP1 POP PUSH1 0xFF PUSH1 0x3F DUP4 PUSH1 0xC SHR AND DUP7 ADD MLOAD AND DUP2 ADD SWAP1 POP DUP1 PUSH1 0x8 SHL SWAP1 POP PUSH1 0xFF PUSH1 0x3F DUP4 PUSH1 0x6 SHR AND DUP7 ADD MLOAD AND DUP2 ADD SWAP1 POP DUP1 PUSH1 0x8 SHL SWAP1 POP PUSH1 0xFF PUSH1 0x3F DUP4 AND DUP7 ADD MLOAD AND DUP2 ADD SWAP1 POP DUP1 PUSH1 0xE0 SHL SWAP1 POP DUP1 DUP5 MSTORE PUSH1 0x4 DUP5 ADD SWAP4 POP POP POP PUSH2 0x24E7 JUMP JUMPDEST POP PUSH1 0x3 DUP7 MOD PUSH1 0x1 DUP2 EQ PUSH2 0x257A JUMPI PUSH1 0x2 DUP2 EQ PUSH2 0x258A JUMPI PUSH2 0x2595 JUMP JUMPDEST PUSH2 0x3D3D PUSH1 0xF0 SHL PUSH1 0x2 DUP4 SUB MSTORE PUSH2 0x2595 JUMP JUMPDEST PUSH1 0x3D PUSH1 0xF8 SHL PUSH1 0x1 DUP4 SUB MSTORE JUMPDEST POP DUP5 DUP5 MSTORE POP POP DUP2 SWAP5 POP POP POP POP POP JUMPDEST SWAP2 SWAP1 POP JUMP JUMPDEST PUSH1 0x0 CALLER SWAP1 POP SWAP1 JUMP JUMPDEST DUP2 MLOAD DUP4 MLOAD EQ PUSH2 0x25F4 JUMPI PUSH1 0x40 MLOAD PUSH32 0x8C379A000000000000000000000000000000000000000000000000000000000 DUP2 MSTORE PUSH1 0x4 ADD PUSH2 0x25EB SWAP1 PUSH2 0x4CD1 JUMP JUMPDEST PUSH1 0x40 MLOAD DUP1 SWAP2 SUB SWAP1 REVERT JUMPDEST PUSH1 0x0 PUSH20 0xFFFFFFFFFFFFFFFFFFFFFFFFFFFFFFFFFFFFFFFF AND DUP5 PUSH20 0xFFFFFFFFFFFFFFFFFFFFFFFFFFFFFFFFFFFFFFFF AND EQ ISZERO PUSH2 0x2664 JUMPI PUSH1 0x40 MLOAD PUSH32 0x8C379A000000000000000000000000000000000000000000000000000000000 DUP2 MSTORE PUSH1 0x4 ADD PUSH2 0x265B SWAP1 PUSH2 0x4BB1 JUMP JUMPDEST PUSH1 0x40 MLOAD DUP1 SWAP2 SUB SWAP1 REVERT JUMPDEST PUSH1 0x0 PUSH2 0x266E PUSH2 0x25A8 JUMP JUMPDEST SWAP1 POP PUSH2 0x267E DUP2 DUP8 DUP8 DUP8 DUP8 DUP8 PUSH2 0x32DB JUMP JUMPDEST PUSH1 0x0 JUMPDEST DUP5 MLOAD DUP2 LT ISZERO PUSH2 0x282F JUMPI PUSH1 0x0 DUP6 DUP3 DUP2 MLOAD DUP2 LT PUSH2 0x269F JUMPI PUSH2 0x269E PUSH2 0x5599 JUMP JUMPDEST JUMPDEST PUSH1 0x20 MUL PUSH1 0x20 ADD ADD MLOAD SWAP1 POP PUSH1 0x0 DUP6 DUP4 DUP2 MLOAD DUP2 LT PUSH2 0x26BE JUMPI PUSH2 0x26BD PUSH2 0x5599 JUMP JUMPDEST JUMPDEST PUSH1 0x20 MUL PUSH1 0x20 ADD ADD MLOAD SWAP1 POP PUSH1 0x0 DUP1 PUSH1 0x0 DUP5 DUP2 MSTORE PUSH1 0x20 ADD SWAP1 DUP2 MSTORE PUSH1 0x20 ADD PUSH1 0x0 KECCAK256 PUSH1 0x0 DUP12 PUSH20 0xFFFFFFFFFFFFFFFFFFFFFFFFFFFFFFFFFFFFFFFF AND PUSH20 0xFFFFFFFFFFFFFFFFFFFFFFFFFFFFFFFFFFFFFFFF AND DUP2 MSTORE PUSH1 0x20 ADD SWAP1 DUP2 MSTORE PUSH1 0x20 ADD PUSH1 0x0 KECCAK256 SLOAD SWAP1 POP DUP2 DUP2 LT ISZERO PUSH2 0x275F JUMPI PUSH1 0x40 MLOAD PUSH32 0x8C379A000000000000000000000000000000000000000000000000000000000 DUP2 MSTORE PUSH1 0x4 ADD PUSH2 0x2756 SWAP1 PUSH2 0x4C31 JUMP JUMPDEST PUSH1 0x40 MLOAD DUP1 SWAP2 SUB SWAP1 REVERT JUMPDEST DUP2 DUP2 SUB PUSH1 0x0 DUP1 DUP6 DUP2 MSTORE PUSH1 0x20 ADD SWAP1 DUP2 MSTORE PUSH1 0x20 ADD PUSH1 0x0 KECCAK256 PUSH1 0x0 DUP13 PUSH20 0xFFFFFFFFFFFFFFFFFFFFFFFFFFFFFFFFFFFFFFFF AND PUSH20 0xFFFFFFFFFFFFFFFFFFFFFFFFFFFFFFFFFFFFFFFF AND DUP2 MSTORE PUSH1 0x20 ADD SWAP1 DUP2 MSTORE PUSH1 0x20 ADD PUSH1 0x0 KECCAK256 DUP2 SWAP1 SSTORE POP DUP2 PUSH1 0x0 DUP1 DUP6 DUP2 MSTORE PUSH1 0x20 ADD SWAP1 DUP2 MSTORE PUSH1 0x20 ADD PUSH1 0x0 KECCAK256 PUSH1 0x0 DUP12 PUSH20 0xFFFFFFFFFFFFFFFFFFFFFFFFFFFFFFFFFFFFFFFF AND PUSH20 0xFFFFFFFFFFFFFFFFFFFFFFFFFFFFFFFFFFFFFFFF AND DUP2 MSTORE PUSH1 0x20 ADD SWAP1 DUP2 MSTORE PUSH1 0x20 ADD PUSH1 0x0 KECCAK256 PUSH1 0x0 DUP3 DUP3 SLOAD PUSH2 0x2814 SWAP2 SWAP1 PUSH2 0x4F42 JUMP JUMPDEST SWAP3 POP POP DUP2 SWAP1 SSTORE POP POP POP POP DUP1 PUSH2 0x2828 SWAP1 PUSH2 0x54C3 JUMP JUMPDEST SWAP1 POP PUSH2 0x2681 JUMP JUMPDEST POP DUP5 PUSH20 0xFFFFFFFFFFFFFFFFFFFFFFFFFFFFFFFFFFFFFFFF AND DUP7 PUSH20 0xFFFFFFFFFFFFFFFFFFFFFFFFFFFFFFFFFFFFFFFF AND DUP3 PUSH20 0xFFFFFFFFFFFFFFFFFFFFFFFFFFFFFFFFFFFFFFFF AND PUSH32 0x4A39DC06D4C0DBC64B70AF90FD698A233A518AA5D07E595D983B8C0526C8F7FB DUP8 DUP8 PUSH1 0x40 MLOAD PUSH2 0x28A6 SWAP3 SWAP2 SWAP1 PUSH2 0x49BD JUMP JUMPDEST PUSH1 0x40 MLOAD DUP1 SWAP2 SUB SWAP1 LOG4 PUSH2 0x28BC DUP2 DUP8 DUP8 DUP8 DUP8 DUP8 PUSH2 0x32E3 JUMP JUMPDEST POP POP POP POP POP POP JUMP JUMPDEST PUSH1 0x0 DUP1 PUSH1 0x9 PUSH1 0x0 SWAP1 SLOAD SWAP1 PUSH2 0x100 EXP SWAP1 DIV PUSH20 0xFFFFFFFFFFFFFFFFFFFFFFFFFFFFFFFFFFFFFFFF AND SWAP1 POP PUSH1 0x0 DUP2 PUSH20 0xFFFFFFFFFFFFFFFFFFFFFFFFFFFFFFFFFFFFFFFF AND PUSH4 0x70A08231 CALLER PUSH1 0x40 MLOAD DUP3 PUSH4 0xFFFFFFFF AND PUSH1 0xE0 SHL DUP2 MSTORE PUSH1 0x4 ADD PUSH2 0x2927 SWAP2 SWAP1 PUSH2 0x4895 JUMP JUMPDEST PUSH1 0x20 PUSH1 0x40 MLOAD DUP1 DUP4 SUB DUP2 DUP7 DUP1 EXTCODESIZE ISZERO DUP1 ISZERO PUSH2 0x293F JUMPI PUSH1 0x0 DUP1 REVERT JUMPDEST POP GAS STATICCALL ISZERO DUP1 ISZERO PUSH2 0x2953 JUMPI RETURNDATASIZE PUSH1 0x0 DUP1 RETURNDATACOPY RETURNDATASIZE PUSH1 0x0 REVERT JUMPDEST POP POP POP POP PUSH1 0x40 MLOAD RETURNDATASIZE PUSH1 0x1F NOT PUSH1 0x1F DUP3 ADD AND DUP3 ADD DUP1 PUSH1 0x40 MSTORE POP DUP2 ADD SWAP1 PUSH2 0x2977 SWAP2 SWAP1 PUSH2 0x40CC JUMP JUMPDEST SWAP1 POP PUSH1 0x0 DUP1 PUSH1 0x46 SWAP1 POP PUSH1 0x0 PUSH1 0x55 SWAP1 POP PUSH1 0x0 DUP5 GT ISZERO PUSH2 0x29AE JUMPI PUSH1 0x64 DUP3 DUP9 PUSH2 0x299D SWAP2 SWAP1 PUSH2 0x52BB JUMP JUMPDEST PUSH2 0x29A7 SWAP2 SWAP1 PUSH2 0x5002 JUMP JUMPDEST SWAP3 POP PUSH2 0x29C9 JUMP JUMPDEST PUSH1 0x64 DUP2 DUP9 PUSH2 0x29BC SWAP2 SWAP1 PUSH2 0x52BB JUMP JUMPDEST PUSH2 0x29C6 SWAP2 SWAP1 PUSH2 0x5002 JUMP JUMPDEST SWAP3 POP JUMPDEST DUP3 SWAP6 POP POP POP POP POP POP SWAP2 SWAP1 POP JUMP JUMPDEST PUSH1 0x0 DUP1 PUSH1 0xFF AND DUP3 PUSH1 0xFF AND GT DUP1 ISZERO PUSH2 0x29F4 JUMPI POP PUSH1 0x12 PUSH1 0xFF AND DUP3 PUSH1 0xFF AND GT ISZERO JUMPDEST PUSH2 0x2A33 JUMPI PUSH1 0x40 MLOAD PUSH32 0x8C379A000000000000000000000000000000000000000000000000000000000 DUP2 MSTORE PUSH1 0x4 ADD PUSH2 0x2A2A SWAP1 PUSH2 0x4B91 JUMP JUMPDEST PUSH1 0x40 MLOAD DUP1 SWAP2 SUB SWAP1 REVERT JUMPDEST PUSH1 0x0 DUP3 PUSH1 0xFF AND PUSH1 0xA PUSH2 0x2A45 SWAP2 SWAP1 PUSH2 0x5086 JUMP JUMPDEST SWAP1 POP PUSH1 0x0 DUP5 SWAP1 POP PUSH1 0x0 PUSH1 0x8 PUSH1 0x0 SWAP1 SLOAD SWAP1 PUSH2 0x100 EXP SWAP1 DIV PUSH20 0xFFFFFFFFFFFFFFFFFFFFFFFFFFFFFFFFFFFFFFFF AND PUSH20 0xFFFFFFFFFFFFFFFFFFFFFFFFFFFFFFFFFFFFFFFF AND PUSH4 0x313CE567 PUSH1 0x40 MLOAD DUP2 PUSH4 0xFFFFFFFF AND PUSH1 0xE0 SHL DUP2 MSTORE PUSH1 0x4 ADD PUSH1 0x20 PUSH1 0x40 MLOAD DUP1 DUP4 SUB DUP2 DUP7 DUP1 EXTCODESIZE ISZERO DUP1 ISZERO PUSH2 0x2AB6 JUMPI PUSH1 0x0 DUP1 REVERT JUMPDEST POP GAS STATICCALL ISZERO DUP1 ISZERO PUSH2 0x2ACA JUMPI RETURNDATASIZE PUSH1 0x0 DUP1 RETURNDATACOPY RETURNDATASIZE PUSH1 0x0 REVERT JUMPDEST POP POP POP POP PUSH1 0x40 MLOAD RETURNDATASIZE PUSH1 0x1F NOT PUSH1 0x1F DUP3 ADD AND DUP3 ADD DUP1 PUSH1 0x40 MSTORE POP DUP2 ADD SWAP1 PUSH2 0x2AEE SWAP2 SWAP1 PUSH2 0x4174 JUMP JUMPDEST SWAP1 POP PUSH2 0x2AFB DUP3 DUP3 DUP8 PUSH2 0x34CA JUMP JUMPDEST SWAP2 POP PUSH1 0x0 PUSH1 0x8 PUSH1 0x0 SWAP1 SLOAD SWAP1 PUSH2 0x100 EXP SWAP1 DIV PUSH20 0xFFFFFFFFFFFFFFFFFFFFFFFFFFFFFFFFFFFFFFFF AND PUSH20 0xFFFFFFFFFFFFFFFFFFFFFFFFFFFFFFFFFFFFFFFF AND PUSH4 0xFEAF968C PUSH1 0x40 MLOAD DUP2 PUSH4 0xFFFFFFFF AND PUSH1 0xE0 SHL DUP2 MSTORE PUSH1 0x4 ADD PUSH1 0xA0 PUSH1 0x40 MLOAD DUP1 DUP4 SUB DUP2 DUP7 DUP1 EXTCODESIZE ISZERO DUP1 ISZERO PUSH2 0x2B67 JUMPI PUSH1 0x0 DUP1 REVERT JUMPDEST POP GAS STATICCALL ISZERO DUP1 ISZERO PUSH2 0x2B7B JUMPI RETURNDATASIZE PUSH1 0x0 DUP1 RETURNDATACOPY RETURNDATASIZE PUSH1 0x0 REVERT JUMPDEST POP POP POP POP PUSH1 0x40 MLOAD RETURNDATASIZE PUSH1 0x1F NOT PUSH1 0x1F DUP3 ADD AND DUP3 ADD DUP1 PUSH1 0x40 MSTORE POP DUP2 ADD SWAP1 PUSH2 0x2B9F SWAP2 SWAP1 PUSH2 0x40F9 JUMP JUMPDEST POP POP POP SWAP2 POP POP PUSH1 0x0 PUSH1 0x8 PUSH1 0x0 SWAP1 SLOAD SWAP1 PUSH2 0x100 EXP SWAP1 DIV PUSH20 0xFFFFFFFFFFFFFFFFFFFFFFFFFFFFFFFFFFFFFFFF AND PUSH20 0xFFFFFFFFFFFFFFFFFFFFFFFFFFFFFFFFFFFFFFFF AND PUSH4 0x313CE567 PUSH1 0x40 MLOAD DUP2 PUSH4 0xFFFFFFFF AND PUSH1 0xE0 SHL DUP2 MSTORE PUSH1 0x4 ADD PUSH1 0x20 PUSH1 0x40 MLOAD DUP1 DUP4 SUB DUP2 DUP7 DUP1 EXTCODESIZE ISZERO DUP1 ISZERO PUSH2 0x2C0F JUMPI PUSH1 0x0 DUP1 REVERT JUMPDEST POP GAS STATICCALL ISZERO DUP1 ISZERO PUSH2 0x2C23 JUMPI RETURNDATASIZE PUSH1 0x0 DUP1 RETURNDATACOPY RETURNDATASIZE PUSH1 0x0 REVERT JUMPDEST POP POP POP POP PUSH1 0x40 MLOAD RETURNDATASIZE PUSH1 0x1F NOT PUSH1 0x1F DUP3 ADD AND DUP3 ADD DUP1 PUSH1 0x40 MSTORE POP DUP2 ADD SWAP1 PUSH2 0x2C47 SWAP2 SWAP1 PUSH2 0x4174 JUMP JUMPDEST SWAP1 POP PUSH2 0x2C54 DUP3 DUP3 DUP10 PUSH2 0x34CA JUMP JUMPDEST SWAP2 POP DUP2 DUP6 DUP6 PUSH2 0x2C63 SWAP2 SWAP1 PUSH2 0x51A4 JUMP JUMPDEST PUSH2 0x2C6D SWAP2 SWAP1 PUSH2 0x4F98 JUMP JUMPDEST SWAP6 POP POP POP POP POP POP SWAP3 SWAP2 POP POP JUMP JUMPDEST PUSH1 0x0 DUP2 DUP4 PUSH2 0x2C88 SWAP2 SWAP1 PUSH2 0x4F42 JUMP JUMPDEST SWAP1 POP SWAP3 SWAP2 POP POP JUMP JUMPDEST PUSH1 0x0 PUSH20 0xFFFFFFFFFFFFFFFFFFFFFFFFFFFFFFFFFFFFFFFF AND DUP5 PUSH20 0xFFFFFFFFFFFFFFFFFFFFFFFFFFFFFFFFFFFFFFFF AND EQ ISZERO PUSH2 0x2D00 JUMPI PUSH1 0x40 MLOAD PUSH32 0x8C379A000000000000000000000000000000000000000000000000000000000 DUP2 MSTORE PUSH1 0x4 ADD PUSH2 0x2CF7 SWAP1 PUSH2 0x4CF1 JUMP JUMPDEST PUSH1 0x40 MLOAD DUP1 SWAP2 SUB SWAP1 REVERT JUMPDEST PUSH1 0x0 PUSH2 0x2D0A PUSH2 0x25A8 JUMP JUMPDEST SWAP1 POP PUSH2 0x2D2B DUP2 PUSH1 0x0 DUP8 PUSH2 0x2D1C DUP9 PUSH2 0x354D JUMP JUMPDEST PUSH2 0x2D25 DUP9 PUSH2 0x354D JUMP JUMPDEST DUP8 PUSH2 0x32DB JUMP JUMPDEST DUP3 PUSH1 0x0 DUP1 DUP7 DUP2 MSTORE PUSH1 0x20 ADD SWAP1 DUP2 MSTORE PUSH1 0x20 ADD PUSH1 0x0 KECCAK256 PUSH1 0x0 DUP8 PUSH20 0xFFFFFFFFFFFFFFFFFFFFFFFFFFFFFFFFFFFFFFFF AND PUSH20 0xFFFFFFFFFFFFFFFFFFFFFFFFFFFFFFFFFFFFFFFF AND DUP2 MSTORE PUSH1 0x20 ADD SWAP1 DUP2 MSTORE PUSH1 0x20 ADD PUSH1 0x0 KECCAK256 PUSH1 0x0 DUP3 DUP3 SLOAD PUSH2 0x2D8A SWAP2 SWAP1 PUSH2 0x4F42 JUMP JUMPDEST SWAP3 POP POP DUP2 SWAP1 SSTORE POP DUP5 PUSH20 0xFFFFFFFFFFFFFFFFFFFFFFFFFFFFFFFFFFFFFFFF AND PUSH1 0x0 PUSH20 0xFFFFFFFFFFFFFFFFFFFFFFFFFFFFFFFFFFFFFFFF AND DUP3 PUSH20 0xFFFFFFFFFFFFFFFFFFFFFFFFFFFFFFFFFFFFFFFF AND PUSH32 0xC3D58168C5AE7397731D063D5BBF3D657854427343F4C083240F7AACAA2D0F62 DUP8 DUP8 PUSH1 0x40 MLOAD PUSH2 0x2E08 SWAP3 SWAP2 SWAP1 PUSH2 0x4D6C JUMP JUMPDEST PUSH1 0x40 MLOAD DUP1 SWAP2 SUB SWAP1 LOG4 PUSH2 0x2E1F DUP2 PUSH1 0x0 DUP8 DUP8 DUP8 DUP8 PUSH2 0x35C7 JUMP JUMPDEST POP POP POP POP POP JUMP JUMPDEST PUSH1 0x0 PUSH1 0x3 PUSH1 0x0 SWAP1 SLOAD SWAP1 PUSH2 0x100 EXP SWAP1 DIV PUSH20 0xFFFFFFFFFFFFFFFFFFFFFFFFFFFFFFFFFFFFFFFF AND SWAP1 POP DUP2 PUSH1 0x3 PUSH1 0x0 PUSH2 0x100 EXP DUP2 SLOAD DUP2 PUSH20 0xFFFFFFFFFFFFFFFFFFFFFFFFFFFFFFFFFFFFFFFF MUL NOT AND SWAP1 DUP4 PUSH20 0xFFFFFFFFFFFFFFFFFFFFFFFFFFFFFFFFFFFFFFFF AND MUL OR SWAP1 SSTORE POP DUP2 PUSH20 0xFFFFFFFFFFFFFFFFFFFFFFFFFFFFFFFFFFFFFFFF AND DUP2 PUSH20 0xFFFFFFFFFFFFFFFFFFFFFFFFFFFFFFFFFFFFFFFF AND PUSH32 0x8BE0079C531659141344CD1FD0A4F28419497F9722A3DAAFE3B4186F6B6457E0 PUSH1 0x40 MLOAD PUSH1 0x40 MLOAD DUP1 SWAP2 SUB SWAP1 LOG3 POP POP JUMP JUMPDEST PUSH1 0x0 PUSH20 0xFFFFFFFFFFFFFFFFFFFFFFFFFFFFFFFFFFFFFFFF AND DUP5 PUSH20 0xFFFFFFFFFFFFFFFFFFFFFFFFFFFFFFFFFFFFFFFF AND EQ ISZERO PUSH2 0x2F5C JUMPI PUSH1 0x40 MLOAD PUSH32 0x8C379A000000000000000000000000000000000000000000000000000000000 DUP2 MSTORE PUSH1 0x4 ADD PUSH2 0x2F53 SWAP1 PUSH2 0x4BB1 JUMP JUMPDEST PUSH1 0x40 MLOAD DUP1 SWAP2 SUB SWAP1 REVERT JUMPDEST PUSH1 0x0 PUSH2 0x2F66 PUSH2 0x25A8 JUMP JUMPDEST SWAP1 POP PUSH2 0x2F86 DUP2 DUP8 DUP8 PUSH2 0x2F77 DUP9 PUSH2 0x354D JUMP JUMPDEST PUSH2 0x2F80 DUP9 PUSH2 0x354D JUMP JUMPDEST DUP8 PUSH2 0x32DB JUMP JUMPDEST PUSH1 0x0 DUP1 PUSH1 0x0 DUP7 DUP2 MSTORE PUSH1 0x20 ADD SWAP1 DUP2 MSTORE PUSH1 0x20 ADD PUSH1 0x0 KECCAK256 PUSH1 0x0 DUP9 PUSH20 0xFFFFFFFFFFFFFFFFFFFFFFFFFFFFFFFFFFFFFFFF AND PUSH20 0xFFFFFFFFFFFFFFFFFFFFFFFFFFFFFFFFFFFFFFFF AND DUP2 MSTORE PUSH1 0x20 ADD SWAP1 DUP2 MSTORE PUSH1 0x20 ADD PUSH1 0x0 KECCAK256 SLOAD SWAP1 POP DUP4 DUP2 LT ISZERO PUSH2 0x301D JUMPI PUSH1 0x40 MLOAD PUSH32 0x8C379A000000000000000000000000000000000000000000000000000000000 DUP2 MSTORE PUSH1 0x4 ADD PUSH2 0x3014 SWAP1 PUSH2 0x4C31 JUMP JUMPDEST PUSH1 0x40 MLOAD DUP1 SWAP2 SUB SWAP1 REVERT JUMPDEST DUP4 DUP2 SUB PUSH1 0x0 DUP1 DUP8 DUP2 MSTORE PUSH1 0x20 ADD SWAP1 DUP2 MSTORE PUSH1 0x20 ADD PUSH1 0x0 KECCAK256 PUSH1 0x0 DUP10 PUSH20 0xFFFFFFFFFFFFFFFFFFFFFFFFFFFFFFFFFFFFFFFF AND PUSH20 0xFFFFFFFFFFFFFFFFFFFFFFFFFFFFFFFFFFFFFFFF AND DUP2 MSTORE PUSH1 0x20 ADD SWAP1 DUP2 MSTORE PUSH1 0x20 ADD PUSH1 0x0 KECCAK256 DUP2 SWAP1 SSTORE POP DUP4 PUSH1 0x0 DUP1 DUP8 DUP2 MSTORE PUSH1 0x20 ADD SWAP1 DUP2 MSTORE PUSH1 0x20 ADD PUSH1 0x0 KECCAK256 PUSH1 0x0 DUP9 PUSH20 0xFFFFFFFFFFFFFFFFFFFFFFFFFFFFFFFFFFFFFFFF AND PUSH20 0xFFFFFFFFFFFFFFFFFFFFFFFFFFFFFFFFFFFFFFFF AND DUP2 MSTORE PUSH1 0x20 ADD SWAP1 DUP2 MSTORE PUSH1 0x20 ADD PUSH1 0x0 KECCAK256 PUSH1 0x0 DUP3 DUP3 SLOAD PUSH2 0x30D2 SWAP2 SWAP1 PUSH2 0x4F42 JUMP JUMPDEST SWAP3 POP POP DUP2 SWAP1 SSTORE POP DUP6 PUSH20 0xFFFFFFFFFFFFFFFFFFFFFFFFFFFFFFFFFFFFFFFF AND DUP8 PUSH20 0xFFFFFFFFFFFFFFFFFFFFFFFFFFFFFFFFFFFFFFFF AND DUP4 PUSH20 0xFFFFFFFFFFFFFFFFFFFFFFFFFFFFFFFFFFFFFFFF AND PUSH32 0xC3D58168C5AE7397731D063D5BBF3D657854427343F4C083240F7AACAA2D0F62 DUP9 DUP9 PUSH1 0x40 MLOAD PUSH2 0x314F SWAP3 SWAP2 SWAP1 PUSH2 0x4D6C JUMP JUMPDEST PUSH1 0x40 MLOAD DUP1 SWAP2 SUB SWAP1 LOG4 PUSH2 0x3165 DUP3 DUP9 DUP9 DUP9 DUP9 DUP9 PUSH2 0x35C7 JUMP JUMPDEST POP POP POP POP POP POP POP JUMP JUMPDEST DUP2 PUSH20 0xFFFFFFFFFFFFFFFFFFFFFFFFFFFFFFFFFFFFFFFF AND DUP4 PUSH20 0xFFFFFFFFFFFFFFFFFFFFFFFFFFFFFFFFFFFFFFFF AND EQ ISZERO PUSH2 0x31DD JUMPI PUSH1 0x40 MLOAD PUSH32 0x8C379A000000000000000000000000000000000000000000000000000000000 DUP2 MSTORE PUSH1 0x4 ADD PUSH2 0x31D4 SWAP1 PUSH2 0x4C91 JUMP JUMPDEST PUSH1 0x40 MLOAD DUP1 SWAP2 SUB SWAP1 REVERT JUMPDEST DUP1 PUSH1 0x1 PUSH1 0x0 DUP6 PUSH20 0xFFFFFFFFFFFFFFFFFFFFFFFFFFFFFFFFFFFFFFFF AND PUSH20 0xFFFFFFFFFFFFFFFFFFFFFFFFFFFFFFFFFFFFFFFF AND DUP2 MSTORE PUSH1 0x20 ADD SWAP1 DUP2 MSTORE PUSH1 0x20 ADD PUSH1 0x0 KECCAK256 PUSH1 0x0 DUP5 PUSH20 0xFFFFFFFFFFFFFFFFFFFFFFFFFFFFFFFFFFFFFFFF AND PUSH20 0xFFFFFFFFFFFFFFFFFFFFFFFFFFFFFFFFFFFFFFFF AND DUP2 MSTORE PUSH1 0x20 ADD SWAP1 DUP2 MSTORE PUSH1 0x20 ADD PUSH1 0x0 KECCAK256 PUSH1 0x0 PUSH2 0x100 EXP DUP2 SLOAD DUP2 PUSH1 0xFF MUL NOT AND SWAP1 DUP4 ISZERO ISZERO MUL OR SWAP1 SSTORE POP DUP2 PUSH20 0xFFFFFFFFFFFFFFFFFFFFFFFFFFFFFFFFFFFFFFFF AND DUP4 PUSH20 0xFFFFFFFFFFFFFFFFFFFFFFFFFFFFFFFFFFFFFFFF AND PUSH32 0x17307EAB39AB6107E8899845AD3D59BD9653F200F220920489CA2B5937696C31 DUP4 PUSH1 0x40 MLOAD PUSH2 0x32CE SWAP2 SWAP1 PUSH2 0x49F4 JUMP JUMPDEST PUSH1 0x40 MLOAD DUP1 SWAP2 SUB SWAP1 LOG3 POP POP POP JUMP JUMPDEST POP POP POP POP POP POP JUMP JUMPDEST PUSH2 0x3302 DUP5 PUSH20 0xFFFFFFFFFFFFFFFFFFFFFFFFFFFFFFFFFFFFFFFF AND PUSH2 0x37AE JUMP JUMPDEST ISZERO PUSH2 0x34C2 JUMPI DUP4 PUSH20 0xFFFFFFFFFFFFFFFFFFFFFFFFFFFFFFFFFFFFFFFF AND PUSH4 0xBC197C81 DUP8 DUP8 DUP7 DUP7 DUP7 PUSH1 0x40 MLOAD DUP7 PUSH4 0xFFFFFFFF AND PUSH1 0xE0 SHL DUP2 MSTORE PUSH1 0x4 ADD PUSH2 0x3348 SWAP6 SWAP5 SWAP4 SWAP3 SWAP2 SWAP1 PUSH2 0x48B0 JUMP JUMPDEST PUSH1 0x20 PUSH1 0x40 MLOAD DUP1 DUP4 SUB DUP2 PUSH1 0x0 DUP8 DUP1 EXTCODESIZE ISZERO DUP1 ISZERO PUSH2 0x3362 JUMPI PUSH1 0x0 DUP1 REVERT JUMPDEST POP GAS CALL SWAP3 POP POP POP DUP1 ISZERO PUSH2 0x3393 JUMPI POP PUSH1 0x40 MLOAD RETURNDATASIZE PUSH1 0x1F NOT PUSH1 0x1F DUP3 ADD AND DUP3 ADD DUP1 PUSH1 0x40 MSTORE POP DUP2 ADD SWAP1 PUSH2 0x3390 SWAP2 SWAP1 PUSH2 0x4072 JUMP JUMPDEST PUSH1 0x1 JUMPDEST PUSH2 0x3439 JUMPI PUSH2 0x339F PUSH2 0x55F7 JUMP JUMPDEST DUP1 PUSH4 0x8C379A0 EQ ISZERO PUSH2 0x33FC JUMPI POP PUSH2 0x33B4 PUSH2 0x5E40 JUMP JUMPDEST DUP1 PUSH2 0x33BF JUMPI POP PUSH2 0x33FE JUMP JUMPDEST DUP1 PUSH1 0x40 MLOAD PUSH32 0x8C379A000000000000000000000000000000000000000000000000000000000 DUP2 MSTORE PUSH1 0x4 ADD PUSH2 0x33F3 SWAP2 SWAP1 PUSH2 0x4A0F JUMP JUMPDEST PUSH1 0x40 MLOAD DUP1 SWAP2 SUB SWAP1 REVERT JUMPDEST POP JUMPDEST PUSH1 0x40 MLOAD PUSH32 0x8C379A000000000000000000000000000000000000000000000000000000000 DUP2 MSTORE PUSH1 0x4 ADD PUSH2 0x3430 SWAP1 PUSH2 0x4A31 JUMP JUMPDEST PUSH1 0x40 MLOAD DUP1 SWAP2 SUB SWAP1 REVERT JUMPDEST PUSH4 0xBC197C81 PUSH1 0xE0 SHL PUSH28 0xFFFFFFFFFFFFFFFFFFFFFFFFFFFFFFFFFFFFFFFFFFFFFFFFFFFFFFFF NOT AND DUP2 PUSH28 0xFFFFFFFFFFFFFFFFFFFFFFFFFFFFFFFFFFFFFFFFFFFFFFFFFFFFFFFF NOT AND EQ PUSH2 0x34C0 JUMPI PUSH1 0x40 MLOAD PUSH32 0x8C379A000000000000000000000000000000000000000000000000000000000 DUP2 MSTORE PUSH1 0x4 ADD PUSH2 0x34B7 SWAP1 PUSH2 0x4A51 JUMP JUMPDEST PUSH1 0x40 MLOAD DUP1 SWAP2 SUB SWAP1 REVERT JUMPDEST POP JUMPDEST POP POP POP POP POP POP JUMP JUMPDEST PUSH1 0x0 DUP2 PUSH1 0xFF AND DUP4 PUSH1 0xFF AND LT ISZERO PUSH2 0x3507 JUMPI DUP3 DUP3 PUSH2 0x34E6 SWAP2 SWAP1 PUSH2 0x5349 JUMP JUMPDEST PUSH1 0xFF AND PUSH1 0xA PUSH2 0x34F5 SWAP2 SWAP1 PUSH2 0x5086 JUMP JUMPDEST DUP5 PUSH2 0x3500 SWAP2 SWAP1 PUSH2 0x51A4 JUMP JUMPDEST SWAP1 POP PUSH2 0x3546 JUMP JUMPDEST DUP2 PUSH1 0xFF AND DUP4 PUSH1 0xFF AND GT ISZERO PUSH2 0x3542 JUMPI DUP2 DUP4 PUSH2 0x3521 SWAP2 SWAP1 PUSH2 0x5349 JUMP JUMPDEST PUSH1 0xFF AND PUSH1 0xA PUSH2 0x3530 SWAP2 SWAP1 PUSH2 0x5086 JUMP JUMPDEST DUP5 PUSH2 0x353B SWAP2 SWAP1 PUSH2 0x4F98 JUMP JUMPDEST SWAP1 POP PUSH2 0x3546 JUMP JUMPDEST DUP4 SWAP1 POP JUMPDEST SWAP4 SWAP3 POP POP POP JUMP JUMPDEST PUSH1 0x60 PUSH1 0x0 PUSH1 0x1 PUSH8 0xFFFFFFFFFFFFFFFF DUP2 GT ISZERO PUSH2 0x356C JUMPI PUSH2 0x356B PUSH2 0x55C8 JUMP JUMPDEST JUMPDEST PUSH1 0x40 MLOAD SWAP1 DUP1 DUP3 MSTORE DUP1 PUSH1 0x20 MUL PUSH1 0x20 ADD DUP3 ADD PUSH1 0x40 MSTORE DUP1 ISZERO PUSH2 0x359A JUMPI DUP2 PUSH1 0x20 ADD PUSH1 0x20 DUP3 MUL DUP1 CALLDATASIZE DUP4 CALLDATACOPY DUP1 DUP3 ADD SWAP2 POP POP SWAP1 POP JUMPDEST POP SWAP1 POP DUP3 DUP2 PUSH1 0x0 DUP2 MLOAD DUP2 LT PUSH2 0x35B2 JUMPI PUSH2 0x35B1 PUSH2 0x5599 JUMP JUMPDEST JUMPDEST PUSH1 0x20 MUL PUSH1 0x20 ADD ADD DUP2 DUP2 MSTORE POP POP DUP1 SWAP2 POP POP SWAP2 SWAP1 POP JUMP JUMPDEST PUSH2 0x35E6 DUP5 PUSH20 0xFFFFFFFFFFFFFFFFFFFFFFFFFFFFFFFFFFFFFFFF AND PUSH2 0x37AE JUMP JUMPDEST ISZERO PUSH2 0x37A6 JUMPI DUP4 PUSH20 0xFFFFFFFFFFFFFFFFFFFFFFFFFFFFFFFFFFFFFFFF AND PUSH4 0xF23A6E61 DUP8 DUP8 DUP7 DUP7 DUP7 PUSH1 0x40 MLOAD DUP7 PUSH4 0xFFFFFFFF AND PUSH1 0xE0 SHL DUP2 MSTORE PUSH1 0x4 ADD PUSH2 0x362C SWAP6 SWAP5 SWAP4 SWAP3 SWAP2 SWAP1 PUSH2 0x4918 JUMP JUMPDEST PUSH1 0x20 PUSH1 0x40 MLOAD DUP1 DUP4 SUB DUP2 PUSH1 0x0 DUP8 DUP1 EXTCODESIZE ISZERO DUP1 ISZERO PUSH2 0x3646 JUMPI PUSH1 0x0 DUP1 REVERT JUMPDEST POP GAS CALL SWAP3 POP POP POP DUP1 ISZERO PUSH2 0x3677 JUMPI POP PUSH1 0x40 MLOAD RETURNDATASIZE PUSH1 0x1F NOT PUSH1 0x1F DUP3 ADD AND DUP3 ADD DUP1 PUSH1 0x40 MSTORE POP DUP2 ADD SWAP1 PUSH2 0x3674 SWAP2 SWAP1 PUSH2 0x4072 JUMP JUMPDEST PUSH1 0x1 JUMPDEST PUSH2 0x371D JUMPI PUSH2 0x3683 PUSH2 0x55F7 JUMP JUMPDEST DUP1 PUSH4 0x8C379A0 EQ ISZERO PUSH2 0x36E0 JUMPI POP PUSH2 0x3698 PUSH2 0x5E40 JUMP JUMPDEST DUP1 PUSH2 0x36A3 JUMPI POP PUSH2 0x36E2 JUMP JUMPDEST DUP1 PUSH1 0x40 MLOAD PUSH32 0x8C379A000000000000000000000000000000000000000000000000000000000 DUP2 MSTORE PUSH1 0x4 ADD PUSH2 0x36D7 SWAP2 SWAP1 PUSH2 0x4A0F JUMP JUMPDEST PUSH1 0x40 MLOAD DUP1 SWAP2 SUB SWAP1 REVERT JUMPDEST POP JUMPDEST PUSH1 0x40 MLOAD PUSH32 0x8C379A000000000000000000000000000000000000000000000000000000000 DUP2 MSTORE PUSH1 0x4 ADD PUSH2 0x3714 SWAP1 PUSH2 0x4A31 JUMP JUMPDEST PUSH1 0x40 MLOAD DUP1 SWAP2 SUB SWAP1 REVERT JUMPDEST PUSH4 0xF23A6E61 PUSH1 0xE0 SHL PUSH28 0xFFFFFFFFFFFFFFFFFFFFFFFFFFFFFFFFFFFFFFFFFFFFFFFFFFFFFFFF NOT AND DUP2 PUSH28 0xFFFFFFFFFFFFFFFFFFFFFFFFFFFFFFFFFFFFFFFFFFFFFFFFFFFFFFFF NOT AND EQ PUSH2 0x37A4 JUMPI PUSH1 0x40 MLOAD PUSH32 0x8C379A000000000000000000000000000000000000000000000000000000000 DUP2 MSTORE PUSH1 0x4 ADD PUSH2 0x379B SWAP1 PUSH2 0x4A51 JUMP JUMPDEST PUSH1 0x40 MLOAD DUP1 SWAP2 SUB SWAP1 REVERT JUMPDEST POP JUMPDEST POP POP POP POP POP POP JUMP JUMPDEST PUSH1 0x0 DUP1 DUP3 EXTCODESIZE SWAP1 POP PUSH1 0x0 DUP2 GT SWAP2 POP POP SWAP2 SWAP1 POP JUMP JUMPDEST DUP3 DUP1 SLOAD PUSH2 0x37CD SWAP1 PUSH2 0x5460 JUMP JUMPDEST SWAP1 PUSH1 0x0 MSTORE PUSH1 0x20 PUSH1 0x0 KECCAK256 SWAP1 PUSH1 0x1F ADD PUSH1 0x20 SWAP1 DIV DUP2 ADD SWAP3 DUP3 PUSH2 0x37EF JUMPI PUSH1 0x0 DUP6 SSTORE PUSH2 0x3836 JUMP JUMPDEST DUP3 PUSH1 0x1F LT PUSH2 0x3808 JUMPI DUP1 CALLDATALOAD PUSH1 0xFF NOT AND DUP4 DUP1 ADD OR DUP6 SSTORE PUSH2 0x3836 JUMP JUMPDEST DUP3 DUP1 ADD PUSH1 0x1 ADD DUP6 SSTORE DUP3 ISZERO PUSH2 0x3836 JUMPI SWAP2 DUP3 ADD JUMPDEST DUP3 DUP2 GT ISZERO PUSH2 0x3835 JUMPI DUP3 CALLDATALOAD DUP3 SSTORE SWAP2 PUSH1 0x20 ADD SWAP2 SWAP1 PUSH1 0x1 ADD SWAP1 PUSH2 0x381A JUMP JUMPDEST JUMPDEST POP SWAP1 POP PUSH2 0x3843 SWAP2 SWAP1 PUSH2 0x3847 JUMP JUMPDEST POP SWAP1 JUMP JUMPDEST JUMPDEST DUP1 DUP3 GT ISZERO PUSH2 0x3860 JUMPI PUSH1 0x0 DUP2 PUSH1 0x0 SWAP1 SSTORE POP PUSH1 0x1 ADD PUSH2 0x3848 JUMP JUMPDEST POP SWAP1 JUMP JUMPDEST PUSH1 0x0 PUSH2 0x3877 PUSH2 0x3872 DUP5 PUSH2 0x4E1D JUMP JUMPDEST PUSH2 0x4DF8 JUMP JUMPDEST SWAP1 POP DUP1 DUP4 DUP3 MSTORE PUSH1 0x20 DUP3 ADD SWAP1 POP DUP3 DUP6 PUSH1 0x20 DUP7 MUL DUP3 ADD GT ISZERO PUSH2 0x389A JUMPI PUSH2 0x3899 PUSH2 0x562D JUMP JUMPDEST JUMPDEST PUSH1 0x0 JUMPDEST DUP6 DUP2 LT ISZERO PUSH2 0x38CA JUMPI DUP2 PUSH2 0x38B0 DUP9 DUP3 PUSH2 0x3986 JUMP JUMPDEST DUP5 MSTORE PUSH1 0x20 DUP5 ADD SWAP4 POP PUSH1 0x20 DUP4 ADD SWAP3 POP POP PUSH1 0x1 DUP2 ADD SWAP1 POP PUSH2 0x389D JUMP JUMPDEST POP POP POP SWAP4 SWAP3 POP POP POP JUMP JUMPDEST PUSH1 0x0 PUSH2 0x38E7 PUSH2 0x38E2 DUP5 PUSH2 0x4E49 JUMP JUMPDEST PUSH2 0x4DF8 JUMP JUMPDEST SWAP1 POP DUP1 DUP4 DUP3 MSTORE PUSH1 0x20 DUP3 ADD SWAP1 POP DUP3 DUP6 PUSH1 0x20 DUP7 MUL DUP3 ADD GT ISZERO PUSH2 0x390A JUMPI PUSH2 0x3909 PUSH2 0x562D JUMP JUMPDEST JUMPDEST PUSH1 0x0 JUMPDEST DUP6 DUP2 LT ISZERO PUSH2 0x393A JUMPI DUP2 PUSH2 0x3920 DUP9 DUP3 PUSH2 0x3B90 JUMP JUMPDEST DUP5 MSTORE PUSH1 0x20 DUP5 ADD SWAP4 POP PUSH1 0x20 DUP4 ADD SWAP3 POP POP PUSH1 0x1 DUP2 ADD SWAP1 POP PUSH2 0x390D JUMP JUMPDEST POP POP POP SWAP4 SWAP3 POP POP POP JUMP JUMPDEST PUSH1 0x0 PUSH2 0x3957 PUSH2 0x3952 DUP5 PUSH2 0x4E75 JUMP JUMPDEST PUSH2 0x4DF8 JUMP JUMPDEST SWAP1 POP DUP3 DUP2 MSTORE PUSH1 0x20 DUP2 ADD DUP5 DUP5 DUP5 ADD GT ISZERO PUSH2 0x3973 JUMPI PUSH2 0x3972 PUSH2 0x5637 JUMP JUMPDEST JUMPDEST PUSH2 0x397E DUP5 DUP3 DUP6 PUSH2 0x541E JUMP JUMPDEST POP SWAP4 SWAP3 POP POP POP JUMP JUMPDEST PUSH1 0x0 DUP2 CALLDATALOAD SWAP1 POP PUSH2 0x3995 DUP2 PUSH2 0x5ED6 JUMP JUMPDEST SWAP3 SWAP2 POP POP JUMP JUMPDEST PUSH1 0x0 DUP2 MLOAD SWAP1 POP PUSH2 0x39AA DUP2 PUSH2 0x5ED6 JUMP JUMPDEST SWAP3 SWAP2 POP POP JUMP JUMPDEST PUSH1 0x0 DUP1 DUP4 PUSH1 0x1F DUP5 ADD SLT PUSH2 0x39C6 JUMPI PUSH2 0x39C5 PUSH2 0x561E JUMP JUMPDEST JUMPDEST DUP3 CALLDATALOAD SWAP1 POP PUSH8 0xFFFFFFFFFFFFFFFF DUP2 GT ISZERO PUSH2 0x39E3 JUMPI PUSH2 0x39E2 PUSH2 0x5619 JUMP JUMPDEST JUMPDEST PUSH1 0x20 DUP4 ADD SWAP2 POP DUP4 PUSH1 0x20 DUP3 MUL DUP4 ADD GT ISZERO PUSH2 0x39FF JUMPI PUSH2 0x39FE PUSH2 0x562D JUMP JUMPDEST JUMPDEST SWAP3 POP SWAP3 SWAP1 POP JUMP JUMPDEST PUSH1 0x0 DUP3 PUSH1 0x1F DUP4 ADD SLT PUSH2 0x3A1B JUMPI PUSH2 0x3A1A PUSH2 0x561E JUMP JUMPDEST JUMPDEST DUP2 CALLDATALOAD PUSH2 0x3A2B DUP5 DUP3 PUSH1 0x20 DUP7 ADD PUSH2 0x3864 JUMP JUMPDEST SWAP2 POP POP SWAP3 SWAP2 POP POP JUMP JUMPDEST PUSH1 0x0 DUP1 DUP4 PUSH1 0x1F DUP5 ADD SLT PUSH2 0x3A4A JUMPI PUSH2 0x3A49 PUSH2 0x561E JUMP JUMPDEST JUMPDEST DUP3 CALLDATALOAD SWAP1 POP PUSH8 0xFFFFFFFFFFFFFFFF DUP2 GT ISZERO PUSH2 0x3A67 JUMPI PUSH2 0x3A66 PUSH2 0x5619 JUMP JUMPDEST JUMPDEST PUSH1 0x20 DUP4 ADD SWAP2 POP DUP4 PUSH1 0x20 DUP3 MUL DUP4 ADD GT ISZERO PUSH2 0x3A83 JUMPI PUSH2 0x3A82 PUSH2 0x562D JUMP JUMPDEST JUMPDEST SWAP3 POP SWAP3 SWAP1 POP JUMP JUMPDEST PUSH1 0x0 DUP1 DUP4 PUSH1 0x1F DUP5 ADD SLT PUSH2 0x3AA0 JUMPI PUSH2 0x3A9F PUSH2 0x561E JUMP JUMPDEST JUMPDEST DUP3 CALLDATALOAD SWAP1 POP PUSH8 0xFFFFFFFFFFFFFFFF DUP2 GT ISZERO PUSH2 0x3ABD JUMPI PUSH2 0x3ABC PUSH2 0x5619 JUMP JUMPDEST JUMPDEST PUSH1 0x20 DUP4 ADD SWAP2 POP DUP4 PUSH1 0x20 DUP3 MUL DUP4 ADD GT ISZERO PUSH2 0x3AD9 JUMPI PUSH2 0x3AD8 PUSH2 0x562D JUMP JUMPDEST JUMPDEST SWAP3 POP SWAP3 SWAP1 POP JUMP JUMPDEST PUSH1 0x0 DUP3 PUSH1 0x1F DUP4 ADD SLT PUSH2 0x3AF5 JUMPI PUSH2 0x3AF4 PUSH2 0x561E JUMP JUMPDEST JUMPDEST DUP2 CALLDATALOAD PUSH2 0x3B05 DUP5 DUP3 PUSH1 0x20 DUP7 ADD PUSH2 0x38D4 JUMP JUMPDEST SWAP2 POP POP SWAP3 SWAP2 POP POP JUMP JUMPDEST PUSH1 0x0 DUP2 CALLDATALOAD SWAP1 POP PUSH2 0x3B1D DUP2 PUSH2 0x5EED JUMP JUMPDEST SWAP3 SWAP2 POP POP JUMP JUMPDEST PUSH1 0x0 DUP2 CALLDATALOAD SWAP1 POP PUSH2 0x3B32 DUP2 PUSH2 0x5F04 JUMP JUMPDEST SWAP3 SWAP2 POP POP JUMP JUMPDEST PUSH1 0x0 DUP2 MLOAD SWAP1 POP PUSH2 0x3B47 DUP2 PUSH2 0x5F04 JUMP JUMPDEST SWAP3 SWAP2 POP POP JUMP JUMPDEST PUSH1 0x0 DUP3 PUSH1 0x1F DUP4 ADD SLT PUSH2 0x3B62 JUMPI PUSH2 0x3B61 PUSH2 0x561E JUMP JUMPDEST JUMPDEST DUP2 CALLDATALOAD PUSH2 0x3B72 DUP5 DUP3 PUSH1 0x20 DUP7 ADD PUSH2 0x3944 JUMP JUMPDEST SWAP2 POP POP SWAP3 SWAP2 POP POP JUMP JUMPDEST PUSH1 0x0 DUP2 MLOAD SWAP1 POP PUSH2 0x3B8A DUP2 PUSH2 0x5F1B JUMP JUMPDEST SWAP3 SWAP2 POP POP JUMP JUMPDEST PUSH1 0x0 DUP2 CALLDATALOAD SWAP1 POP PUSH2 0x3B9F DUP2 PUSH2 0x5F32 JUMP JUMPDEST SWAP3 SWAP2 POP POP JUMP JUMPDEST PUSH1 0x0 DUP2 MLOAD SWAP1 POP PUSH2 0x3BB4 DUP2 PUSH2 0x5F32 JUMP JUMPDEST SWAP3 SWAP2 POP POP JUMP JUMPDEST PUSH1 0x0 DUP2 MLOAD SWAP1 POP PUSH2 0x3BC9 DUP2 PUSH2 0x5F60 JUMP JUMPDEST SWAP3 SWAP2 POP POP JUMP JUMPDEST PUSH1 0x0 DUP2 MLOAD SWAP1 POP PUSH2 0x3BDE DUP2 PUSH2 0x5F49 JUMP JUMPDEST SWAP3 SWAP2 POP POP JUMP JUMPDEST PUSH1 0x0 PUSH1 0x20 DUP3 DUP5 SUB SLT ISZERO PUSH2 0x3BFA JUMPI PUSH2 0x3BF9 PUSH2 0x5641 JUMP JUMPDEST JUMPDEST PUSH1 0x0 PUSH2 0x3C08 DUP5 DUP3 DUP6 ADD PUSH2 0x3986 JUMP JUMPDEST SWAP2 POP POP SWAP3 SWAP2 POP POP JUMP JUMPDEST PUSH1 0x0 PUSH1 0x20 DUP3 DUP5 SUB SLT ISZERO PUSH2 0x3C27 JUMPI PUSH2 0x3C26 PUSH2 0x5641 JUMP JUMPDEST JUMPDEST PUSH1 0x0 PUSH2 0x3C35 DUP5 DUP3 DUP6 ADD PUSH2 0x399B JUMP JUMPDEST SWAP2 POP POP SWAP3 SWAP2 POP POP JUMP JUMPDEST PUSH1 0x0 DUP1 PUSH1 0x40 DUP4 DUP6 SUB SLT ISZERO PUSH2 0x3C55 JUMPI PUSH2 0x3C54 PUSH2 0x5641 JUMP JUMPDEST JUMPDEST PUSH1 0x0 PUSH2 0x3C63 DUP6 DUP3 DUP7 ADD PUSH2 0x3986 JUMP JUMPDEST SWAP3 POP POP PUSH1 0x20 PUSH2 0x3C74 DUP6 DUP3 DUP7 ADD PUSH2 0x3986 JUMP JUMPDEST SWAP2 POP POP SWAP3 POP SWAP3 SWAP1 POP JUMP JUMPDEST PUSH1 0x0 DUP1 PUSH1 0x0 DUP1 PUSH1 0x0 PUSH1 0xA0 DUP7 DUP9 SUB SLT ISZERO PUSH2 0x3C9A JUMPI PUSH2 0x3C99 PUSH2 0x5641 JUMP JUMPDEST JUMPDEST PUSH1 0x0 PUSH2 0x3CA8 DUP9 DUP3 DUP10 ADD PUSH2 0x3986 JUMP JUMPDEST SWAP6 POP POP PUSH1 0x20 PUSH2 0x3CB9 DUP9 DUP3 DUP10 ADD PUSH2 0x3986 JUMP JUMPDEST SWAP5 POP POP PUSH1 0x40 DUP7 ADD CALLDATALOAD PUSH8 0xFFFFFFFFFFFFFFFF DUP2 GT ISZERO PUSH2 0x3CDA JUMPI PUSH2 0x3CD9 PUSH2 0x563C JUMP JUMPDEST JUMPDEST PUSH2 0x3CE6 DUP9 DUP3 DUP10 ADD PUSH2 0x3AE0 JUMP JUMPDEST SWAP4 POP POP PUSH1 0x60 DUP7 ADD CALLDATALOAD PUSH8 0xFFFFFFFFFFFFFFFF DUP2 GT ISZERO PUSH2 0x3D07 JUMPI PUSH2 0x3D06 PUSH2 0x563C JUMP JUMPDEST JUMPDEST PUSH2 0x3D13 DUP9 DUP3 DUP10 ADD PUSH2 0x3AE0 JUMP JUMPDEST SWAP3 POP POP PUSH1 0x80 DUP7 ADD CALLDATALOAD PUSH8 0xFFFFFFFFFFFFFFFF DUP2 GT ISZERO PUSH2 0x3D34 JUMPI PUSH2 0x3D33 PUSH2 0x563C JUMP JUMPDEST JUMPDEST PUSH2 0x3D40 DUP9 DUP3 DUP10 ADD PUSH2 0x3B4D JUMP JUMPDEST SWAP2 POP POP SWAP3 SWAP6 POP SWAP3 SWAP6 SWAP1 SWAP4 POP JUMP JUMPDEST PUSH1 0x0 DUP1 PUSH1 0x0 DUP1 PUSH1 0x0 PUSH1 0xA0 DUP7 DUP9 SUB SLT ISZERO PUSH2 0x3D69 JUMPI PUSH2 0x3D68 PUSH2 0x5641 JUMP JUMPDEST JUMPDEST PUSH1 0x0 PUSH2 0x3D77 DUP9 DUP3 DUP10 ADD PUSH2 0x3986 JUMP JUMPDEST SWAP6 POP POP PUSH1 0x20 PUSH2 0x3D88 DUP9 DUP3 DUP10 ADD PUSH2 0x3986 JUMP JUMPDEST SWAP5 POP POP PUSH1 0x40 PUSH2 0x3D99 DUP9 DUP3 DUP10 ADD PUSH2 0x3B90 JUMP JUMPDEST SWAP4 POP POP PUSH1 0x60 PUSH2 0x3DAA DUP9 DUP3 DUP10 ADD PUSH2 0x3B90 JUMP JUMPDEST SWAP3 POP POP PUSH1 0x80 DUP7 ADD CALLDATALOAD PUSH8 0xFFFFFFFFFFFFFFFF DUP2 GT ISZERO PUSH2 0x3DCB JUMPI PUSH2 0x3DCA PUSH2 0x563C JUMP JUMPDEST JUMPDEST PUSH2 0x3DD7 DUP9 DUP3 DUP10 ADD PUSH2 0x3B4D JUMP JUMPDEST SWAP2 POP POP SWAP3 SWAP6 POP SWAP3 SWAP6 SWAP1 SWAP4 POP JUMP JUMPDEST PUSH1 0x0 DUP1 PUSH1 0x40 DUP4 DUP6 SUB SLT ISZERO PUSH2 0x3DFB JUMPI PUSH2 0x3DFA PUSH2 0x5641 JUMP JUMPDEST JUMPDEST PUSH1 0x0 PUSH2 0x3E09 DUP6 DUP3 DUP7 ADD PUSH2 0x3986 JUMP JUMPDEST SWAP3 POP POP PUSH1 0x20 PUSH2 0x3E1A DUP6 DUP3 DUP7 ADD PUSH2 0x3B0E JUMP JUMPDEST SWAP2 POP POP SWAP3 POP SWAP3 SWAP1 POP JUMP JUMPDEST PUSH1 0x0 DUP1 PUSH1 0x40 DUP4 DUP6 SUB SLT ISZERO PUSH2 0x3E3B JUMPI PUSH2 0x3E3A PUSH2 0x5641 JUMP JUMPDEST JUMPDEST PUSH1 0x0 PUSH2 0x3E49 DUP6 DUP3 DUP7 ADD PUSH2 0x3986 JUMP JUMPDEST SWAP3 POP POP PUSH1 0x20 PUSH2 0x3E5A DUP6 DUP3 DUP7 ADD PUSH2 0x3B90 JUMP JUMPDEST SWAP2 POP POP SWAP3 POP SWAP3 SWAP1 POP JUMP JUMPDEST PUSH1 0x0 DUP1 PUSH1 0x0 PUSH1 0x60 DUP5 DUP7 SUB SLT ISZERO PUSH2 0x3E7D JUMPI PUSH2 0x3E7C PUSH2 0x5641 JUMP JUMPDEST JUMPDEST PUSH1 0x0 PUSH2 0x3E8B DUP7 DUP3 DUP8 ADD PUSH2 0x3986 JUMP JUMPDEST SWAP4 POP POP PUSH1 0x20 PUSH2 0x3E9C DUP7 DUP3 DUP8 ADD PUSH2 0x3B90 JUMP JUMPDEST SWAP3 POP POP PUSH1 0x40 PUSH2 0x3EAD DUP7 DUP3 DUP8 ADD PUSH2 0x3B90 JUMP JUMPDEST SWAP2 POP POP SWAP3 POP SWAP3 POP SWAP3 JUMP JUMPDEST PUSH1 0x0 DUP1 PUSH1 0x0 DUP1 PUSH1 0x0 PUSH1 0x60 DUP7 DUP9 SUB SLT ISZERO PUSH2 0x3ED3 JUMPI PUSH2 0x3ED2 PUSH2 0x5641 JUMP JUMPDEST JUMPDEST PUSH1 0x0 DUP7 ADD CALLDATALOAD PUSH8 0xFFFFFFFFFFFFFFFF DUP2 GT ISZERO PUSH2 0x3EF1 JUMPI PUSH2 0x3EF0 PUSH2 0x563C JUMP JUMPDEST JUMPDEST PUSH2 0x3EFD DUP9 DUP3 DUP10 ADD PUSH2 0x39B0 JUMP JUMPDEST SWAP6 POP SWAP6 POP POP PUSH1 0x20 DUP7 ADD CALLDATALOAD PUSH8 0xFFFFFFFFFFFFFFFF DUP2 GT ISZERO PUSH2 0x3F20 JUMPI PUSH2 0x3F1F PUSH2 0x563C JUMP JUMPDEST JUMPDEST PUSH2 0x3F2C DUP9 DUP3 DUP10 ADD PUSH2 0x3A8A JUMP JUMPDEST SWAP4 POP SWAP4 POP POP PUSH1 0x40 PUSH2 0x3F3F DUP9 DUP3 DUP10 ADD PUSH2 0x3B90 JUMP JUMPDEST SWAP2 POP POP SWAP3 SWAP6 POP SWAP3 SWAP6 SWAP1 SWAP4 POP JUMP JUMPDEST PUSH1 0x0 DUP1 PUSH1 0x40 DUP4 DUP6 SUB SLT ISZERO PUSH2 0x3F63 JUMPI PUSH2 0x3F62 PUSH2 0x5641 JUMP JUMPDEST JUMPDEST PUSH1 0x0 DUP4 ADD CALLDATALOAD PUSH8 0xFFFFFFFFFFFFFFFF DUP2 GT ISZERO PUSH2 0x3F81 JUMPI PUSH2 0x3F80 PUSH2 0x563C JUMP JUMPDEST JUMPDEST PUSH2 0x3F8D DUP6 DUP3 DUP7 ADD PUSH2 0x3A06 JUMP JUMPDEST SWAP3 POP POP PUSH1 0x20 DUP4 ADD CALLDATALOAD PUSH8 0xFFFFFFFFFFFFFFFF DUP2 GT ISZERO PUSH2 0x3FAE JUMPI PUSH2 0x3FAD PUSH2 0x563C JUMP JUMPDEST JUMPDEST PUSH2 0x3FBA DUP6 DUP3 DUP7 ADD PUSH2 0x3AE0 JUMP JUMPDEST SWAP2 POP POP SWAP3 POP SWAP3 SWAP1 POP JUMP JUMPDEST PUSH1 0x0 DUP1 PUSH1 0x0 DUP1 PUSH1 0x40 DUP6 DUP8 SUB SLT ISZERO PUSH2 0x3FDE JUMPI PUSH2 0x3FDD PUSH2 0x5641 JUMP JUMPDEST JUMPDEST PUSH1 0x0 DUP6 ADD CALLDATALOAD PUSH8 0xFFFFFFFFFFFFFFFF DUP2 GT ISZERO PUSH2 0x3FFC JUMPI PUSH2 0x3FFB PUSH2 0x563C JUMP JUMPDEST JUMPDEST PUSH2 0x4008 DUP8 DUP3 DUP9 ADD PUSH2 0x3A34 JUMP JUMPDEST SWAP5 POP SWAP5 POP POP PUSH1 0x20 DUP6 ADD CALLDATALOAD PUSH8 0xFFFFFFFFFFFFFFFF DUP2 GT ISZERO PUSH2 0x402B JUMPI PUSH2 0x402A PUSH2 0x563C JUMP JUMPDEST JUMPDEST PUSH2 0x4037 DUP8 DUP3 DUP9 ADD PUSH2 0x3A8A JUMP JUMPDEST SWAP3 POP SWAP3 POP POP SWAP3 SWAP6 SWAP2 SWAP5 POP SWAP3 POP JUMP JUMPDEST PUSH1 0x0 PUSH1 0x20 DUP3 DUP5 SUB SLT ISZERO PUSH2 0x405B JUMPI PUSH2 0x405A PUSH2 0x5641 JUMP JUMPDEST JUMPDEST PUSH1 0x0 PUSH2 0x4069 DUP5 DUP3 DUP6 ADD PUSH2 0x3B23 JUMP JUMPDEST SWAP2 POP POP SWAP3 SWAP2 POP POP JUMP JUMPDEST PUSH1 0x0 PUSH1 0x20 DUP3 DUP5 SUB SLT ISZERO PUSH2 0x4088 JUMPI PUSH2 0x4087 PUSH2 0x5641 JUMP JUMPDEST JUMPDEST PUSH1 0x0 PUSH2 0x4096 DUP5 DUP3 DUP6 ADD PUSH2 0x3B38 JUMP JUMPDEST SWAP2 POP POP SWAP3 SWAP2 POP POP JUMP JUMPDEST PUSH1 0x0 PUSH1 0x20 DUP3 DUP5 SUB SLT ISZERO PUSH2 0x40B5 JUMPI PUSH2 0x40B4 PUSH2 0x5641 JUMP JUMPDEST JUMPDEST PUSH1 0x0 PUSH2 0x40C3 DUP5 DUP3 DUP6 ADD PUSH2 0x3B90 JUMP JUMPDEST SWAP2 POP POP SWAP3 SWAP2 POP POP JUMP JUMPDEST PUSH1 0x0 PUSH1 0x20 DUP3 DUP5 SUB SLT ISZERO PUSH2 0x40E2 JUMPI PUSH2 0x40E1 PUSH2 0x5641 JUMP JUMPDEST JUMPDEST PUSH1 0x0 PUSH2 0x40F0 DUP5 DUP3 DUP6 ADD PUSH2 0x3BA5 JUMP JUMPDEST SWAP2 POP POP SWAP3 SWAP2 POP POP JUMP JUMPDEST PUSH1 0x0 DUP1 PUSH1 0x0 DUP1 PUSH1 0x0 PUSH1 0xA0 DUP7 DUP9 SUB SLT ISZERO PUSH2 0x4115 JUMPI PUSH2 0x4114 PUSH2 0x5641 JUMP JUMPDEST JUMPDEST PUSH1 0x0 PUSH2 0x4123 DUP9 DUP3 DUP10 ADD PUSH2 0x3BBA JUMP JUMPDEST SWAP6 POP POP PUSH1 0x20 PUSH2 0x4134 DUP9 DUP3 DUP10 ADD PUSH2 0x3B7B JUMP JUMPDEST SWAP5 POP POP PUSH1 0x40 PUSH2 0x4145 DUP9 DUP3 DUP10 ADD PUSH2 0x3BA5 JUMP JUMPDEST SWAP4 POP POP PUSH1 0x60 PUSH2 0x4156 DUP9 DUP3 DUP10 ADD PUSH2 0x3BA5 JUMP JUMPDEST SWAP3 POP POP PUSH1 0x80 PUSH2 0x4167 DUP9 DUP3 DUP10 ADD PUSH2 0x3BBA JUMP JUMPDEST SWAP2 POP POP SWAP3 SWAP6 POP SWAP3 SWAP6 SWAP1 SWAP4 POP JUMP JUMPDEST PUSH1 0x0 PUSH1 0x20 DUP3 DUP5 SUB SLT ISZERO PUSH2 0x418A JUMPI PUSH2 0x4189 PUSH2 0x5641 JUMP JUMPDEST JUMPDEST PUSH1 0x0 PUSH2 0x4198 DUP5 DUP3 DUP6 ADD PUSH2 0x3BCF JUMP JUMPDEST SWAP2 POP POP SWAP3 SWAP2 POP POP JUMP JUMPDEST PUSH1 0x0 PUSH2 0x41AD DUP4 DUP4 PUSH2 0x47DA JUMP JUMPDEST PUSH1 0x20 DUP4 ADD SWAP1 POP SWAP3 SWAP2 POP POP JUMP JUMPDEST PUSH2 0x41C2 DUP2 PUSH2 0x537D JUMP JUMPDEST DUP3 MSTORE POP POP JUMP JUMPDEST PUSH1 0x0 PUSH2 0x41D3 DUP3 PUSH2 0x4ECB JUMP JUMPDEST PUSH2 0x41DD DUP2 DUP6 PUSH2 0x4EF9 JUMP JUMPDEST SWAP4 POP PUSH2 0x41E8 DUP4 PUSH2 0x4EA6 JUMP JUMPDEST DUP1 PUSH1 0x0 JUMPDEST DUP4 DUP2 LT ISZERO PUSH2 0x4219 JUMPI DUP2 MLOAD PUSH2 0x4200 DUP9 DUP3 PUSH2 0x41A1 JUMP JUMPDEST SWAP8 POP PUSH2 0x420B DUP4 PUSH2 0x4EEC JUMP JUMPDEST SWAP3 POP POP PUSH1 0x1 DUP2 ADD SWAP1 POP PUSH2 0x41EC JUMP JUMPDEST POP DUP6 SWAP4 POP POP POP POP SWAP3 SWAP2 POP POP JUMP JUMPDEST PUSH2 0x422F DUP2 PUSH2 0x538F JUMP JUMPDEST DUP3 MSTORE POP POP JUMP JUMPDEST PUSH1 0x0 PUSH2 0x4240 DUP3 PUSH2 0x4ED6 JUMP JUMPDEST PUSH2 0x424A DUP2 DUP6 PUSH2 0x4F0A JUMP JUMPDEST SWAP4 POP PUSH2 0x425A DUP2 DUP6 PUSH1 0x20 DUP7 ADD PUSH2 0x542D JUMP JUMPDEST PUSH2 0x4263 DUP2 PUSH2 0x5646 JUMP JUMPDEST DUP5 ADD SWAP2 POP POP SWAP3 SWAP2 POP POP JUMP JUMPDEST PUSH1 0x0 PUSH2 0x4279 DUP3 PUSH2 0x4EE1 JUMP JUMPDEST PUSH2 0x4283 DUP2 DUP6 PUSH2 0x4F26 JUMP JUMPDEST SWAP4 POP PUSH2 0x4293 DUP2 DUP6 PUSH1 0x20 DUP7 ADD PUSH2 0x542D JUMP JUMPDEST PUSH2 0x429C DUP2 PUSH2 0x5646 JUMP JUMPDEST DUP5 ADD SWAP2 POP POP SWAP3 SWAP2 POP POP JUMP JUMPDEST PUSH1 0x0 PUSH2 0x42B2 DUP3 PUSH2 0x4EE1 JUMP JUMPDEST PUSH2 0x42BC DUP2 DUP6 PUSH2 0x4F37 JUMP JUMPDEST SWAP4 POP PUSH2 0x42CC DUP2 DUP6 PUSH1 0x20 DUP7 ADD PUSH2 0x542D JUMP JUMPDEST DUP1 DUP5 ADD SWAP2 POP POP SWAP3 SWAP2 POP POP JUMP JUMPDEST PUSH1 0x0 DUP2 SLOAD PUSH2 0x42E5 DUP2 PUSH2 0x5460 JUMP JUMPDEST PUSH2 0x42EF DUP2 DUP7 PUSH2 0x4F37 JUMP JUMPDEST SWAP5 POP PUSH1 0x1 DUP3 AND PUSH1 0x0 DUP2 EQ PUSH2 0x430A JUMPI PUSH1 0x1 DUP2 EQ PUSH2 0x431B JUMPI PUSH2 0x434E JUMP JUMPDEST PUSH1 0xFF NOT DUP4 AND DUP7 MSTORE DUP2 DUP7 ADD SWAP4 POP PUSH2 0x434E JUMP JUMPDEST PUSH2 0x4324 DUP6 PUSH2 0x4EB6 JUMP JUMPDEST PUSH1 0x0 JUMPDEST DUP4 DUP2 LT ISZERO PUSH2 0x4346 JUMPI DUP2 SLOAD DUP2 DUP10 ADD MSTORE PUSH1 0x1 DUP3 ADD SWAP2 POP PUSH1 0x20 DUP2 ADD SWAP1 POP PUSH2 0x4327 JUMP JUMPDEST DUP4 DUP9 ADD SWAP6 POP POP POP JUMPDEST POP POP POP SWAP3 SWAP2 POP POP JUMP JUMPDEST PUSH1 0x0 PUSH2 0x4364 PUSH1 0x34 DUP4 PUSH2 0x4F26 JUMP JUMPDEST SWAP2 POP PUSH2 0x436F DUP3 PUSH2 0x5671 JUMP JUMPDEST PUSH1 0x40 DUP3 ADD SWAP1 POP SWAP2 SWAP1 POP JUMP JUMPDEST PUSH1 0x0 PUSH2 0x4387 PUSH1 0x28 DUP4 PUSH2 0x4F26 JUMP JUMPDEST SWAP2 POP PUSH2 0x4392 DUP3 PUSH2 0x56C0 JUMP JUMPDEST PUSH1 0x40 DUP3 ADD SWAP1 POP SWAP2 SWAP1 POP JUMP JUMPDEST PUSH1 0x0 PUSH2 0x43AA PUSH1 0x23 DUP4 PUSH2 0x4F26 JUMP JUMPDEST SWAP2 POP PUSH2 0x43B5 DUP3 PUSH2 0x570F JUMP JUMPDEST PUSH1 0x40 DUP3 ADD SWAP1 POP SWAP2 SWAP1 POP JUMP JUMPDEST PUSH1 0x0 PUSH2 0x43CD PUSH1 0x16 DUP4 PUSH2 0x4F26 JUMP JUMPDEST SWAP2 POP PUSH2 0x43D8 DUP3 PUSH2 0x575E JUMP JUMPDEST PUSH1 0x20 DUP3 ADD SWAP1 POP SWAP2 SWAP1 POP JUMP JUMPDEST PUSH1 0x0 PUSH2 0x43F0 PUSH1 0x2B DUP4 PUSH2 0x4F26 JUMP JUMPDEST SWAP2 POP PUSH2 0x43FB DUP3 PUSH2 0x5787 JUMP JUMPDEST PUSH1 0x40 DUP3 ADD SWAP1 POP SWAP2 SWAP1 POP JUMP JUMPDEST PUSH1 0x0 PUSH2 0x4413 PUSH1 0x26 DUP4 PUSH2 0x4F26 JUMP JUMPDEST SWAP2 POP PUSH2 0x441E DUP3 PUSH2 0x57D6 JUMP JUMPDEST PUSH1 0x40 DUP3 ADD SWAP1 POP SWAP2 SWAP1 POP JUMP JUMPDEST PUSH1 0x0 PUSH2 0x4436 PUSH1 0x1A DUP4 PUSH2 0x4F26 JUMP JUMPDEST SWAP2 POP PUSH2 0x4441 DUP3 PUSH2 0x5825 JUMP JUMPDEST PUSH1 0x20 DUP3 ADD SWAP1 POP SWAP2 SWAP1 POP JUMP JUMPDEST PUSH1 0x0 PUSH2 0x4459 PUSH1 0xB DUP4 PUSH2 0x4F37 JUMP JUMPDEST SWAP2 POP PUSH2 0x4464 DUP3 PUSH2 0x584E JUMP JUMPDEST PUSH1 0xB DUP3 ADD SWAP1 POP SWAP2 SWAP1 POP JUMP JUMPDEST PUSH1 0x0 PUSH2 0x447C PUSH1 0x1D DUP4 PUSH2 0x4F26 JUMP JUMPDEST SWAP2 POP PUSH2 0x4487 DUP3 PUSH2 0x5877 JUMP JUMPDEST PUSH1 0x20 DUP3 ADD SWAP1 POP SWAP2 SWAP1 POP JUMP JUMPDEST PUSH1 0x0 PUSH2 0x449F PUSH1 0x29 DUP4 PUSH2 0x4F26 JUMP JUMPDEST SWAP2 POP PUSH2 0x44AA DUP3 PUSH2 0x58A0 JUMP JUMPDEST PUSH1 0x40 DUP3 ADD SWAP1 POP SWAP2 SWAP1 POP JUMP JUMPDEST PUSH1 0x0 PUSH2 0x44C2 PUSH1 0x13 DUP4 PUSH2 0x4F26 JUMP JUMPDEST SWAP2 POP PUSH2 0x44CD DUP3 PUSH2 0x58EF JUMP JUMPDEST PUSH1 0x20 DUP3 ADD SWAP1 POP SWAP2 SWAP1 POP JUMP JUMPDEST PUSH1 0x0 PUSH2 0x44E5 PUSH1 0x23 DUP4 PUSH2 0x4F26 JUMP JUMPDEST SWAP2 POP PUSH2 0x44F0 DUP3 PUSH2 0x5918 JUMP JUMPDEST PUSH1 0x40 DUP3 ADD SWAP1 POP SWAP2 SWAP1 POP JUMP JUMPDEST PUSH1 0x0 PUSH2 0x4508 PUSH1 0x11 DUP4 PUSH2 0x4F26 JUMP JUMPDEST SWAP2 POP PUSH2 0x4513 DUP3 PUSH2 0x5967 JUMP JUMPDEST PUSH1 0x20 DUP3 ADD SWAP1 POP SWAP2 SWAP1 POP JUMP JUMPDEST PUSH1 0x0 PUSH2 0x452B PUSH1 0x25 DUP4 PUSH2 0x4F26 JUMP JUMPDEST SWAP2 POP PUSH2 0x4536 DUP3 PUSH2 0x5990 JUMP JUMPDEST PUSH1 0x40 DUP3 ADD SWAP1 POP SWAP2 SWAP1 POP JUMP JUMPDEST PUSH1 0x0 PUSH2 0x454E PUSH1 0x32 DUP4 PUSH2 0x4F26 JUMP JUMPDEST SWAP2 POP PUSH2 0x4559 DUP3 PUSH2 0x59DF JUMP JUMPDEST PUSH1 0x40 DUP3 ADD SWAP1 POP SWAP2 SWAP1 POP JUMP JUMPDEST PUSH1 0x0 PUSH2 0x4571 PUSH1 0x2D DUP4 PUSH2 0x4F26 JUMP JUMPDEST SWAP2 POP PUSH2 0x457C DUP3 PUSH2 0x5A2E JUMP JUMPDEST PUSH1 0x40 DUP3 ADD SWAP1 POP SWAP2 SWAP1 POP JUMP JUMPDEST PUSH1 0x0 PUSH2 0x4594 PUSH1 0x2 DUP4 PUSH2 0x4F37 JUMP JUMPDEST SWAP2 POP PUSH2 0x459F DUP3 PUSH2 0x5A7D JUMP JUMPDEST PUSH1 0x2 DUP3 ADD SWAP1 POP SWAP2 SWAP1 POP JUMP JUMPDEST PUSH1 0x0 PUSH2 0x45B7 PUSH1 0x1C DUP4 PUSH2 0x4F26 JUMP JUMPDEST SWAP2 POP PUSH2 0x45C2 DUP3 PUSH2 0x5AA6 JUMP JUMPDEST PUSH1 0x20 DUP3 ADD SWAP1 POP SWAP2 SWAP1 POP JUMP JUMPDEST PUSH1 0x0 PUSH2 0x45DA PUSH1 0x2A DUP4 PUSH2 0x4F26 JUMP JUMPDEST SWAP2 POP PUSH2 0x45E5 DUP3 PUSH2 0x5ACF JUMP JUMPDEST PUSH1 0x40 DUP3 ADD SWAP1 POP SWAP2 SWAP1 POP JUMP JUMPDEST PUSH1 0x0 PUSH2 0x45FD PUSH1 0x1A DUP4 PUSH2 0x4F26 JUMP JUMPDEST SWAP2 POP PUSH2 0x4608 DUP3 PUSH2 0x5B1E JUMP JUMPDEST PUSH1 0x20 DUP3 ADD SWAP1 POP SWAP2 SWAP1 POP JUMP JUMPDEST PUSH1 0x0 PUSH2 0x4620 PUSH1 0x20 DUP4 PUSH2 0x4F26 JUMP JUMPDEST SWAP2 POP PUSH2 0x462B DUP3 PUSH2 0x5B47 JUMP JUMPDEST PUSH1 0x20 DUP3 ADD SWAP1 POP SWAP2 SWAP1 POP JUMP JUMPDEST PUSH1 0x0 PUSH2 0x4643 PUSH1 0x10 DUP4 PUSH2 0x4F37 JUMP JUMPDEST SWAP2 POP PUSH2 0x464E DUP3 PUSH2 0x5B70 JUMP JUMPDEST PUSH1 0x10 DUP3 ADD SWAP1 POP SWAP2 SWAP1 POP JUMP JUMPDEST PUSH1 0x0 PUSH2 0x4666 PUSH1 0x1D DUP4 PUSH2 0x4F37 JUMP JUMPDEST SWAP2 POP PUSH2 0x4671 DUP3 PUSH2 0x5B99 JUMP JUMPDEST PUSH1 0x1D DUP3 ADD SWAP1 POP SWAP2 SWAP1 POP JUMP JUMPDEST PUSH1 0x0 PUSH2 0x4689 PUSH1 0x0 DUP4 PUSH2 0x4F1B JUMP JUMPDEST SWAP2 POP PUSH2 0x4694 DUP3 PUSH2 0x5BC2 JUMP JUMPDEST PUSH1 0x0 DUP3 ADD SWAP1 POP SWAP2 SWAP1 POP JUMP JUMPDEST PUSH1 0x0 PUSH2 0x46AC PUSH1 0x66 DUP4 PUSH2 0x4F37 JUMP JUMPDEST SWAP2 POP PUSH2 0x46B7 DUP3 PUSH2 0x5BC5 JUMP JUMPDEST PUSH1 0x66 DUP3 ADD SWAP1 POP SWAP2 SWAP1 POP JUMP JUMPDEST PUSH1 0x0 PUSH2 0x46CF PUSH1 0x3 DUP4 PUSH2 0x4F37 JUMP JUMPDEST SWAP2 POP PUSH2 0x46DA DUP3 PUSH2 0x5C60 JUMP JUMPDEST PUSH1 0x3 DUP3 ADD SWAP1 POP SWAP2 SWAP1 POP JUMP JUMPDEST PUSH1 0x0 PUSH2 0x46F2 PUSH1 0xA DUP4 PUSH2 0x4F37 JUMP JUMPDEST SWAP2 POP PUSH2 0x46FD DUP3 PUSH2 0x5C89 JUMP JUMPDEST PUSH1 0xA DUP3 ADD SWAP1 POP SWAP2 SWAP1 POP JUMP JUMPDEST PUSH1 0x0 PUSH2 0x4715 PUSH1 0x29 DUP4 PUSH2 0x4F26 JUMP JUMPDEST SWAP2 POP PUSH2 0x4720 DUP3 PUSH2 0x5CB2 JUMP JUMPDEST PUSH1 0x40 DUP3 ADD SWAP1 POP SWAP2 SWAP1 POP JUMP JUMPDEST PUSH1 0x0 PUSH2 0x4738 PUSH1 0x29 DUP4 PUSH2 0x4F26 JUMP JUMPDEST SWAP2 POP PUSH2 0x4743 DUP3 PUSH2 0x5D01 JUMP JUMPDEST PUSH1 0x40 DUP3 ADD SWAP1 POP SWAP2 SWAP1 POP JUMP JUMPDEST PUSH1 0x0 PUSH2 0x475B PUSH1 0x28 DUP4 PUSH2 0x4F26 JUMP JUMPDEST SWAP2 POP PUSH2 0x4766 DUP3 PUSH2 0x5D50 JUMP JUMPDEST PUSH1 0x40 DUP3 ADD SWAP1 POP SWAP2 SWAP1 POP JUMP JUMPDEST PUSH1 0x0 PUSH2 0x477E PUSH1 0x21 DUP4 PUSH2 0x4F26 JUMP JUMPDEST SWAP2 POP PUSH2 0x4789 DUP3 PUSH2 0x5D9F JUMP JUMPDEST PUSH1 0x40 DUP3 ADD SWAP1 POP SWAP2 SWAP1 POP JUMP JUMPDEST PUSH1 0x0 PUSH2 0x47A1 PUSH1 0x1F DUP4 PUSH2 0x4F26 JUMP JUMPDEST SWAP2 POP PUSH2 0x47AC DUP3 PUSH2 0x5DEE JUMP JUMPDEST PUSH1 0x20 DUP3 ADD SWAP1 POP SWAP2 SWAP1 POP JUMP JUMPDEST PUSH1 0x0 PUSH2 0x47C4 PUSH1 0x1B DUP4 PUSH2 0x4F26 JUMP JUMPDEST SWAP2 POP PUSH2 0x47CF DUP3 PUSH2 0x5E17 JUMP JUMPDEST PUSH1 0x20 DUP3 ADD SWAP1 POP SWAP2 SWAP1 POP JUMP JUMPDEST PUSH2 0x47E3 DUP2 PUSH2 0x53F1 JUMP JUMPDEST DUP3 MSTORE POP POP JUMP JUMPDEST PUSH2 0x47F2 DUP2 PUSH2 0x53F1 JUMP JUMPDEST DUP3 MSTORE POP POP JUMP JUMPDEST PUSH1 0x0 PUSH2 0x4803 DUP3 PUSH2 0x444C JUMP JUMPDEST SWAP2 POP PUSH2 0x480F DUP3 DUP6 PUSH2 0x42D8 JUMP JUMPDEST SWAP2 POP PUSH2 0x481A DUP3 PUSH2 0x46C2 JUMP JUMPDEST SWAP2 POP PUSH2 0x4825 DUP3 PUSH2 0x4636 JUMP JUMPDEST SWAP2 POP PUSH2 0x4830 DUP3 PUSH2 0x469F JUMP JUMPDEST SWAP2 POP PUSH2 0x483B DUP3 PUSH2 0x46E5 JUMP JUMPDEST SWAP2 POP PUSH2 0x4847 DUP3 DUP5 PUSH2 0x42D8 JUMP JUMPDEST SWAP2 POP PUSH2 0x4852 DUP3 PUSH2 0x4587 JUMP JUMPDEST SWAP2 POP DUP2 SWAP1 POP SWAP4 SWAP3 POP POP POP JUMP JUMPDEST PUSH1 0x0 PUSH2 0x4869 DUP3 PUSH2 0x4659 JUMP JUMPDEST SWAP2 POP PUSH2 0x4875 DUP3 DUP5 PUSH2 0x42A7 JUMP JUMPDEST SWAP2 POP DUP2 SWAP1 POP SWAP3 SWAP2 POP POP JUMP JUMPDEST PUSH1 0x0 PUSH2 0x488B DUP3 PUSH2 0x467C JUMP JUMPDEST SWAP2 POP DUP2 SWAP1 POP SWAP2 SWAP1 POP JUMP JUMPDEST PUSH1 0x0 PUSH1 0x20 DUP3 ADD SWAP1 POP PUSH2 0x48AA PUSH1 0x0 DUP4 ADD DUP5 PUSH2 0x41B9 JUMP JUMPDEST SWAP3 SWAP2 POP POP JUMP JUMPDEST PUSH1 0x0 PUSH1 0xA0 DUP3 ADD SWAP1 POP PUSH2 0x48C5 PUSH1 0x0 DUP4 ADD DUP9 PUSH2 0x41B9 JUMP JUMPDEST PUSH2 0x48D2 PUSH1 0x20 DUP4 ADD DUP8 PUSH2 0x41B9 JUMP JUMPDEST DUP2 DUP2 SUB PUSH1 0x40 DUP4 ADD MSTORE PUSH2 0x48E4 DUP2 DUP7 PUSH2 0x41C8 JUMP JUMPDEST SWAP1 POP DUP2 DUP2 SUB PUSH1 0x60 DUP4 ADD MSTORE PUSH2 0x48F8 DUP2 DUP6 PUSH2 0x41C8 JUMP JUMPDEST SWAP1 POP DUP2 DUP2 SUB PUSH1 0x80 DUP4 ADD MSTORE PUSH2 0x490C DUP2 DUP5 PUSH2 0x4235 JUMP JUMPDEST SWAP1 POP SWAP7 SWAP6 POP POP POP POP POP POP JUMP JUMPDEST PUSH1 0x0 PUSH1 0xA0 DUP3 ADD SWAP1 POP PUSH2 0x492D PUSH1 0x0 DUP4 ADD DUP9 PUSH2 0x41B9 JUMP JUMPDEST PUSH2 0x493A PUSH1 0x20 DUP4 ADD DUP8 PUSH2 0x41B9 JUMP JUMPDEST PUSH2 0x4947 PUSH1 0x40 DUP4 ADD DUP7 PUSH2 0x47E9 JUMP JUMPDEST PUSH2 0x4954 PUSH1 0x60 DUP4 ADD DUP6 PUSH2 0x47E9 JUMP JUMPDEST DUP2 DUP2 SUB PUSH1 0x80 DUP4 ADD MSTORE PUSH2 0x4966 DUP2 DUP5 PUSH2 0x4235 JUMP JUMPDEST SWAP1 POP SWAP7 SWAP6 POP POP POP POP POP POP JUMP JUMPDEST PUSH1 0x0 PUSH1 0x40 DUP3 ADD SWAP1 POP PUSH2 0x4987 PUSH1 0x0 DUP4 ADD DUP6 PUSH2 0x41B9 JUMP JUMPDEST PUSH2 0x4994 PUSH1 0x20 DUP4 ADD DUP5 PUSH2 0x47E9 JUMP JUMPDEST SWAP4 SWAP3 POP POP POP JUMP JUMPDEST PUSH1 0x0 PUSH1 0x20 DUP3 ADD SWAP1 POP DUP2 DUP2 SUB PUSH1 0x0 DUP4 ADD MSTORE PUSH2 0x49B5 DUP2 DUP5 PUSH2 0x41C8 JUMP JUMPDEST SWAP1 POP SWAP3 SWAP2 POP POP JUMP JUMPDEST PUSH1 0x0 PUSH1 0x40 DUP3 ADD SWAP1 POP DUP2 DUP2 SUB PUSH1 0x0 DUP4 ADD MSTORE PUSH2 0x49D7 DUP2 DUP6 PUSH2 0x41C8 JUMP JUMPDEST SWAP1 POP DUP2 DUP2 SUB PUSH1 0x20 DUP4 ADD MSTORE PUSH2 0x49EB DUP2 DUP5 PUSH2 0x41C8 JUMP JUMPDEST SWAP1 POP SWAP4 SWAP3 POP POP POP JUMP JUMPDEST PUSH1 0x0 PUSH1 0x20 DUP3 ADD SWAP1 POP PUSH2 0x4A09 PUSH1 0x0 DUP4 ADD DUP5 PUSH2 0x4226 JUMP JUMPDEST SWAP3 SWAP2 POP POP JUMP JUMPDEST PUSH1 0x0 PUSH1 0x20 DUP3 ADD SWAP1 POP DUP2 DUP2 SUB PUSH1 0x0 DUP4 ADD MSTORE PUSH2 0x4A29 DUP2 DUP5 PUSH2 0x426E JUMP JUMPDEST SWAP1 POP SWAP3 SWAP2 POP POP JUMP JUMPDEST PUSH1 0x0 PUSH1 0x20 DUP3 ADD SWAP1 POP DUP2 DUP2 SUB PUSH1 0x0 DUP4 ADD MSTORE PUSH2 0x4A4A DUP2 PUSH2 0x4357 JUMP JUMPDEST SWAP1 POP SWAP2 SWAP1 POP JUMP JUMPDEST PUSH1 0x0 PUSH1 0x20 DUP3 ADD SWAP1 POP DUP2 DUP2 SUB PUSH1 0x0 DUP4 ADD MSTORE PUSH2 0x4A6A DUP2 PUSH2 0x437A JUMP JUMPDEST SWAP1 POP SWAP2 SWAP1 POP JUMP JUMPDEST PUSH1 0x0 PUSH1 0x20 DUP3 ADD SWAP1 POP DUP2 DUP2 SUB PUSH1 0x0 DUP4 ADD MSTORE PUSH2 0x4A8A DUP2 PUSH2 0x439D JUMP JUMPDEST SWAP1 POP SWAP2 SWAP1 POP JUMP JUMPDEST PUSH1 0x0 PUSH1 0x20 DUP3 ADD SWAP1 POP DUP2 DUP2 SUB PUSH1 0x0 DUP4 ADD MSTORE PUSH2 0x4AAA DUP2 PUSH2 0x43C0 JUMP JUMPDEST SWAP1 POP SWAP2 SWAP1 POP JUMP JUMPDEST PUSH1 0x0 PUSH1 0x20 DUP3 ADD SWAP1 POP DUP2 DUP2 SUB PUSH1 0x0 DUP4 ADD MSTORE PUSH2 0x4ACA DUP2 PUSH2 0x43E3 JUMP JUMPDEST SWAP1 POP SWAP2 SWAP1 POP JUMP JUMPDEST PUSH1 0x0 PUSH1 0x20 DUP3 ADD SWAP1 POP DUP2 DUP2 SUB PUSH1 0x0 DUP4 ADD MSTORE PUSH2 0x4AEA DUP2 PUSH2 0x4406 JUMP JUMPDEST SWAP1 POP SWAP2 SWAP1 POP JUMP JUMPDEST PUSH1 0x0 PUSH1 0x20 DUP3 ADD SWAP1 POP DUP2 DUP2 SUB PUSH1 0x0 DUP4 ADD MSTORE PUSH2 0x4B0A DUP2 PUSH2 0x4429 JUMP JUMPDEST SWAP1 POP SWAP2 SWAP1 POP JUMP JUMPDEST PUSH1 0x0 PUSH1 0x20 DUP3 ADD SWAP1 POP DUP2 DUP2 SUB PUSH1 0x0 DUP4 ADD MSTORE PUSH2 0x4B2A DUP2 PUSH2 0x446F JUMP JUMPDEST SWAP1 POP SWAP2 SWAP1 POP JUMP JUMPDEST PUSH1 0x0 PUSH1 0x20 DUP3 ADD SWAP1 POP DUP2 DUP2 SUB PUSH1 0x0 DUP4 ADD MSTORE PUSH2 0x4B4A DUP2 PUSH2 0x4492 JUMP JUMPDEST SWAP1 POP SWAP2 SWAP1 POP JUMP JUMPDEST PUSH1 0x0 PUSH1 0x20 DUP3 ADD SWAP1 POP DUP2 DUP2 SUB PUSH1 0x0 DUP4 ADD MSTORE PUSH2 0x4B6A DUP2 PUSH2 0x44B5 JUMP JUMPDEST SWAP1 POP SWAP2 SWAP1 POP JUMP JUMPDEST PUSH1 0x0 PUSH1 0x20 DUP3 ADD SWAP1 POP DUP2 DUP2 SUB PUSH1 0x0 DUP4 ADD MSTORE PUSH2 0x4B8A DUP2 PUSH2 0x44D8 JUMP JUMPDEST SWAP1 POP SWAP2 SWAP1 POP JUMP JUMPDEST PUSH1 0x0 PUSH1 0x20 DUP3 ADD SWAP1 POP DUP2 DUP2 SUB PUSH1 0x0 DUP4 ADD MSTORE PUSH2 0x4BAA DUP2 PUSH2 0x44FB JUMP JUMPDEST SWAP1 POP SWAP2 SWAP1 POP JUMP JUMPDEST PUSH1 0x0 PUSH1 0x20 DUP3 ADD SWAP1 POP DUP2 DUP2 SUB PUSH1 0x0 DUP4 ADD MSTORE PUSH2 0x4BCA DUP2 PUSH2 0x451E JUMP JUMPDEST SWAP1 POP SWAP2 SWAP1 POP JUMP JUMPDEST PUSH1 0x0 PUSH1 0x20 DUP3 ADD SWAP1 POP DUP2 DUP2 SUB PUSH1 0x0 DUP4 ADD MSTORE PUSH2 0x4BEA DUP2 PUSH2 0x4541 JUMP JUMPDEST SWAP1 POP SWAP2 SWAP1 POP JUMP JUMPDEST PUSH1 0x0 PUSH1 0x20 DUP3 ADD SWAP1 POP DUP2 DUP2 SUB PUSH1 0x0 DUP4 ADD MSTORE PUSH2 0x4C0A DUP2 PUSH2 0x4564 JUMP JUMPDEST SWAP1 POP SWAP2 SWAP1 POP JUMP JUMPDEST PUSH1 0x0 PUSH1 0x20 DUP3 ADD SWAP1 POP DUP2 DUP2 SUB PUSH1 0x0 DUP4 ADD MSTORE PUSH2 0x4C2A DUP2 PUSH2 0x45AA JUMP JUMPDEST SWAP1 POP SWAP2 SWAP1 POP JUMP JUMPDEST PUSH1 0x0 PUSH1 0x20 DUP3 ADD SWAP1 POP DUP2 DUP2 SUB PUSH1 0x0 DUP4 ADD MSTORE PUSH2 0x4C4A DUP2 PUSH2 0x45CD JUMP JUMPDEST SWAP1 POP SWAP2 SWAP1 POP JUMP JUMPDEST PUSH1 0x0 PUSH1 0x20 DUP3 ADD SWAP1 POP DUP2 DUP2 SUB PUSH1 0x0 DUP4 ADD MSTORE PUSH2 0x4C6A DUP2 PUSH2 0x45F0 JUMP JUMPDEST SWAP1 POP SWAP2 SWAP1 POP JUMP JUMPDEST PUSH1 0x0 PUSH1 0x20 DUP3 ADD SWAP1 POP DUP2 DUP2 SUB PUSH1 0x0 DUP4 ADD MSTORE PUSH2 0x4C8A DUP2 PUSH2 0x4613 JUMP JUMPDEST SWAP1 POP SWAP2 SWAP1 POP JUMP JUMPDEST PUSH1 0x0 PUSH1 0x20 DUP3 ADD SWAP1 POP DUP2 DUP2 SUB PUSH1 0x0 DUP4 ADD MSTORE PUSH2 0x4CAA DUP2 PUSH2 0x4708 JUMP JUMPDEST SWAP1 POP SWAP2 SWAP1 POP JUMP JUMPDEST PUSH1 0x0 PUSH1 0x20 DUP3 ADD SWAP1 POP DUP2 DUP2 SUB PUSH1 0x0 DUP4 ADD MSTORE PUSH2 0x4CCA DUP2 PUSH2 0x472B JUMP JUMPDEST SWAP1 POP SWAP2 SWAP1 POP JUMP JUMPDEST PUSH1 0x0 PUSH1 0x20 DUP3 ADD SWAP1 POP DUP2 DUP2 SUB PUSH1 0x0 DUP4 ADD MSTORE PUSH2 0x4CEA DUP2 PUSH2 0x474E JUMP JUMPDEST SWAP1 POP SWAP2 SWAP1 POP JUMP JUMPDEST PUSH1 0x0 PUSH1 0x20 DUP3 ADD SWAP1 POP DUP2 DUP2 SUB PUSH1 0x0 DUP4 ADD MSTORE PUSH2 0x4D0A DUP2 PUSH2 0x4771 JUMP JUMPDEST SWAP1 POP SWAP2 SWAP1 POP JUMP JUMPDEST PUSH1 0x0 PUSH1 0x20 DUP3 ADD SWAP1 POP DUP2 DUP2 SUB PUSH1 0x0 DUP4 ADD MSTORE PUSH2 0x4D2A DUP2 PUSH2 0x4794 JUMP JUMPDEST SWAP1 POP SWAP2 SWAP1 POP JUMP JUMPDEST PUSH1 0x0 PUSH1 0x20 DUP3 ADD SWAP1 POP DUP2 DUP2 SUB PUSH1 0x0 DUP4 ADD MSTORE PUSH2 0x4D4A DUP2 PUSH2 0x47B7 JUMP JUMPDEST SWAP1 POP SWAP2 SWAP1 POP JUMP JUMPDEST PUSH1 0x0 PUSH1 0x20 DUP3 ADD SWAP1 POP PUSH2 0x4D66 PUSH1 0x0 DUP4 ADD DUP5 PUSH2 0x47E9 JUMP JUMPDEST SWAP3 SWAP2 POP POP JUMP JUMPDEST PUSH1 0x0 PUSH1 0x40 DUP3 ADD SWAP1 POP PUSH2 0x4D81 PUSH1 0x0 DUP4 ADD DUP6 PUSH2 0x47E9 JUMP JUMPDEST PUSH2 0x4D8E PUSH1 0x20 DUP4 ADD DUP5 PUSH2 0x47E9 JUMP JUMPDEST SWAP4 SWAP3 POP POP POP JUMP JUMPDEST PUSH1 0x0 DUP1 DUP4 CALLDATALOAD PUSH1 0x1 PUSH1 0x20 SUB DUP5 CALLDATASIZE SUB SUB DUP2 SLT PUSH2 0x4DB2 JUMPI PUSH2 0x4DB1 PUSH2 0x5628 JUMP JUMPDEST JUMPDEST DUP1 DUP5 ADD SWAP3 POP DUP3 CALLDATALOAD SWAP2 POP PUSH8 0xFFFFFFFFFFFFFFFF DUP3 GT ISZERO PUSH2 0x4DD4 JUMPI PUSH2 0x4DD3 PUSH2 0x5623 JUMP JUMPDEST JUMPDEST PUSH1 0x20 DUP4 ADD SWAP3 POP PUSH1 0x1 DUP3 MUL CALLDATASIZE SUB DUP4 SGT ISZERO PUSH2 0x4DF0 JUMPI PUSH2 0x4DEF PUSH2 0x5632 JUMP JUMPDEST JUMPDEST POP SWAP3 POP SWAP3 SWAP1 POP JUMP JUMPDEST PUSH1 0x0 PUSH2 0x4E02 PUSH2 0x4E13 JUMP JUMPDEST SWAP1 POP PUSH2 0x4E0E DUP3 DUP3 PUSH2 0x5492 JUMP JUMPDEST SWAP2 SWAP1 POP JUMP JUMPDEST PUSH1 0x0 PUSH1 0x40 MLOAD SWAP1 POP SWAP1 JUMP JUMPDEST PUSH1 0x0 PUSH8 0xFFFFFFFFFFFFFFFF DUP3 GT ISZERO PUSH2 0x4E38 JUMPI PUSH2 0x4E37 PUSH2 0x55C8 JUMP JUMPDEST JUMPDEST PUSH1 0x20 DUP3 MUL SWAP1 POP PUSH1 0x20 DUP2 ADD SWAP1 POP SWAP2 SWAP1 POP JUMP JUMPDEST PUSH1 0x0 PUSH8 0xFFFFFFFFFFFFFFFF DUP3 GT ISZERO PUSH2 0x4E64 JUMPI PUSH2 0x4E63 PUSH2 0x55C8 JUMP JUMPDEST JUMPDEST PUSH1 0x20 DUP3 MUL SWAP1 POP PUSH1 0x20 DUP2 ADD SWAP1 POP SWAP2 SWAP1 POP JUMP JUMPDEST PUSH1 0x0 PUSH8 0xFFFFFFFFFFFFFFFF DUP3 GT ISZERO PUSH2 0x4E90 JUMPI PUSH2 0x4E8F PUSH2 0x55C8 JUMP JUMPDEST JUMPDEST PUSH2 0x4E99 DUP3 PUSH2 0x5646 JUMP JUMPDEST SWAP1 POP PUSH1 0x20 DUP2 ADD SWAP1 POP SWAP2 SWAP1 POP JUMP JUMPDEST PUSH1 0x0 DUP2 SWAP1 POP PUSH1 0x20 DUP3 ADD SWAP1 POP SWAP2 SWAP1 POP JUMP JUMPDEST PUSH1 0x0 DUP2 SWAP1 POP DUP2 PUSH1 0x0 MSTORE PUSH1 0x20 PUSH1 0x0 KECCAK256 SWAP1 POP SWAP2 SWAP1 POP JUMP JUMPDEST PUSH1 0x0 DUP2 MLOAD SWAP1 POP SWAP2 SWAP1 POP JUMP JUMPDEST PUSH1 0x0 DUP2 MLOAD SWAP1 POP SWAP2 SWAP1 POP JUMP JUMPDEST PUSH1 0x0 DUP2 MLOAD SWAP1 POP SWAP2 SWAP1 POP JUMP JUMPDEST PUSH1 0x0 PUSH1 0x20 DUP3 ADD SWAP1 POP SWAP2 SWAP1 POP JUMP JUMPDEST PUSH1 0x0 DUP3 DUP3 MSTORE PUSH1 0x20 DUP3 ADD SWAP1 POP SWAP3 SWAP2 POP POP JUMP JUMPDEST PUSH1 0x0 DUP3 DUP3 MSTORE PUSH1 0x20 DUP3 ADD SWAP1 POP SWAP3 SWAP2 POP POP JUMP JUMPDEST PUSH1 0x0 DUP2 SWAP1 POP SWAP3 SWAP2 POP POP JUMP JUMPDEST PUSH1 0x0 DUP3 DUP3 MSTORE PUSH1 0x20 DUP3 ADD SWAP1 POP SWAP3 SWAP2 POP POP JUMP JUMPDEST PUSH1 0x0 DUP2 SWAP1 POP SWAP3 SWAP2 POP POP JUMP JUMPDEST PUSH1 0x0 PUSH2 0x4F4D DUP3 PUSH2 0x53F1 JUMP JUMPDEST SWAP2 POP PUSH2 0x4F58 DUP4 PUSH2 0x53F1 JUMP JUMPDEST SWAP3 POP DUP3 PUSH32 0xFFFFFFFFFFFFFFFFFFFFFFFFFFFFFFFFFFFFFFFFFFFFFFFFFFFFFFFFFFFFFFFF SUB DUP3 GT ISZERO PUSH2 0x4F8D JUMPI PUSH2 0x4F8C PUSH2 0x550C JUMP JUMPDEST JUMPDEST DUP3 DUP3 ADD SWAP1 POP SWAP3 SWAP2 POP POP JUMP JUMPDEST PUSH1 0x0 PUSH2 0x4FA3 DUP3 PUSH2 0x53C7 JUMP JUMPDEST SWAP2 POP PUSH2 0x4FAE DUP4 PUSH2 0x53C7 JUMP JUMPDEST SWAP3 POP DUP3 PUSH2 0x4FBE JUMPI PUSH2 0x4FBD PUSH2 0x553B JUMP JUMPDEST JUMPDEST PUSH1 0x1 PUSH1 0x0 SUB DUP4 EQ PUSH32 0x8000000000000000000000000000000000000000000000000000000000000000 DUP4 EQ AND ISZERO PUSH2 0x4FF7 JUMPI PUSH2 0x4FF6 PUSH2 0x550C JUMP JUMPDEST JUMPDEST DUP3 DUP3 SDIV SWAP1 POP SWAP3 SWAP2 POP POP JUMP JUMPDEST PUSH1 0x0 PUSH2 0x500D DUP3 PUSH2 0x53F1 JUMP JUMPDEST SWAP2 POP PUSH2 0x5018 DUP4 PUSH2 0x53F1 JUMP JUMPDEST SWAP3 POP DUP3 PUSH2 0x5028 JUMPI PUSH2 0x5027 PUSH2 0x553B JUMP JUMPDEST JUMPDEST DUP3 DUP3 DIV SWAP1 POP SWAP3 SWAP2 POP POP JUMP JUMPDEST PUSH1 0x0 DUP1 DUP3 SWAP2 POP DUP4 SWAP1 POP JUMPDEST PUSH1 0x1 DUP6 GT ISZERO PUSH2 0x507D JUMPI DUP1 DUP7 DIV DUP2 GT ISZERO PUSH2 0x5059 JUMPI PUSH2 0x5058 PUSH2 0x550C JUMP JUMPDEST JUMPDEST PUSH1 0x1 DUP6 AND ISZERO PUSH2 0x5068 JUMPI DUP1 DUP3 MUL SWAP2 POP JUMPDEST DUP1 DUP2 MUL SWAP1 POP PUSH2 0x5076 DUP6 PUSH2 0x5657 JUMP JUMPDEST SWAP5 POP PUSH2 0x503D JUMP JUMPDEST SWAP5 POP SWAP5 SWAP3 POP POP POP JUMP JUMPDEST PUSH1 0x0 PUSH2 0x5091 DUP3 PUSH2 0x53F1 JUMP JUMPDEST SWAP2 POP PUSH2 0x509C DUP4 PUSH2 0x53F1 JUMP JUMPDEST SWAP3 POP PUSH2 0x50C9 PUSH32 0xFFFFFFFFFFFFFFFFFFFFFFFFFFFFFFFFFFFFFFFFFFFFFFFFFFFFFFFFFFFFFFFF DUP5 DUP5 PUSH2 0x50D1 JUMP JUMPDEST SWAP1 POP SWAP3 SWAP2 POP POP JUMP JUMPDEST PUSH1 0x0 DUP3 PUSH2 0x50E1 JUMPI PUSH1 0x1 SWAP1 POP PUSH2 0x519D JUMP JUMPDEST DUP2 PUSH2 0x50EF JUMPI PUSH1 0x0 SWAP1 POP PUSH2 0x519D JUMP JUMPDEST DUP2 PUSH1 0x1 DUP2 EQ PUSH2 0x5105 JUMPI PUSH1 0x2 DUP2 EQ PUSH2 0x510F JUMPI PUSH2 0x513E JUMP JUMPDEST PUSH1 0x1 SWAP2 POP POP PUSH2 0x519D JUMP JUMPDEST PUSH1 0xFF DUP5 GT ISZERO PUSH2 0x5121 JUMPI PUSH2 0x5120 PUSH2 0x550C JUMP JUMPDEST JUMPDEST DUP4 PUSH1 0x2 EXP SWAP2 POP DUP5 DUP3 GT ISZERO PUSH2 0x5138 JUMPI PUSH2 0x5137 PUSH2 0x550C JUMP JUMPDEST JUMPDEST POP PUSH2 0x519D JUMP JUMPDEST POP PUSH1 0x20 DUP4 LT PUSH2 0x133 DUP4 LT AND PUSH1 0x4E DUP5 LT PUSH1 0xB DUP5 LT AND OR ISZERO PUSH2 0x5173 JUMPI DUP3 DUP3 EXP SWAP1 POP DUP4 DUP2 GT ISZERO PUSH2 0x516E JUMPI PUSH2 0x516D PUSH2 0x550C JUMP JUMPDEST JUMPDEST PUSH2 0x519D JUMP JUMPDEST PUSH2 0x5180 DUP5 DUP5 DUP5 PUSH1 0x1 PUSH2 0x5033 JUMP JUMPDEST SWAP3 POP SWAP1 POP DUP2 DUP5 DIV DUP2 GT ISZERO PUSH2 0x5197 JUMPI PUSH2 0x5196 PUSH2 0x550C JUMP JUMPDEST JUMPDEST DUP2 DUP2 MUL SWAP1 POP JUMPDEST SWAP4 SWAP3 POP POP POP JUMP JUMPDEST PUSH1 0x0 PUSH2 0x51AF DUP3 PUSH2 0x53C7 JUMP JUMPDEST SWAP2 POP PUSH2 0x51BA DUP4 PUSH2 0x53C7 JUMP JUMPDEST SWAP3 POP DUP3 PUSH32 0x7FFFFFFFFFFFFFFFFFFFFFFFFFFFFFFFFFFFFFFFFFFFFFFFFFFFFFFFFFFFFFFF DIV DUP3 GT PUSH1 0x0 DUP5 SGT PUSH1 0x0 DUP5 SGT AND AND ISZERO PUSH2 0x51F9 JUMPI PUSH2 0x51F8 PUSH2 0x550C JUMP JUMPDEST JUMPDEST DUP2 PUSH32 0x8000000000000000000000000000000000000000000000000000000000000000 SDIV DUP4 SLT PUSH1 0x0 DUP5 SLT PUSH1 0x0 DUP5 SGT AND AND ISZERO PUSH2 0x5236 JUMPI PUSH2 0x5235 PUSH2 0x550C JUMP JUMPDEST JUMPDEST DUP3 PUSH32 0x8000000000000000000000000000000000000000000000000000000000000000 SDIV DUP3 SLT PUSH1 0x0 DUP5 SGT PUSH1 0x0 DUP5 SLT AND AND ISZERO PUSH2 0x5273 JUMPI PUSH2 0x5272 PUSH2 0x550C JUMP JUMPDEST JUMPDEST DUP3 PUSH32 0x7FFFFFFFFFFFFFFFFFFFFFFFFFFFFFFFFFFFFFFFFFFFFFFFFFFFFFFFFFFFFFFF SDIV DUP3 SLT PUSH1 0x0 DUP5 SLT PUSH1 0x0 DUP5 SLT AND AND ISZERO PUSH2 0x52B0 JUMPI PUSH2 0x52AF PUSH2 0x550C JUMP JUMPDEST JUMPDEST DUP3 DUP3 MUL SWAP1 POP SWAP3 SWAP2 POP POP JUMP JUMPDEST PUSH1 0x0 PUSH2 0x52C6 DUP3 PUSH2 0x53F1 JUMP JUMPDEST SWAP2 POP PUSH2 0x52D1 DUP4 PUSH2 0x53F1 JUMP JUMPDEST SWAP3 POP DUP2 PUSH32 0xFFFFFFFFFFFFFFFFFFFFFFFFFFFFFFFFFFFFFFFFFFFFFFFFFFFFFFFFFFFFFFFF DIV DUP4 GT DUP3 ISZERO ISZERO AND ISZERO PUSH2 0x530A JUMPI PUSH2 0x5309 PUSH2 0x550C JUMP JUMPDEST JUMPDEST DUP3 DUP3 MUL SWAP1 POP SWAP3 SWAP2 POP POP JUMP JUMPDEST PUSH1 0x0 PUSH2 0x5320 DUP3 PUSH2 0x53F1 JUMP JUMPDEST SWAP2 POP PUSH2 0x532B DUP4 PUSH2 0x53F1 JUMP JUMPDEST SWAP3 POP DUP3 DUP3 LT ISZERO PUSH2 0x533E JUMPI PUSH2 0x533D PUSH2 0x550C JUMP JUMPDEST JUMPDEST DUP3 DUP3 SUB SWAP1 POP SWAP3 SWAP2 POP POP JUMP JUMPDEST PUSH1 0x0 PUSH2 0x5354 DUP3 PUSH2 0x53FB JUMP JUMPDEST SWAP2 POP PUSH2 0x535F DUP4 PUSH2 0x53FB JUMP JUMPDEST SWAP3 POP DUP3 DUP3 LT ISZERO PUSH2 0x5372 JUMPI PUSH2 0x5371 PUSH2 0x550C JUMP JUMPDEST JUMPDEST DUP3 DUP3 SUB SWAP1 POP SWAP3 SWAP2 POP POP JUMP JUMPDEST PUSH1 0x0 PUSH2 0x5388 DUP3 PUSH2 0x53D1 JUMP JUMPDEST SWAP1 POP SWAP2 SWAP1 POP JUMP JUMPDEST PUSH1 0x0 DUP2 ISZERO ISZERO SWAP1 POP SWAP2 SWAP1 POP JUMP JUMPDEST PUSH1 0x0 PUSH32 0xFFFFFFFF00000000000000000000000000000000000000000000000000000000 DUP3 AND SWAP1 POP SWAP2 SWAP1 POP JUMP JUMPDEST PUSH1 0x0 DUP2 SWAP1 POP SWAP2 SWAP1 POP JUMP JUMPDEST PUSH1 0x0 PUSH20 0xFFFFFFFFFFFFFFFFFFFFFFFFFFFFFFFFFFFFFFFF DUP3 AND SWAP1 POP SWAP2 SWAP1 POP JUMP JUMPDEST PUSH1 0x0 DUP2 SWAP1 POP SWAP2 SWAP1 POP JUMP JUMPDEST PUSH1 0x0 PUSH1 0xFF DUP3 AND SWAP1 POP SWAP2 SWAP1 POP JUMP JUMPDEST PUSH1 0x0 PUSH10 0xFFFFFFFFFFFFFFFFFFFF DUP3 AND SWAP1 POP SWAP2 SWAP1 POP JUMP JUMPDEST DUP3 DUP2 DUP4 CALLDATACOPY PUSH1 0x0 DUP4 DUP4 ADD MSTORE POP POP POP JUMP JUMPDEST PUSH1 0x0 JUMPDEST DUP4 DUP2 LT ISZERO PUSH2 0x544B JUMPI DUP1 DUP3 ADD MLOAD DUP2 DUP5 ADD MSTORE PUSH1 0x20 DUP2 ADD SWAP1 POP PUSH2 0x5430 JUMP JUMPDEST DUP4 DUP2 GT ISZERO PUSH2 0x545A JUMPI PUSH1 0x0 DUP5 DUP5 ADD MSTORE JUMPDEST POP POP POP POP JUMP JUMPDEST PUSH1 0x0 PUSH1 0x2 DUP3 DIV SWAP1 POP PUSH1 0x1 DUP3 AND DUP1 PUSH2 0x5478 JUMPI PUSH1 0x7F DUP3 AND SWAP2 POP JUMPDEST PUSH1 0x20 DUP3 LT DUP2 EQ ISZERO PUSH2 0x548C JUMPI PUSH2 0x548B PUSH2 0x556A JUMP JUMPDEST JUMPDEST POP SWAP2 SWAP1 POP JUMP JUMPDEST PUSH2 0x549B DUP3 PUSH2 0x5646 JUMP JUMPDEST DUP2 ADD DUP2 DUP2 LT PUSH8 0xFFFFFFFFFFFFFFFF DUP3 GT OR ISZERO PUSH2 0x54BA JUMPI PUSH2 0x54B9 PUSH2 0x55C8 JUMP JUMPDEST JUMPDEST DUP1 PUSH1 0x40 MSTORE POP POP POP JUMP JUMPDEST PUSH1 0x0 PUSH2 0x54CE DUP3 PUSH2 0x53F1 JUMP JUMPDEST SWAP2 POP PUSH32 0xFFFFFFFFFFFFFFFFFFFFFFFFFFFFFFFFFFFFFFFFFFFFFFFFFFFFFFFFFFFFFFFF DUP3 EQ ISZERO PUSH2 0x5501 JUMPI PUSH2 0x5500 PUSH2 0x550C JUMP JUMPDEST JUMPDEST PUSH1 0x1 DUP3 ADD SWAP1 POP SWAP2 SWAP1 POP JUMP JUMPDEST PUSH32 0x4E487B7100000000000000000000000000000000000000000000000000000000 PUSH1 0x0 MSTORE PUSH1 0x11 PUSH1 0x4 MSTORE PUSH1 0x24 PUSH1 0x0 REVERT JUMPDEST PUSH32 0x4E487B7100000000000000000000000000000000000000000000000000000000 PUSH1 0x0 MSTORE PUSH1 0x12 PUSH1 0x4 MSTORE PUSH1 0x24 PUSH1 0x0 REVERT JUMPDEST PUSH32 0x4E487B7100000000000000000000000000000000000000000000000000000000 PUSH1 0x0 MSTORE PUSH1 0x22 PUSH1 0x4 MSTORE PUSH1 0x24 PUSH1 0x0 REVERT JUMPDEST PUSH32 0x4E487B7100000000000000000000000000000000000000000000000000000000 PUSH1 0x0 MSTORE PUSH1 0x32 PUSH1 0x4 MSTORE PUSH1 0x24 PUSH1 0x0 REVERT JUMPDEST PUSH32 0x4E487B7100000000000000000000000000000000000000000000000000000000 PUSH1 0x0 MSTORE PUSH1 0x41 PUSH1 0x4 MSTORE PUSH1 0x24 PUSH1 0x0 REVERT JUMPDEST PUSH1 0x0 PUSH1 0x3 RETURNDATASIZE GT ISZERO PUSH2 0x5616 JUMPI PUSH1 0x4 PUSH1 0x0 DUP1 RETURNDATACOPY PUSH2 0x5613 PUSH1 0x0 MLOAD PUSH2 0x5664 JUMP JUMPDEST SWAP1 POP JUMPDEST SWAP1 JUMP JUMPDEST PUSH1 0x0 DUP1 REVERT JUMPDEST PUSH1 0x0 DUP1 REVERT JUMPDEST PUSH1 0x0 DUP1 REVERT JUMPDEST PUSH1 0x0 DUP1 REVERT JUMPDEST PUSH1 0x0 DUP1 REVERT JUMPDEST PUSH1 0x0 DUP1 REVERT JUMPDEST PUSH1 0x0 DUP1 REVERT JUMPDEST PUSH1 0x0 DUP1 REVERT JUMPDEST PUSH1 0x0 DUP1 REVERT JUMPDEST PUSH1 0x0 PUSH1 0x1F NOT PUSH1 0x1F DUP4 ADD AND SWAP1 POP SWAP2 SWAP1 POP JUMP JUMPDEST PUSH1 0x0 DUP2 PUSH1 0x1 SHR SWAP1 POP SWAP2 SWAP1 POP JUMP JUMPDEST PUSH1 0x0 DUP2 PUSH1 0xE0 SHR SWAP1 POP SWAP2 SWAP1 POP JUMP JUMPDEST PUSH32 0x455243313135353A207472616E7366657220746F206E6F6E2045524331313535 PUSH1 0x0 DUP3 ADD MSTORE PUSH32 0x526563656976657220696D706C656D656E746572000000000000000000000000 PUSH1 0x20 DUP3 ADD MSTORE POP JUMP JUMPDEST PUSH32 0x455243313135353A204552433131353552656365697665722072656A65637465 PUSH1 0x0 DUP3 ADD MSTORE PUSH32 0x6420746F6B656E73000000000000000000000000000000000000000000000000 PUSH1 0x20 DUP3 ADD MSTORE POP JUMP JUMPDEST PUSH32 0x4E6F20617661696C61626C6520476F6C64656E20537461726475737420436173 PUSH1 0x0 DUP3 ADD MSTORE PUSH32 0x6B732E0000000000000000000000000000000000000000000000000000000000 PUSH1 0x20 DUP3 ADD MSTORE POP JUMP JUMPDEST PUSH32 0x4172726179206C656E677468206E6F7420657175616C00000000000000000000 PUSH1 0x0 DUP3 ADD MSTORE POP JUMP JUMPDEST PUSH32 0x455243313135353A2062616C616E636520717565727920666F7220746865207A PUSH1 0x0 DUP3 ADD MSTORE PUSH32 0x65726F2061646472657373000000000000000000000000000000000000000000 PUSH1 0x20 DUP3 ADD MSTORE POP JUMP JUMPDEST PUSH32 0x4F776E61626C653A206E6577206F776E657220697320746865207A65726F2061 PUSH1 0x0 DUP3 ADD MSTORE PUSH32 0x6464726573730000000000000000000000000000000000000000000000000000 PUSH1 0x20 DUP3 ADD MSTORE POP JUMP JUMPDEST PUSH32 0x53696C766572204361736B206E656564206D6F7265204554482E000000000000 PUSH1 0x0 DUP3 ADD MSTORE POP JUMP JUMPDEST PUSH32 0x7B20226E616D65223A2022000000000000000000000000000000000000000000 PUSH1 0x0 DUP3 ADD MSTORE POP JUMP JUMPDEST PUSH32 0x4D6178204E465420706572206164647265737320657863656564656421000000 PUSH1 0x0 DUP3 ADD MSTORE POP JUMP JUMPDEST PUSH32 0x455243313135353A2063616C6C6572206973206E6F74206F776E6572206E6F72 PUSH1 0x0 DUP3 ADD MSTORE PUSH32 0x20617070726F7665640000000000000000000000000000000000000000000000 PUSH1 0x20 DUP3 ADD MSTORE POP JUMP JUMPDEST PUSH32 0x4E6F206E656564206F776E6572206D696E742100000000000000000000000000 PUSH1 0x0 DUP3 ADD MSTORE POP JUMP JUMPDEST PUSH32 0x4E6F20617661696C61626C652053696C76657220537461726475737420436173 PUSH1 0x0 DUP3 ADD MSTORE PUSH32 0x6B732E0000000000000000000000000000000000000000000000000000000000 PUSH1 0x20 DUP3 ADD MSTORE POP JUMP JUMPDEST PUSH32 0x496E76616C6964205F646563696D616C73000000000000000000000000000000 PUSH1 0x0 DUP3 ADD MSTORE POP JUMP JUMPDEST PUSH32 0x455243313135353A207472616E7366657220746F20746865207A65726F206164 PUSH1 0x0 DUP3 ADD MSTORE PUSH32 0x6472657373000000000000000000000000000000000000000000000000000000 PUSH1 0x20 DUP3 ADD MSTORE POP JUMP JUMPDEST PUSH32 0x455243313135353A207472616E736665722063616C6C6572206973206E6F7420 PUSH1 0x0 DUP3 ADD MSTORE PUSH32 0x6F776E6572206E6F7220617070726F7665640000000000000000000000000000 PUSH1 0x20 DUP3 ADD MSTORE POP JUMP JUMPDEST PUSH32 0x416E74692D636F7272757074696F6E206167656E636965732073746F70706564 PUSH1 0x0 DUP3 ADD MSTORE PUSH32 0x20746865207472616E7366657200000000000000000000000000000000000000 PUSH1 0x20 DUP3 ADD MSTORE POP JUMP JUMPDEST PUSH32 0x227D000000000000000000000000000000000000000000000000000000000000 PUSH1 0x0 DUP3 ADD MSTORE POP JUMP JUMPDEST PUSH32 0x636F6E747261637420696E697469616C697A656420616C726561647900000000 PUSH1 0x0 DUP3 ADD MSTORE POP JUMP JUMPDEST PUSH32 0x455243313135353A20696E73756666696369656E742062616C616E636520666F PUSH1 0x0 DUP3 ADD MSTORE PUSH32 0x72207472616E7366657200000000000000000000000000000000000000000000 PUSH1 0x20 DUP3 ADD MSTORE POP JUMP JUMPDEST PUSH32 0x476F6C64656E204361736B206E656564206D6F7265204554482E000000000000 PUSH1 0x0 DUP3 ADD MSTORE POP JUMP JUMPDEST PUSH32 0x4F776E61626C653A2063616C6C6572206973206E6F7420746865206F776E6572 PUSH1 0x0 DUP3 ADD MSTORE POP JUMP JUMPDEST PUSH32 0x226465736372697074696F6E22203A2000000000000000000000000000000000 PUSH1 0x0 DUP3 ADD MSTORE POP JUMP JUMPDEST PUSH32 0x646174613A6170706C69636174696F6E2F6A736F6E3B6261736536342C000000 PUSH1 0x0 DUP3 ADD MSTORE POP JUMP JUMPDEST POP JUMP JUMPDEST PUSH32 0x2241205374617264757374204361736B732066726F6D2046656C697A20706C61 PUSH1 0x0 DUP3 ADD MSTORE PUSH32 0x6E65742063616E206368616E676520746F205265616C2045737461746520616E PUSH1 0x20 DUP3 ADD MSTORE PUSH32 0x6420676574206D6F72652062656E6566697420696E2046656C697A2070726F6A PUSH1 0x40 DUP3 ADD MSTORE PUSH32 0x6563742E222C0000000000000000000000000000000000000000000000000000 PUSH1 0x60 DUP3 ADD MSTORE POP JUMP JUMPDEST PUSH32 0x222C200000000000000000000000000000000000000000000000000000000000 PUSH1 0x0 DUP3 ADD MSTORE POP JUMP JUMPDEST PUSH32 0x22696D616765223A202200000000000000000000000000000000000000000000 PUSH1 0x0 DUP3 ADD MSTORE POP JUMP JUMPDEST PUSH32 0x455243313135353A2073657474696E6720617070726F76616C20737461747573 PUSH1 0x0 DUP3 ADD MSTORE PUSH32 0x20666F722073656C660000000000000000000000000000000000000000000000 PUSH1 0x20 DUP3 ADD MSTORE POP JUMP JUMPDEST PUSH32 0x455243313135353A206163636F756E747320616E6420696473206C656E677468 PUSH1 0x0 DUP3 ADD MSTORE PUSH32 0x206D69736D617463680000000000000000000000000000000000000000000000 PUSH1 0x20 DUP3 ADD MSTORE POP JUMP JUMPDEST PUSH32 0x455243313135353A2069647320616E6420616D6F756E7473206C656E67746820 PUSH1 0x0 DUP3 ADD MSTORE PUSH32 0x6D69736D61746368000000000000000000000000000000000000000000000000 PUSH1 0x20 DUP3 ADD MSTORE POP JUMP JUMPDEST PUSH32 0x455243313135353A206D696E7420746F20746865207A65726F20616464726573 PUSH1 0x0 DUP3 ADD MSTORE PUSH32 0x7300000000000000000000000000000000000000000000000000000000000000 PUSH1 0x20 DUP3 ADD MSTORE POP JUMP JUMPDEST PUSH32 0x5265656E7472616E637947756172643A207265656E7472616E742063616C6C00 PUSH1 0x0 DUP3 ADD MSTORE POP JUMP JUMPDEST PUSH32 0x4F776E65722063616E2774206D696E7420746865204361736B73210000000000 PUSH1 0x0 DUP3 ADD MSTORE POP JUMP JUMPDEST PUSH1 0x0 PUSH1 0x44 RETURNDATASIZE LT ISZERO PUSH2 0x5E50 JUMPI PUSH2 0x5ED3 JUMP JUMPDEST PUSH2 0x5E58 PUSH2 0x4E13 JUMP JUMPDEST PUSH1 0x4 RETURNDATASIZE SUB PUSH1 0x4 DUP3 RETURNDATACOPY DUP1 MLOAD RETURNDATASIZE PUSH1 0x24 DUP3 ADD GT PUSH8 0xFFFFFFFFFFFFFFFF DUP3 GT OR ISZERO PUSH2 0x5E80 JUMPI POP POP PUSH2 0x5ED3 JUMP JUMPDEST DUP1 DUP3 ADD DUP1 MLOAD PUSH8 0xFFFFFFFFFFFFFFFF DUP2 GT ISZERO PUSH2 0x5E9E JUMPI POP POP POP POP PUSH2 0x5ED3 JUMP JUMPDEST DUP1 PUSH1 0x20 DUP4 ADD ADD PUSH1 0x4 RETURNDATASIZE SUB DUP6 ADD DUP2 GT ISZERO PUSH2 0x5EBB JUMPI POP POP POP POP POP PUSH2 0x5ED3 JUMP JUMPDEST PUSH2 0x5ECA DUP3 PUSH1 0x20 ADD DUP6 ADD DUP7 PUSH2 0x5492 JUMP JUMPDEST DUP3 SWAP6 POP POP POP POP POP POP JUMPDEST SWAP1 JUMP JUMPDEST PUSH2 0x5EDF DUP2 PUSH2 0x537D JUMP JUMPDEST DUP2 EQ PUSH2 0x5EEA JUMPI PUSH1 0x0 DUP1 REVERT JUMPDEST POP JUMP JUMPDEST PUSH2 0x5EF6 DUP2 PUSH2 0x538F JUMP JUMPDEST DUP2 EQ PUSH2 0x5F01 JUMPI PUSH1 0x0 DUP1 REVERT JUMPDEST POP JUMP JUMPDEST PUSH2 0x5F0D DUP2 PUSH2 0x539B JUMP JUMPDEST DUP2 EQ PUSH2 0x5F18 JUMPI PUSH1 0x0 DUP1 REVERT JUMPDEST POP JUMP JUMPDEST PUSH2 0x5F24 DUP2 PUSH2 0x53C7 JUMP JUMPDEST DUP2 EQ PUSH2 0x5F2F JUMPI PUSH1 0x0 DUP1 REVERT JUMPDEST POP JUMP JUMPDEST PUSH2 0x5F3B DUP2 PUSH2 0x53F1 JUMP JUMPDEST DUP2 EQ PUSH2 0x5F46 JUMPI PUSH1 0x0 DUP1 REVERT JUMPDEST POP JUMP JUMPDEST PUSH2 0x5F52 DUP2 PUSH2 0x53FB JUMP JUMPDEST DUP2 EQ PUSH2 0x5F5D JUMPI PUSH1 0x0 DUP1 REVERT JUMPDEST POP JUMP JUMPDEST PUSH2 0x5F69 DUP2 PUSH2 0x5408 JUMP JUMPDEST DUP2 EQ PUSH2 0x5F74 JUMPI PUSH1 0x0 DUP1 REVERT JUMPDEST POP JUMP INVALID COINBASE TIMESTAMP NUMBER DIFFICULTY GASLIMIT CHAINID SELFBALANCE BASEFEE 0x49 0x4A 0x4B 0x4C 0x4D 0x4E 0x4F POP MLOAD MSTORE MSTORE8 SLOAD SSTORE JUMP JUMPI PC MSIZE GAS PUSH2 0x6263 PUSH5 0x6566676869 PUSH11 0x6B6C6D6E6F707172737475 PUSH23 0x7778797A303132333435363738392B2FA2646970667358 0x22 SLT KECCAK256 ISZERO 0xD7 SHR ADD BASEFEE 0xC0 ADDRESS 0xB2 PUSH11 0x4FB9CBC43DD5B6DAAF0A45 0xCF 0x1E 0xEF 0xC5 0xC9 DUP10 0xD5 DUP3 GASLIMIT DELEGATECALL 0x22 0xB3 PUSH5 0x736F6C6343 STOP ADDMOD SMOD STOP CALLER PUSH9 0x747470733A2F2F6761 PUSH21 0x657761792E70696E6174612E636C6F75642F697066 PUSH20 0x2F516D53724B4C36666850595536426259725639 CALLDATACOPY COINBASE 0x4A PUSH14 0x33614D366E6147575A4B3935516E PUSH21 0x58585A754751724668747470733A2F2F6761746577 PUSH2 0x792E PUSH17 0x696E6174612E636C6F75642F697066732F MLOAD PUSH14 0x52526E75485677686F5945487354 PUSH25 0x7A4D63476472436674684B54533635676E665571445A6B7636 PUSH12 0x627A61000000000000000000 "
		},
		"gasEstimates": {
			"creation": {
				"codeDepositCost": "4911400",
				"executionCost": "infinite",
				"totalCost": "infinite"
			},
			"external": {
				"": "1459",
				"MaxCasksPerAddress()": "2561",
				"WithdrawFunds()": "infinite",
				"awardStardustCasks(address[],uint256[],uint256)": "infinite",
				"balanceOf(address,uint256)": "infinite",
				"balanceOfBatch(address[],uint256[])": "infinite",
				"changeURIs(string[],uint256[])": "infinite",
				"citizensAddress()": "2604",
				"getGoldenCasksCost()": "infinite",
				"getGoldenCost()": "2504",
				"getSilverCasksCost()": "infinite",
				"getSilverCost()": "2549",
				"getTotalBronzeCasks()": "2548",
				"getTotalGoldenCasks()": "2526",
				"getTotalSilverCasks()": "2550",
				"howManyreservedStardustCask()": "2505",
				"initialStardustCask()": "infinite",
				"isApprovedForAll(address,address)": "infinite",
				"issueNewCask(address,uint256,uint256)": "infinite",
				"owner()": "2612",
				"purchaseGoldCask(uint256)": "infinite",
				"purchaseSilverCask(uint256)": "infinite",
				"renounceOwnership()": "30441",
				"reserveStardustCasks(uint256)": "24849",
				"safeBatchTransferFrom(address,address,uint256[],uint256[],bytes)": "infinite",
				"safeTransferFrom(address,address,uint256,uint256,bytes)": "infinite",
				"setApprovalForAll(address,bool)": "infinite",
				"setCitizensAddress(address)": "27074",
				"setEthAddress(address)": "27029",
				"setGoldenStardustCasksPrice(uint256)": "24828",
				"setMaxCasksPerAddress(uint256)": "24805",
				"setSilverStardustCasksPrice(uint256)": "24849",
				"supportsInterface(bytes4)": "842",
				"transferOwnership(address)": "30833",
				"uri(uint256)": "infinite"
			},
			"internal": {
				"getCitizensCost(uint256)": "infinite",
				"getStardustCasksPrice(uint256,uint8)": "infinite",
				"scalePrice(int256,uint8,uint8)": "infinite"
			}
		},
		"methodIdentifiers": {
			"MaxCasksPerAddress()": "f4d82507",
			"WithdrawFunds()": "4c0aac9a",
			"awardStardustCasks(address[],uint256[],uint256)": "78f0107b",
			"balanceOf(address,uint256)": "00fdd58e",
			"balanceOfBatch(address[],uint256[])": "4e1273f4",
			"changeURIs(string[],uint256[])": "74b005d6",
			"citizensAddress()": "4d8f9b63",
			"getGoldenCasksCost()": "f15fbe86",
			"getGoldenCost()": "ad811da0",
			"getSilverCasksCost()": "45548224",
			"getSilverCost()": "3bca9c00",
			"getTotalBronzeCasks()": "c6976028",
			"getTotalGoldenCasks()": "bb48b5ab",
			"getTotalSilverCasks()": "1f8ed964",
			"howManyreservedStardustCask()": "838663a4",
			"initialStardustCask()": "227545c7",
			"isApprovedForAll(address,address)": "e985e9c5",
			"issueNewCask(address,uint256,uint256)": "5907e7e6",
			"owner()": "8da5cb5b",
			"purchaseGoldCask(uint256)": "a3885ebe",
			"purchaseSilverCask(uint256)": "82fe246f",
			"renounceOwnership()": "715018a6",
			"reserveStardustCasks(uint256)": "9bd8b2e4",
			"safeBatchTransferFrom(address,address,uint256[],uint256[],bytes)": "2eb2c2d6",
			"safeTransferFrom(address,address,uint256,uint256,bytes)": "f242432a",
			"setApprovalForAll(address,bool)": "a22cb465",
			"setCitizensAddress(address)": "96085da3",
			"setEthAddress(address)": "9b0da5d5",
			"setGoldenStardustCasksPrice(uint256)": "2d3d5a44",
			"setMaxCasksPerAddress(uint256)": "9716016c",
			"setSilverStardustCasksPrice(uint256)": "72f2e20d",
			"supportsInterface(bytes4)": "01ffc9a7",
			"transferOwnership(address)": "f2fde38b",
			"uri(uint256)": "0e89341c"
		}
	},
	"abi": [
		{
			"inputs": [],
			"stateMutability": "nonpayable",
			"type": "constructor"
		},
		{
			"anonymous": false,
			"inputs": [
				{
					"indexed": true,
					"internalType": "address",
					"name": "account",
					"type": "address"
				},
				{
					"indexed": true,
					"internalType": "address",
					"name": "operator",
					"type": "address"
				},
				{
					"indexed": false,
					"internalType": "bool",
					"name": "approved",
					"type": "bool"
				}
			],
			"name": "ApprovalForAll",
			"type": "event"
		},
		{
			"anonymous": false,
			"inputs": [
				{
					"indexed": false,
					"internalType": "address",
					"name": "",
					"type": "address"
				}
			],
			"name": "LogEthDeposit",
			"type": "event"
		},
		{
			"anonymous": false,
			"inputs": [
				{
					"indexed": true,
					"internalType": "address",
					"name": "previousOwner",
					"type": "address"
				},
				{
					"indexed": true,
					"internalType": "address",
					"name": "newOwner",
					"type": "address"
				}
			],
			"name": "OwnershipTransferred",
			"type": "event"
		},
		{
			"anonymous": false,
			"inputs": [
				{
					"indexed": true,
					"internalType": "address",
					"name": "operator",
					"type": "address"
				},
				{
					"indexed": true,
					"internalType": "address",
					"name": "from",
					"type": "address"
				},
				{
					"indexed": true,
					"internalType": "address",
					"name": "to",
					"type": "address"
				},
				{
					"indexed": false,
					"internalType": "uint256[]",
					"name": "ids",
					"type": "uint256[]"
				},
				{
					"indexed": false,
					"internalType": "uint256[]",
					"name": "values",
					"type": "uint256[]"
				}
			],
			"name": "TransferBatch",
			"type": "event"
		},
		{
			"anonymous": false,
			"inputs": [
				{
					"indexed": true,
					"internalType": "address",
					"name": "operator",
					"type": "address"
				},
				{
					"indexed": true,
					"internalType": "address",
					"name": "from",
					"type": "address"
				},
				{
					"indexed": true,
					"internalType": "address",
					"name": "to",
					"type": "address"
				},
				{
					"indexed": false,
					"internalType": "uint256",
					"name": "id",
					"type": "uint256"
				},
				{
					"indexed": false,
					"internalType": "uint256",
					"name": "value",
					"type": "uint256"
				}
			],
			"name": "TransferSingle",
			"type": "event"
		},
		{
			"anonymous": false,
			"inputs": [
				{
					"indexed": false,
					"internalType": "string",
					"name": "value",
					"type": "string"
				},
				{
					"indexed": true,
					"internalType": "uint256",
					"name": "id",
					"type": "uint256"
				}
			],
			"name": "URI",
			"type": "event"
		},
		{
			"stateMutability": "payable",
			"type": "fallback"
		},
		{
			"inputs": [],
			"name": "MaxCasksPerAddress",
			"outputs": [
				{
					"internalType": "uint256",
					"name": "",
					"type": "uint256"
				}
			],
			"stateMutability": "view",
			"type": "function"
		},
		{
			"inputs": [],
			"name": "WithdrawFunds",
			"outputs": [],
			"stateMutability": "nonpayable",
			"type": "function"
		},
		{
			"inputs": [
				{
					"internalType": "address[]",
					"name": "_awardees",
					"type": "address[]"
				},
				{
					"internalType": "uint256[]",
					"name": "_numberOfStardustCasks",
					"type": "uint256[]"
				},
				{
					"internalType": "uint256",
					"name": "_StardustCaskType",
					"type": "uint256"
				}
			],
			"name": "awardStardustCasks",
			"outputs": [],
			"stateMutability": "nonpayable",
			"type": "function"
		},
		{
			"inputs": [
				{
					"internalType": "address",
					"name": "account",
					"type": "address"
				},
				{
					"internalType": "uint256",
					"name": "id",
					"type": "uint256"
				}
			],
			"name": "balanceOf",
			"outputs": [
				{
					"internalType": "uint256",
					"name": "",
					"type": "uint256"
				}
			],
			"stateMutability": "view",
			"type": "function"
		},
		{
			"inputs": [
				{
					"internalType": "address[]",
					"name": "accounts",
					"type": "address[]"
				},
				{
					"internalType": "uint256[]",
					"name": "ids",
					"type": "uint256[]"
				}
			],
			"name": "balanceOfBatch",
			"outputs": [
				{
					"internalType": "uint256[]",
					"name": "",
					"type": "uint256[]"
				}
			],
			"stateMutability": "view",
			"type": "function"
		},
		{
			"inputs": [
				{
					"internalType": "string[]",
					"name": "_tokenURIs",
					"type": "string[]"
				},
				{
					"internalType": "uint256[]",
					"name": "_StardustCasksNFTIds",
					"type": "uint256[]"
				}
			],
			"name": "changeURIs",
			"outputs": [],
			"stateMutability": "nonpayable",
			"type": "function"
		},
		{
			"inputs": [],
			"name": "citizensAddress",
			"outputs": [
				{
					"internalType": "address",
					"name": "",
					"type": "address"
				}
			],
			"stateMutability": "view",
			"type": "function"
		},
		{
			"inputs": [],
			"name": "getGoldenCasksCost",
			"outputs": [
				{
					"internalType": "uint256",
					"name": "",
					"type": "uint256"
				}
			],
			"stateMutability": "view",
			"type": "function"
		},
		{
			"inputs": [],
			"name": "getGoldenCost",
			"outputs": [
				{
					"internalType": "uint256",
					"name": "",
					"type": "uint256"
				}
			],
			"stateMutability": "view",
			"type": "function"
		},
		{
			"inputs": [],
			"name": "getSilverCasksCost",
			"outputs": [
				{
					"internalType": "uint256",
					"name": "",
					"type": "uint256"
				}
			],
			"stateMutability": "view",
			"type": "function"
		},
		{
			"inputs": [],
			"name": "getSilverCost",
			"outputs": [
				{
					"internalType": "uint256",
					"name": "",
					"type": "uint256"
				}
			],
			"stateMutability": "view",
			"type": "function"
		},
		{
			"inputs": [],
			"name": "getTotalBronzeCasks",
			"outputs": [
				{
					"internalType": "uint256",
					"name": "",
					"type": "uint256"
				}
			],
			"stateMutability": "view",
			"type": "function"
		},
		{
			"inputs": [],
			"name": "getTotalGoldenCasks",
			"outputs": [
				{
					"internalType": "uint256",
					"name": "",
					"type": "uint256"
				}
			],
			"stateMutability": "view",
			"type": "function"
		},
		{
			"inputs": [],
			"name": "getTotalSilverCasks",
			"outputs": [
				{
					"internalType": "uint256",
					"name": "",
					"type": "uint256"
				}
			],
			"stateMutability": "view",
			"type": "function"
		},
		{
			"inputs": [],
			"name": "howManyreservedStardustCask",
			"outputs": [
				{
					"internalType": "uint256",
					"name": "",
					"type": "uint256"
				}
			],
			"stateMutability": "view",
			"type": "function"
		},
		{
			"inputs": [],
			"name": "initialStardustCask",
			"outputs": [],
			"stateMutability": "nonpayable",
			"type": "function"
		},
		{
			"inputs": [
				{
					"internalType": "address",
					"name": "account",
					"type": "address"
				},
				{
					"internalType": "address",
					"name": "operator",
					"type": "address"
				}
			],
			"name": "isApprovedForAll",
			"outputs": [
				{
					"internalType": "bool",
					"name": "",
					"type": "bool"
				}
			],
			"stateMutability": "view",
			"type": "function"
		},
		{
			"inputs": [
				{
					"internalType": "address",
					"name": "_to",
					"type": "address"
				},
				{
					"internalType": "uint256",
					"name": "_caskType",
					"type": "uint256"
				},
				{
					"internalType": "uint256",
					"name": "_numberOfCasks",
					"type": "uint256"
				}
			],
			"name": "issueNewCask",
			"outputs": [],
			"stateMutability": "nonpayable",
			"type": "function"
		},
		{
			"inputs": [],
			"name": "owner",
			"outputs": [
				{
					"internalType": "address",
					"name": "",
					"type": "address"
				}
			],
			"stateMutability": "view",
			"type": "function"
		},
		{
			"inputs": [
				{
					"internalType": "uint256",
					"name": "_goldenNumber",
					"type": "uint256"
				}
			],
			"name": "purchaseGoldCask",
			"outputs": [],
			"stateMutability": "payable",
			"type": "function"
		},
		{
			"inputs": [
				{
					"internalType": "uint256",
					"name": "_silverNumber",
					"type": "uint256"
				}
			],
			"name": "purchaseSilverCask",
			"outputs": [],
			"stateMutability": "payable",
			"type": "function"
		},
		{
			"inputs": [],
			"name": "renounceOwnership",
			"outputs": [],
			"stateMutability": "nonpayable",
			"type": "function"
		},
		{
			"inputs": [
				{
					"internalType": "uint256",
					"name": "_numberOfStardustCasks",
					"type": "uint256"
				}
			],
			"name": "reserveStardustCasks",
			"outputs": [],
			"stateMutability": "nonpayable",
			"type": "function"
		},
		{
			"inputs": [
				{
					"internalType": "address",
					"name": "from",
					"type": "address"
				},
				{
					"internalType": "address",
					"name": "to",
					"type": "address"
				},
				{
					"internalType": "uint256[]",
					"name": "ids",
					"type": "uint256[]"
				},
				{
					"internalType": "uint256[]",
					"name": "amounts",
					"type": "uint256[]"
				},
				{
					"internalType": "bytes",
					"name": "data",
					"type": "bytes"
				}
			],
			"name": "safeBatchTransferFrom",
			"outputs": [],
			"stateMutability": "nonpayable",
			"type": "function"
		},
		{
			"inputs": [
				{
					"internalType": "address",
					"name": "from",
					"type": "address"
				},
				{
					"internalType": "address",
					"name": "to",
					"type": "address"
				},
				{
					"internalType": "uint256",
					"name": "id",
					"type": "uint256"
				},
				{
					"internalType": "uint256",
					"name": "amount",
					"type": "uint256"
				},
				{
					"internalType": "bytes",
					"name": "data",
					"type": "bytes"
				}
			],
			"name": "safeTransferFrom",
			"outputs": [],
			"stateMutability": "nonpayable",
			"type": "function"
		},
		{
			"inputs": [
				{
					"internalType": "address",
					"name": "operator",
					"type": "address"
				},
				{
					"internalType": "bool",
					"name": "approved",
					"type": "bool"
				}
			],
			"name": "setApprovalForAll",
			"outputs": [],
			"stateMutability": "nonpayable",
			"type": "function"
		},
		{
			"inputs": [
				{
					"internalType": "address",
					"name": "_newAddress",
					"type": "address"
				}
			],
			"name": "setCitizensAddress",
			"outputs": [],
			"stateMutability": "nonpayable",
			"type": "function"
		},
		{
			"inputs": [
				{
					"internalType": "address",
					"name": "_eth",
					"type": "address"
				}
			],
			"name": "setEthAddress",
			"outputs": [],
			"stateMutability": "nonpayable",
			"type": "function"
		},
		{
			"inputs": [
				{
					"internalType": "uint256",
					"name": "_newPrice",
					"type": "uint256"
				}
			],
			"name": "setGoldenStardustCasksPrice",
			"outputs": [],
			"stateMutability": "nonpayable",
			"type": "function"
		},
		{
			"inputs": [
				{
					"internalType": "uint256",
					"name": "_maxTx",
					"type": "uint256"
				}
			],
			"name": "setMaxCasksPerAddress",
			"outputs": [],
			"stateMutability": "nonpayable",
			"type": "function"
		},
		{
			"inputs": [
				{
					"internalType": "uint256",
					"name": "_newPrice",
					"type": "uint256"
				}
			],
			"name": "setSilverStardustCasksPrice",
			"outputs": [],
			"stateMutability": "nonpayable",
			"type": "function"
		},
		{
			"inputs": [
				{
					"internalType": "bytes4",
					"name": "interfaceId",
					"type": "bytes4"
				}
			],
			"name": "supportsInterface",
			"outputs": [
				{
					"internalType": "bool",
					"name": "",
					"type": "bool"
				}
			],
			"stateMutability": "view",
			"type": "function"
		},
		{
			"inputs": [
				{
					"internalType": "address",
					"name": "newOwner",
					"type": "address"
				}
			],
			"name": "transferOwnership",
			"outputs": [],
			"stateMutability": "nonpayable",
			"type": "function"
		},
		{
			"inputs": [
				{
					"internalType": "uint256",
					"name": "_StardustCasksNFTId",
					"type": "uint256"
				}
			],
			"name": "uri",
			"outputs": [
				{
					"internalType": "string",
					"name": "",
					"type": "string"
				}
			],
			"stateMutability": "view",
			"type": "function"
		},
		{
			"stateMutability": "payable",
			"type": "receive"
		}
	]
}